{
	"src/UglyUnicornsNFTWrapper.sol": {
		"UglyUnicornsNFTWrapper": {
			"abi": [
				{
					"inputs": [],
					"stateMutability": "nonpayable",
					"type": "constructor"
				},
				{
					"anonymous": false,
					"inputs": [
						{
							"indexed": true,
							"internalType": "address",
							"name": "owner",
							"type": "address"
						},
						{
							"indexed": true,
							"internalType": "uint256",
							"name": "tokenId",
							"type": "uint256"
						}
					],
					"name": "NFTUnwrapped",
					"type": "event"
				},
				{
					"anonymous": false,
					"inputs": [
						{
							"indexed": true,
							"internalType": "address",
							"name": "owner",
							"type": "address"
						},
						{
							"indexed": true,
							"internalType": "uint256",
							"name": "tokenId",
							"type": "uint256"
						}
					],
					"name": "NFTWrapped",
					"type": "event"
				},
				{
					"anonymous": false,
					"inputs": [
						{
							"indexed": true,
							"internalType": "address",
							"name": "from",
							"type": "address"
						},
						{
							"indexed": true,
							"internalType": "address",
							"name": "to",
							"type": "address"
						},
						{
							"indexed": true,
							"internalType": "uint256",
							"name": "tokenId",
							"type": "uint256"
						}
					],
					"name": "Transfer",
					"type": "event"
				},
				{
					"inputs": [],
					"name": "UGLY_UNICORNS_ADDRESS",
					"outputs": [
						{
							"internalType": "address",
							"name": "",
							"type": "address"
						}
					],
					"stateMutability": "view",
					"type": "function"
				},
				{
					"inputs": [
						{
							"internalType": "address",
							"name": "",
							"type": "address"
						}
					],
					"name": "balanceOf",
					"outputs": [
						{
							"internalType": "uint256",
							"name": "",
							"type": "uint256"
						}
					],
					"stateMutability": "view",
					"type": "function"
				},
				{
					"inputs": [],
					"name": "defaultVotingPower",
					"outputs": [
						{
							"internalType": "uint256",
							"name": "",
							"type": "uint256"
						}
					],
					"stateMutability": "view",
					"type": "function"
				},
				{
					"inputs": [
						{
							"internalType": "uint256",
							"name": "",
							"type": "uint256"
						}
					],
					"name": "getApproved",
					"outputs": [
						{
							"internalType": "address",
							"name": "",
							"type": "address"
						}
					],
					"stateMutability": "view",
					"type": "function"
				},
				{
					"inputs": [
						{
							"internalType": "address",
							"name": "user",
							"type": "address"
						}
					],
					"name": "getVotingPower",
					"outputs": [
						{
							"internalType": "uint256",
							"name": "",
							"type": "uint256"
						}
					],
					"stateMutability": "view",
					"type": "function"
				},
				{
					"inputs": [],
					"name": "govTokenAddress",
					"outputs": [
						{
							"internalType": "address",
							"name": "",
							"type": "address"
						}
					],
					"stateMutability": "view",
					"type": "function"
				},
				{
					"inputs": [
						{
							"internalType": "address",
							"name": "",
							"type": "address"
						},
						{
							"internalType": "address",
							"name": "",
							"type": "address"
						}
					],
					"name": "isApprovedForAll",
					"outputs": [
						{
							"internalType": "bool",
							"name": "",
							"type": "bool"
						}
					],
					"stateMutability": "view",
					"type": "function"
				},
				{
					"inputs": [
						{
							"internalType": "uint256",
							"name": "",
							"type": "uint256"
						}
					],
					"name": "isWrapped",
					"outputs": [
						{
							"internalType": "bool",
							"name": "",
							"type": "bool"
						}
					],
					"stateMutability": "view",
					"type": "function"
				},
				{
					"inputs": [],
					"name": "name",
					"outputs": [
						{
							"internalType": "string",
							"name": "",
							"type": "string"
						}
					],
					"stateMutability": "view",
					"type": "function"
				},
				{
					"inputs": [],
					"name": "owner",
					"outputs": [
						{
							"internalType": "address",
							"name": "",
							"type": "address"
						}
					],
					"stateMutability": "view",
					"type": "function"
				},
				{
					"inputs": [
						{
							"internalType": "uint256",
							"name": "",
							"type": "uint256"
						}
					],
					"name": "ownerOf",
					"outputs": [
						{
							"internalType": "address",
							"name": "",
							"type": "address"
						}
					],
					"stateMutability": "view",
					"type": "function"
				},
				{
					"inputs": [
						{
							"internalType": "address",
							"name": "_govToken",
							"type": "address"
						}
					],
					"name": "setGovTokenAddress",
					"outputs": [],
					"stateMutability": "nonpayable",
					"type": "function"
				},
				{
					"inputs": [
						{
							"internalType": "uint256",
							"name": "tokenId",
							"type": "uint256"
						},
						{
							"internalType": "uint256",
							"name": "power",
							"type": "uint256"
						}
					],
					"name": "setVotingPower",
					"outputs": [],
					"stateMutability": "nonpayable",
					"type": "function"
				},
				{
					"inputs": [],
					"name": "symbol",
					"outputs": [
						{
							"internalType": "string",
							"name": "",
							"type": "string"
						}
					],
					"stateMutability": "view",
					"type": "function"
				},
				{
					"inputs": [],
					"name": "totalSupply",
					"outputs": [
						{
							"internalType": "uint256",
							"name": "",
							"type": "uint256"
						}
					],
					"stateMutability": "view",
					"type": "function"
				},
				{
					"inputs": [],
					"name": "uglyUnicornsContract",
					"outputs": [
						{
							"internalType": "contract IUglyUnicorns",
							"name": "",
							"type": "address"
						}
					],
					"stateMutability": "view",
					"type": "function"
				},
				{
					"inputs": [
						{
							"internalType": "uint256",
							"name": "tokenId",
							"type": "uint256"
						}
					],
					"name": "unwrapNFT",
					"outputs": [],
					"stateMutability": "nonpayable",
					"type": "function"
				},
				{
					"inputs": [
						{
							"internalType": "uint256",
							"name": "",
							"type": "uint256"
						}
					],
					"name": "votingPower",
					"outputs": [
						{
							"internalType": "uint256",
							"name": "",
							"type": "uint256"
						}
					],
					"stateMutability": "view",
					"type": "function"
				},
				{
					"inputs": [
						{
							"internalType": "uint256",
							"name": "tokenId",
							"type": "uint256"
						}
					],
					"name": "wrapNFT",
					"outputs": [],
					"stateMutability": "nonpayable",
					"type": "function"
				}
			],
			"devdoc": {
				"kind": "dev",
				"methods": {},
				"version": 1
			},
			"evm": {
				"assembly": "    /* \"src/UglyUnicornsNFTWrapper.sol\":401:445  string public name = \"Wrapped Ugly Unicorns\" */\n  0xc0\n    /* \"src/UglyUnicornsNFTWrapper.sol\":362:3334  contract UglyUnicornsNFTWrapper {... */\n  0x40\n    /* \"src/UglyUnicornsNFTWrapper.sol\":401:445  string public name = \"Wrapped Ugly Unicorns\" */\n  mstore\n  0x15\n    /* \"src/UglyUnicornsNFTWrapper.sol\":362:3334  contract UglyUnicornsNFTWrapper {... */\n  0x80\n    /* \"src/UglyUnicornsNFTWrapper.sol\":401:445  string public name = \"Wrapped Ugly Unicorns\" */\n  swap1\n  dup2\n  mstore\n  mstore(0xa0, 0x577261707065642055676c7920556e69636f726e730000000000000000000000)\n  0x00\n  swap1\n  tag_1\n  swap1\n  dup3\n  tag_2\n  jump\t// in\ntag_1:\n  pop\n    /* \"src/UglyUnicornsNFTWrapper.sol\":452:482  string public symbol = \"wUGLY\" */\n  0x40\n  dup1\n  mload\n  dup1\n  dup3\n  add\n  swap1\n  swap2\n  mstore\n  0x05\n  dup2\n  mstore\n  shl(0xd8, 0x7755474c59)\n  0x20\n  dup3\n  add\n  mstore\n  0x01\n  swap1\n  tag_3\n  swap1\n  dup3\n  tag_2\n  jump\t// in\ntag_3:\n  pop\n    /* \"src/UglyUnicornsNFTWrapper.sol\":640:720  IUglyUnicorns public uglyUnicornsContract = IUglyUnicorns(UGLY_UNICORNS_ADDRESS) */\n  0x02\n  dup1\n  sload\n  not(sub(shl(0xa0, 0x01), 0x01))\n  and\n    /* \"src/UglyUnicornsNFTWrapper.sol\":591:633  0xA548fa1D539cab8D78163CB064F7b22E6eF34b2F */\n  0xa548fa1d539cab8d78163cb064f7b22e6ef34b2f\n    /* \"src/UglyUnicornsNFTWrapper.sol\":640:720  IUglyUnicorns public uglyUnicornsContract = IUglyUnicorns(UGLY_UNICORNS_ADDRESS) */\n  or\n  swap1\n  sstore\n    /* \"src/UglyUnicornsNFTWrapper.sol\":1218:1222  1000 */\n  0x03e8\n    /* \"src/UglyUnicornsNFTWrapper.sol\":1182:1222  uint256 public defaultVotingPower = 1000 */\n  0x0c\n  sstore\n    /* \"src/UglyUnicornsNFTWrapper.sol\":1578:1629  constructor() {... */\n  callvalue\n  dup1\n  iszero\n  tag_4\n  jumpi\n  0x00\n  dup1\n  revert\ntag_4:\n  pop\n    /* \"src/UglyUnicornsNFTWrapper.sol\":1603:1608  owner */\n  0x09\n    /* \"src/UglyUnicornsNFTWrapper.sol\":1603:1621  owner = msg.sender */\n  dup1\n  sload\n  not(sub(shl(0xa0, 0x01), 0x01))\n  and\n    /* \"src/UglyUnicornsNFTWrapper.sol\":1611:1621  msg.sender */\n  caller\n    /* \"src/UglyUnicornsNFTWrapper.sol\":1603:1621  owner = msg.sender */\n  or\n  swap1\n  sstore\n    /* \"src/UglyUnicornsNFTWrapper.sol\":362:3334  contract UglyUnicornsNFTWrapper {... */\n  jump(tag_13)\n    /* \"#utility.yul\":14:141   */\ntag_8:\n    /* \"#utility.yul\":75:85   */\n  0x4e487b71\n    /* \"#utility.yul\":70:73   */\n  0xe0\n    /* \"#utility.yul\":66:86   */\n  shl\n    /* \"#utility.yul\":63:64   */\n  0x00\n    /* \"#utility.yul\":56:87   */\n  mstore\n    /* \"#utility.yul\":106:110   */\n  0x41\n    /* \"#utility.yul\":103:104   */\n  0x04\n    /* \"#utility.yul\":96:111   */\n  mstore\n    /* \"#utility.yul\":130:134   */\n  0x24\n    /* \"#utility.yul\":127:128   */\n  0x00\n    /* \"#utility.yul\":120:135   */\n  revert\n    /* \"#utility.yul\":146:526   */\ntag_9:\n    /* \"#utility.yul\":225:226   */\n  0x01\n    /* \"#utility.yul\":221:233   */\n  dup2\n  dup2\n  shr\n  swap1\n    /* \"#utility.yul\":268:280   */\n  dup3\n  and\n  dup1\n    /* \"#utility.yul\":289:350   */\n  tag_16\n  jumpi\n    /* \"#utility.yul\":343:347   */\n  0x7f\n    /* \"#utility.yul\":335:341   */\n  dup3\n    /* \"#utility.yul\":331:348   */\n  and\n    /* \"#utility.yul\":321:348   */\n  swap2\n  pop\n    /* \"#utility.yul\":289:350   */\ntag_16:\n    /* \"#utility.yul\":396:398   */\n  0x20\n    /* \"#utility.yul\":388:394   */\n  dup3\n    /* \"#utility.yul\":385:399   */\n  lt\n    /* \"#utility.yul\":365:383   */\n  dup2\n    /* \"#utility.yul\":362:400   */\n  sub\n    /* \"#utility.yul\":359:520   */\n  tag_17\n  jumpi\n    /* \"#utility.yul\":442:452   */\n  0x4e487b71\n    /* \"#utility.yul\":437:440   */\n  0xe0\n    /* \"#utility.yul\":433:453   */\n  shl\n    /* \"#utility.yul\":430:431   */\n  0x00\n    /* \"#utility.yul\":423:454   */\n  mstore\n    /* \"#utility.yul\":477:481   */\n  0x22\n    /* \"#utility.yul\":474:475   */\n  0x04\n    /* \"#utility.yul\":467:482   */\n  mstore\n    /* \"#utility.yul\":505:509   */\n  0x24\n    /* \"#utility.yul\":502:503   */\n  0x00\n    /* \"#utility.yul\":495:510   */\n  revert\n    /* \"#utility.yul\":359:520   */\ntag_17:\n  pop\n    /* \"#utility.yul\":146:526   */\n  swap2\n  swap1\n  pop\n  jump\t// out\n    /* \"#utility.yul\":657:1175   */\ntag_11:\n    /* \"#utility.yul\":759:761   */\n  0x1f\n    /* \"#utility.yul\":754:757   */\n  dup3\n    /* \"#utility.yul\":751:762   */\n  gt\n    /* \"#utility.yul\":748:1169   */\n  iszero\n  tag_20\n  jumpi\n    /* \"#utility.yul\":795:800   */\n  dup1\n    /* \"#utility.yul\":792:793   */\n  0x00\n    /* \"#utility.yul\":785:801   */\n  mstore\n    /* \"#utility.yul\":839:843   */\n  0x20\n    /* \"#utility.yul\":836:837   */\n  0x00\n    /* \"#utility.yul\":826:844   */\n  keccak256\n    /* \"#utility.yul\":909:911   */\n  0x1f\n    /* \"#utility.yul\":897:907   */\n  dup5\n    /* \"#utility.yul\":893:912   */\n  add\n    /* \"#utility.yul\":890:891   */\n  0x05\n    /* \"#utility.yul\":886:913   */\n  shr\n    /* \"#utility.yul\":880:884   */\n  dup2\n    /* \"#utility.yul\":876:914   */\n  add\n    /* \"#utility.yul\":945:949   */\n  0x20\n    /* \"#utility.yul\":933:943   */\n  dup6\n    /* \"#utility.yul\":930:950   */\n  lt\n    /* \"#utility.yul\":927:974   */\n  iszero\n  tag_21\n  jumpi\n  pop\n    /* \"#utility.yul\":968:972   */\n  dup1\n    /* \"#utility.yul\":927:974   */\ntag_21:\n    /* \"#utility.yul\":1023:1025   */\n  0x1f\n    /* \"#utility.yul\":1018:1021   */\n  dup5\n    /* \"#utility.yul\":1014:1026   */\n  add\n    /* \"#utility.yul\":1011:1012   */\n  0x05\n    /* \"#utility.yul\":1007:1027   */\n  shr\n    /* \"#utility.yul\":1001:1005   */\n  dup3\n    /* \"#utility.yul\":997:1028   */\n  add\n    /* \"#utility.yul\":987:1028   */\n  swap2\n  pop\n    /* \"#utility.yul\":1078:1159   */\ntag_22:\n    /* \"#utility.yul\":1096:1098   */\n  dup2\n    /* \"#utility.yul\":1089:1094   */\n  dup2\n    /* \"#utility.yul\":1086:1099   */\n  lt\n    /* \"#utility.yul\":1078:1159   */\n  iszero\n  tag_24\n  jumpi\n    /* \"#utility.yul\":1155:1156   */\n  0x00\n    /* \"#utility.yul\":1141:1157   */\n  dup2\n  sstore\n    /* \"#utility.yul\":1122:1123   */\n  0x01\n    /* \"#utility.yul\":1111:1124   */\n  add\n    /* \"#utility.yul\":1078:1159   */\n  jump(tag_22)\ntag_24:\n    /* \"#utility.yul\":1082:1085   */\n  pop\n  pop\n    /* \"#utility.yul\":748:1169   */\ntag_20:\n    /* \"#utility.yul\":657:1175   */\n  pop\n  pop\n  pop\n  jump\t// out\n    /* \"#utility.yul\":1351:2696   */\ntag_2:\n    /* \"#utility.yul\":1471:1481   */\n  dup2\n  mload\n  sub(shl(0x40, 0x01), 0x01)\n    /* \"#utility.yul\":1493:1523   */\n  dup2\n  gt\n    /* \"#utility.yul\":1490:1546   */\n  iszero\n  tag_28\n  jumpi\n    /* \"#utility.yul\":1526:1544   */\n  tag_28\n  tag_8\n  jump\t// in\ntag_28:\n    /* \"#utility.yul\":1555:1652   */\n  tag_29\n    /* \"#utility.yul\":1645:1651   */\n  dup2\n    /* \"#utility.yul\":1605:1643   */\n  tag_30\n    /* \"#utility.yul\":1637:1641   */\n  dup5\n    /* \"#utility.yul\":1631:1642   */\n  sload\n    /* \"#utility.yul\":1605:1643   */\n  tag_9\n  jump\t// in\ntag_30:\n    /* \"#utility.yul\":1599:1603   */\n  dup5\n    /* \"#utility.yul\":1555:1652   */\n  tag_11\n  jump\t// in\ntag_29:\n    /* \"#utility.yul\":1707:1711   */\n  0x20\n  dup1\n    /* \"#utility.yul\":1764:1766   */\n  0x1f\n    /* \"#utility.yul\":1753:1767   */\n  dup4\n  gt\n    /* \"#utility.yul\":1781:1782   */\n  0x01\n    /* \"#utility.yul\":1776:2439   */\n  dup2\n  eq\n  tag_32\n  jumpi\n    /* \"#utility.yul\":2483:2484   */\n  0x00\n    /* \"#utility.yul\":2500:2506   */\n  dup5\n    /* \"#utility.yul\":2497:2586   */\n  iszero\n  tag_33\n  jumpi\n  pop\n    /* \"#utility.yul\":2552:2571   */\n  dup6\n  dup4\n  add\n    /* \"#utility.yul\":2546:2572   */\n  mload\n    /* \"#utility.yul\":2497:2586   */\ntag_33:\n  not(0x00)\n    /* \"#utility.yul\":1308:1309   */\n  0x03\n    /* \"#utility.yul\":1304:1315   */\n  dup7\n  swap1\n  shl\n    /* \"#utility.yul\":1300:1324   */\n  shr\n    /* \"#utility.yul\":1296:1325   */\n  not\n    /* \"#utility.yul\":1286:1326   */\n  and\n    /* \"#utility.yul\":1332:1333   */\n  0x01\n    /* \"#utility.yul\":1328:1339   */\n  dup6\n  swap1\n  shl\n    /* \"#utility.yul\":1283:1340   */\n  or\n    /* \"#utility.yul\":2599:2680   */\n  dup6\n  sstore\n    /* \"#utility.yul\":1746:2690   */\n  jump(tag_31)\n    /* \"#utility.yul\":1776:2439   */\ntag_32:\n    /* \"#utility.yul\":604:605   */\n  0x00\n    /* \"#utility.yul\":597:611   */\n  dup6\n  dup2\n  mstore\n    /* \"#utility.yul\":641:645   */\n  0x20\n    /* \"#utility.yul\":628:646   */\n  dup2\n  keccak256\n  not(0x1f)\n    /* \"#utility.yul\":1812:1832   */\n  dup7\n  and\n  swap2\n    /* \"#utility.yul\":1930:2166   */\ntag_36:\n    /* \"#utility.yul\":1944:1951   */\n  dup3\n    /* \"#utility.yul\":1941:1942   */\n  dup2\n    /* \"#utility.yul\":1938:1952   */\n  lt\n    /* \"#utility.yul\":1930:2166   */\n  iszero\n  tag_38\n  jumpi\n    /* \"#utility.yul\":2033:2052   */\n  dup9\n  dup7\n  add\n    /* \"#utility.yul\":2027:2053   */\n  mload\n    /* \"#utility.yul\":2012:2054   */\n  dup3\n  sstore\n    /* \"#utility.yul\":2125:2152   */\n  swap5\n  dup5\n  add\n  swap5\n    /* \"#utility.yul\":2093:2094   */\n  0x01\n    /* \"#utility.yul\":2081:2095   */\n  swap1\n  swap2\n  add\n  swap1\n    /* \"#utility.yul\":1960:1979   */\n  dup5\n  add\n    /* \"#utility.yul\":1930:2166   */\n  jump(tag_36)\ntag_38:\n    /* \"#utility.yul\":1934:1937   */\n  pop\n    /* \"#utility.yul\":2194:2200   */\n  dup6\n    /* \"#utility.yul\":2185:2192   */\n  dup3\n    /* \"#utility.yul\":2182:2201   */\n  lt\n    /* \"#utility.yul\":2179:2380   */\n  iszero\n  tag_39\n  jumpi\n    /* \"#utility.yul\":2255:2274   */\n  dup8\n  dup6\n  add\n    /* \"#utility.yul\":2249:2275   */\n  mload\n  not(0x00)\n    /* \"#utility.yul\":2338:2339   */\n  0x03\n    /* \"#utility.yul\":2334:2348   */\n  dup9\n  swap1\n  shl\n    /* \"#utility.yul\":2350:2353   */\n  0xf8\n    /* \"#utility.yul\":2330:2354   */\n  and\n    /* \"#utility.yul\":2326:2363   */\n  shr\n    /* \"#utility.yul\":2322:2364   */\n  not\n    /* \"#utility.yul\":2307:2365   */\n  and\n    /* \"#utility.yul\":2292:2366   */\n  dup2\n  sstore\n    /* \"#utility.yul\":2179:2380   */\ntag_39:\n  pop\n  pop\n    /* \"#utility.yul\":2426:2427   */\n  0x01\n    /* \"#utility.yul\":2417:2423   */\n  dup5\n    /* \"#utility.yul\":2414:2415   */\n  0x01\n    /* \"#utility.yul\":2410:2424   */\n  shl\n    /* \"#utility.yul\":2406:2428   */\n  add\n    /* \"#utility.yul\":2400:2404   */\n  dup6\n    /* \"#utility.yul\":2393:2429   */\n  sstore\n    /* \"#utility.yul\":1746:2690   */\ntag_31:\n  pop\n  pop\n  pop\n  pop\n    /* \"#utility.yul\":1351:2696   */\n  pop\n  pop\n  jump\t// out\ntag_13:\n    /* \"src/UglyUnicornsNFTWrapper.sol\":362:3334  contract UglyUnicornsNFTWrapper {... */\n  dataSize(sub_0)\n  dup1\n  dataOffset(sub_0)\n  0x00\n  codecopy\n  0x00\n  return\nstop\n\nsub_0: assembly {\n        /* \"src/UglyUnicornsNFTWrapper.sol\":362:3334  contract UglyUnicornsNFTWrapper {... */\n      mstore(0x40, 0x80)\n      callvalue\n      dup1\n      iszero\n      tag_1\n      jumpi\n      0x00\n      dup1\n      revert\n    tag_1:\n      pop\n      jumpi(tag_2, lt(calldatasize, 0x04))\n      shr(0xe0, calldataload(0x00))\n      dup1\n      0x840f82ac\n      gt\n      tag_22\n      jumpi\n      dup1\n      0xbb0ef2b4\n      gt\n      tag_23\n      jumpi\n      dup1\n      0xbb0ef2b4\n      eq\n      tag_17\n      jumpi\n      dup1\n      0xbb4d4436\n      eq\n      tag_18\n      jumpi\n      dup1\n      0xd116287e\n      eq\n      tag_19\n      jumpi\n      dup1\n      0xd5cf5f6f\n      eq\n      tag_20\n      jumpi\n      dup1\n      0xe985e9c5\n      eq\n      tag_21\n      jumpi\n      0x00\n      dup1\n      revert\n    tag_23:\n      dup1\n      0x840f82ac\n      eq\n      tag_12\n      jumpi\n      dup1\n      0x8da5cb5b\n      eq\n      tag_13\n      jumpi\n      dup1\n      0x902f5e3a\n      eq\n      tag_14\n      jumpi\n      dup1\n      0x94c2237e\n      eq\n      tag_15\n      jumpi\n      dup1\n      0x95d89b41\n      eq\n      tag_16\n      jumpi\n      0x00\n      dup1\n      revert\n    tag_22:\n      dup1\n      0x5b4f3673\n      gt\n      tag_24\n      jumpi\n      dup1\n      0x5b4f3673\n      eq\n      tag_7\n      jumpi\n      dup1\n      0x6327fb4a\n      eq\n      tag_8\n      jumpi\n      dup1\n      0x6352211e\n      eq\n      tag_9\n      jumpi\n      dup1\n      0x70a08231\n      eq\n      tag_10\n      jumpi\n      dup1\n      0x72c4a927\n      eq\n      tag_11\n      jumpi\n      0x00\n      dup1\n      revert\n    tag_24:\n      dup1\n      0x06fdde03\n      eq\n      tag_3\n      jumpi\n      dup1\n      0x081812fc\n      eq\n      tag_4\n      jumpi\n      dup1\n      0x18160ddd\n      eq\n      tag_5\n      jumpi\n      dup1\n      0x4a3b00a6\n      eq\n      tag_6\n      jumpi\n    tag_2:\n      0x00\n      dup1\n      revert\n        /* \"src/UglyUnicornsNFTWrapper.sol\":401:445  string public name = \"Wrapped Ugly Unicorns\" */\n    tag_3:\n      tag_25\n      tag_26\n      jump\t// in\n    tag_25:\n      mload(0x40)\n      tag_27\n      swap2\n      swap1\n      tag_28\n      jump\t// in\n    tag_27:\n      mload(0x40)\n      dup1\n      swap2\n      sub\n      swap1\n      return\n        /* \"src/UglyUnicornsNFTWrapper.sol\":799:845  mapping(uint256 => address) public getApproved */\n    tag_4:\n      tag_29\n      tag_30\n      calldatasize\n      0x04\n      tag_31\n      jump\t// in\n    tag_30:\n      mstore(0x20, 0x04)\n      0x00\n      swap1\n      dup2\n      mstore\n      0x40\n      swap1\n      keccak256\n      sload\n      sub(shl(0xa0, 0x01), 0x01)\n      and\n      dup2\n      jump\n    tag_29:\n      mload(0x40)\n      sub(shl(0xa0, 0x01), 0x01)\n        /* \"#utility.yul\":916:948   */\n      swap1\n      swap2\n      and\n        /* \"#utility.yul\":898:949   */\n      dup2\n      mstore\n        /* \"#utility.yul\":886:888   */\n      0x20\n        /* \"#utility.yul\":871:889   */\n      add\n        /* \"src/UglyUnicornsNFTWrapper.sol\":799:845  mapping(uint256 => address) public getApproved */\n      tag_27\n        /* \"#utility.yul\":752:955   */\n      jump\n        /* \"src/UglyUnicornsNFTWrapper.sol\":1149:1175  uint256 public totalSupply */\n    tag_5:\n      tag_35\n      sload(0x0b)\n      dup2\n      jump\n    tag_35:\n      mload(0x40)\n        /* \"#utility.yul\":1106:1131   */\n      swap1\n      dup2\n      mstore\n        /* \"#utility.yul\":1094:1096   */\n      0x20\n        /* \"#utility.yul\":1079:1097   */\n      add\n        /* \"src/UglyUnicornsNFTWrapper.sol\":1149:1175  uint256 public totalSupply */\n      tag_27\n        /* \"#utility.yul\":960:1137   */\n      jump\n        /* \"src/UglyUnicornsNFTWrapper.sol\":1112:1142  address public govTokenAddress */\n    tag_6:\n      sload(0x0a)\n      tag_29\n      swap1\n      sub(shl(0xa0, 0x01), 0x01)\n      and\n      dup2\n      jump\n        /* \"src/UglyUnicornsNFTWrapper.sol\":1765:2521  function wrapNFT(uint256 tokenId) external {... */\n    tag_7:\n      tag_42\n      tag_43\n      calldatasize\n      0x04\n      tag_31\n      jump\t// in\n    tag_43:\n      tag_44\n      jump\t// in\n    tag_42:\n      stop\n        /* \"src/UglyUnicornsNFTWrapper.sol\":3209:3331  function setVotingPower(uint256 tokenId, uint256 power) external onlyOwner {... */\n    tag_8:\n      tag_42\n      tag_46\n      calldatasize\n      0x04\n      tag_47\n      jump\t// in\n    tag_46:\n      tag_48\n      jump\t// in\n        /* \"src/UglyUnicornsNFTWrapper.sol\":750:792  mapping(uint256 => address) public ownerOf */\n    tag_9:\n      tag_29\n      tag_50\n      calldatasize\n      0x04\n      tag_31\n      jump\t// in\n    tag_50:\n      mstore(0x20, 0x03)\n      0x00\n      swap1\n      dup2\n      mstore\n      0x40\n      swap1\n      keccak256\n      sload\n      sub(shl(0xa0, 0x01), 0x01)\n      and\n      dup2\n      jump\n        /* \"src/UglyUnicornsNFTWrapper.sol\":927:971  mapping(address => uint256) public balanceOf */\n    tag_10:\n      tag_35\n      tag_54\n      calldatasize\n      0x04\n      tag_55\n      jump\t// in\n    tag_54:\n      mstore(0x20, 0x06)\n      0x00\n      swap1\n      dup2\n      mstore\n      0x40\n      swap1\n      keccak256\n      sload\n      dup2\n      jump\n        /* \"src/UglyUnicornsNFTWrapper.sol\":1026:1072  mapping(uint256 => uint256) public votingPower */\n    tag_11:\n      tag_35\n      tag_59\n      calldatasize\n      0x04\n      tag_31\n      jump\t// in\n    tag_59:\n      mstore(0x20, 0x08)\n      0x00\n      swap1\n      dup2\n      mstore\n      0x40\n      swap1\n      keccak256\n      sload\n      dup2\n      jump\n        /* \"src/UglyUnicornsNFTWrapper.sol\":1641:1753  function setGovTokenAddress(address _govToken) external onlyOwner {... */\n    tag_12:\n      tag_42\n      tag_63\n      calldatasize\n      0x04\n      tag_55\n      jump\t// in\n    tag_63:\n      tag_64\n      jump\t// in\n        /* \"src/UglyUnicornsNFTWrapper.sol\":1085:1105  address public owner */\n    tag_13:\n      sload(0x09)\n      tag_29\n      swap1\n      sub(shl(0xa0, 0x01), 0x01)\n      and\n      dup2\n      jump\n        /* \"src/UglyUnicornsNFTWrapper.sol\":978:1019  mapping(uint256 => bool) public isWrapped */\n    tag_14:\n      tag_68\n      tag_69\n      calldatasize\n      0x04\n      tag_31\n      jump\t// in\n    tag_69:\n      mstore(0x20, 0x07)\n      0x00\n      swap1\n      dup2\n      mstore\n      0x40\n      swap1\n      keccak256\n      sload\n      0xff\n      and\n      dup2\n      jump\n    tag_68:\n      mload(0x40)\n        /* \"#utility.yul\":1948:1962   */\n      swap1\n      iszero\n        /* \"#utility.yul\":1941:1963   */\n      iszero\n        /* \"#utility.yul\":1923:1964   */\n      dup2\n      mstore\n        /* \"#utility.yul\":1911:1913   */\n      0x20\n        /* \"#utility.yul\":1896:1914   */\n      add\n        /* \"src/UglyUnicornsNFTWrapper.sol\":978:1019  mapping(uint256 => bool) public isWrapped */\n      tag_27\n        /* \"#utility.yul\":1783:1970   */\n      jump\n        /* \"src/UglyUnicornsNFTWrapper.sol\":1182:1222  uint256 public defaultVotingPower = 1000 */\n    tag_15:\n      tag_35\n      sload(0x0c)\n      dup2\n      jump\n        /* \"src/UglyUnicornsNFTWrapper.sol\":452:482  string public symbol = \"wUGLY\" */\n    tag_16:\n      tag_25\n      tag_77\n      jump\t// in\n        /* \"src/UglyUnicornsNFTWrapper.sol\":543:633  address public constant UGLY_UNICORNS_ADDRESS = 0xA548fa1D539cab8D78163CB064F7b22E6eF34b2F */\n    tag_17:\n      tag_29\n        /* \"src/UglyUnicornsNFTWrapper.sol\":591:633  0xA548fa1D539cab8D78163CB064F7b22E6eF34b2F */\n      0xa548fa1d539cab8d78163cb064f7b22e6ef34b2f\n        /* \"src/UglyUnicornsNFTWrapper.sol\":543:633  address public constant UGLY_UNICORNS_ADDRESS = 0xA548fa1D539cab8D78163CB064F7b22E6eF34b2F */\n      dup2\n      jump\n        /* \"src/UglyUnicornsNFTWrapper.sol\":3065:3197  function getVotingPower(address user) external view returns (uint256) {... */\n    tag_18:\n      tag_35\n      tag_83\n      calldatasize\n      0x04\n      tag_55\n      jump\t// in\n    tag_83:\n      tag_84\n      jump\t// in\n        /* \"src/UglyUnicornsNFTWrapper.sol\":640:720  IUglyUnicorns public uglyUnicornsContract = IUglyUnicorns(UGLY_UNICORNS_ADDRESS) */\n    tag_19:\n      sload(0x02)\n      tag_29\n      swap1\n      sub(shl(0xa0, 0x01), 0x01)\n      and\n      dup2\n      jump\n        /* \"src/UglyUnicornsNFTWrapper.sol\":2533:3053  function unwrapNFT(uint256 tokenId) external {... */\n    tag_20:\n      tag_42\n      tag_91\n      calldatasize\n      0x04\n      tag_31\n      jump\t// in\n    tag_91:\n      tag_92\n      jump\t// in\n        /* \"src/UglyUnicornsNFTWrapper.sol\":852:920  mapping(address => mapping(address => bool)) public isApprovedForAll */\n    tag_21:\n      tag_68\n      tag_94\n      calldatasize\n      0x04\n      tag_95\n      jump\t// in\n    tag_94:\n      0x05\n      0x20\n      swap1\n      dup2\n      mstore\n      0x00\n      swap3\n      dup4\n      mstore\n      0x40\n      dup1\n      dup5\n      keccak256\n      swap1\n      swap2\n      mstore\n      swap1\n      dup3\n      mstore\n      swap1\n      keccak256\n      sload\n      0xff\n      and\n      dup2\n      jump\n        /* \"src/UglyUnicornsNFTWrapper.sol\":401:445  string public name = \"Wrapped Ugly Unicorns\" */\n    tag_26:\n      0x00\n      dup1\n      sload\n      tag_98\n      swap1\n      tag_99\n      jump\t// in\n    tag_98:\n      dup1\n      0x1f\n      add\n      0x20\n      dup1\n      swap2\n      div\n      mul\n      0x20\n      add\n      mload(0x40)\n      swap1\n      dup2\n      add\n      0x40\n      mstore\n      dup1\n      swap3\n      swap2\n      swap1\n      dup2\n      dup2\n      mstore\n      0x20\n      add\n      dup3\n      dup1\n      sload\n      tag_100\n      swap1\n      tag_99\n      jump\t// in\n    tag_100:\n      dup1\n      iszero\n      tag_101\n      jumpi\n      dup1\n      0x1f\n      lt\n      tag_102\n      jumpi\n      0x0100\n      dup1\n      dup4\n      sload\n      div\n      mul\n      dup4\n      mstore\n      swap2\n      0x20\n      add\n      swap2\n      jump(tag_101)\n    tag_102:\n      dup3\n      add\n      swap2\n      swap1\n      0x00\n      mstore\n      keccak256(0x00, 0x20)\n      swap1\n    tag_103:\n      dup2\n      sload\n      dup2\n      mstore\n      swap1\n      0x01\n      add\n      swap1\n      0x20\n      add\n      dup1\n      dup4\n      gt\n      tag_103\n      jumpi\n      dup3\n      swap1\n      sub\n      0x1f\n      and\n      dup3\n      add\n      swap2\n    tag_101:\n      pop\n      pop\n      pop\n      pop\n      pop\n      dup2\n      jump\t// out\n        /* \"src/UglyUnicornsNFTWrapper.sol\":1765:2521  function wrapNFT(uint256 tokenId) external {... */\n    tag_44:\n        /* \"src/UglyUnicornsNFTWrapper.sol\":1827:1847  uglyUnicornsContract */\n      sload(0x02)\n        /* \"src/UglyUnicornsNFTWrapper.sol\":1827:1864  uglyUnicornsContract.ownerOf(tokenId) */\n      mload(0x40)\n      shl(0xe1, 0x31a9108f)\n      dup2\n      mstore\n      0x04\n      dup2\n      add\n        /* \"#utility.yul\":1106:1131   */\n      dup4\n      swap1\n      mstore\n        /* \"src/UglyUnicornsNFTWrapper.sol\":1868:1878  msg.sender */\n      caller\n      swap2\n      sub(shl(0xa0, 0x01), 0x01)\n        /* \"src/UglyUnicornsNFTWrapper.sol\":1827:1847  uglyUnicornsContract */\n      and\n      swap1\n        /* \"src/UglyUnicornsNFTWrapper.sol\":1827:1855  uglyUnicornsContract.ownerOf */\n      0x6352211e\n      swap1\n        /* \"#utility.yul\":1079:1097   */\n      0x24\n      add\n        /* \"src/UglyUnicornsNFTWrapper.sol\":1827:1864  uglyUnicornsContract.ownerOf(tokenId) */\n      0x20\n      mload(0x40)\n      dup1\n      dup4\n      sub\n      dup2\n      dup7\n      gas\n      staticcall\n      iszero\n      dup1\n      iszero\n      tag_107\n      jumpi\n      returndatasize\n      0x00\n      dup1\n      returndatacopy\n      revert(0x00, returndatasize)\n    tag_107:\n      pop\n      pop\n      pop\n      pop\n      mload(0x40)\n      returndatasize\n      not(0x1f)\n      0x1f\n      dup3\n      add\n      and\n      dup3\n      add\n      dup1\n      0x40\n      mstore\n      pop\n      dup2\n      add\n      swap1\n      tag_108\n      swap2\n      swap1\n      tag_109\n      jump\t// in\n    tag_108:\n      sub(shl(0xa0, 0x01), 0x01)\n        /* \"src/UglyUnicornsNFTWrapper.sol\":1827:1878  uglyUnicornsContract.ownerOf(tokenId) == msg.sender */\n      and\n      eq\n        /* \"src/UglyUnicornsNFTWrapper.sol\":1819:1908  require(uglyUnicornsContract.ownerOf(tokenId) == msg.sender, \"Not owner of original NFT\") */\n      tag_110\n      jumpi\n      mload(0x40)\n      shl(0xe5, 0x461bcd)\n      dup2\n      mstore\n        /* \"#utility.yul\":3439:3441   */\n      0x20\n        /* \"src/UglyUnicornsNFTWrapper.sol\":1819:1908  require(uglyUnicornsContract.ownerOf(tokenId) == msg.sender, \"Not owner of original NFT\") */\n      0x04\n      dup3\n      add\n        /* \"#utility.yul\":3421:3442   */\n      mstore\n        /* \"#utility.yul\":3478:3480   */\n      0x19\n        /* \"#utility.yul\":3458:3476   */\n      0x24\n      dup3\n      add\n        /* \"#utility.yul\":3451:3481   */\n      mstore\n        /* \"#utility.yul\":3517:3544   */\n      0x4e6f74206f776e6572206f66206f726967696e616c204e465400000000000000\n        /* \"#utility.yul\":3497:3515   */\n      0x44\n      dup3\n      add\n        /* \"#utility.yul\":3490:3545   */\n      mstore\n        /* \"#utility.yul\":3562:3580   */\n      0x64\n      add\n        /* \"src/UglyUnicornsNFTWrapper.sol\":1819:1908  require(uglyUnicornsContract.ownerOf(tokenId) == msg.sender, \"Not owner of original NFT\") */\n    tag_111:\n      mload(0x40)\n      dup1\n      swap2\n      sub\n      swap1\n      revert\n    tag_110:\n        /* \"src/UglyUnicornsNFTWrapper.sol\":1928:1946  isWrapped[tokenId] */\n      0x00\n      dup2\n      dup2\n      mstore\n        /* \"src/UglyUnicornsNFTWrapper.sol\":1928:1937  isWrapped */\n      0x07\n        /* \"src/UglyUnicornsNFTWrapper.sol\":1928:1946  isWrapped[tokenId] */\n      0x20\n      mstore\n      0x40\n      swap1\n      keccak256\n      sload\n      0xff\n      and\n        /* \"src/UglyUnicornsNFTWrapper.sol\":1927:1946  !isWrapped[tokenId] */\n      iszero\n        /* \"src/UglyUnicornsNFTWrapper.sol\":1919:1966  require(!isWrapped[tokenId], \"Already wrapped\") */\n      tag_113\n      jumpi\n      mload(0x40)\n      shl(0xe5, 0x461bcd)\n      dup2\n      mstore\n        /* \"#utility.yul\":3793:3795   */\n      0x20\n        /* \"src/UglyUnicornsNFTWrapper.sol\":1919:1966  require(!isWrapped[tokenId], \"Already wrapped\") */\n      0x04\n      dup3\n      add\n        /* \"#utility.yul\":3775:3796   */\n      mstore\n        /* \"#utility.yul\":3832:3834   */\n      0x0f\n        /* \"#utility.yul\":3812:3830   */\n      0x24\n      dup3\n      add\n        /* \"#utility.yul\":3805:3835   */\n      mstore\n      shl(0x8a, 0x105b1c9958591e481ddc985c1c1959)\n        /* \"#utility.yul\":3851:3869   */\n      0x44\n      dup3\n      add\n        /* \"#utility.yul\":3844:3889   */\n      mstore\n        /* \"#utility.yul\":3906:3924   */\n      0x64\n      add\n        /* \"src/UglyUnicornsNFTWrapper.sol\":1919:1966  require(!isWrapped[tokenId], \"Already wrapped\") */\n      tag_111\n        /* \"#utility.yul\":3591:3930   */\n      jump\n        /* \"src/UglyUnicornsNFTWrapper.sol\":1919:1966  require(!isWrapped[tokenId], \"Already wrapped\") */\n    tag_113:\n        /* \"src/UglyUnicornsNFTWrapper.sol\":2038:2058  uglyUnicornsContract */\n      sload(0x02)\n        /* \"src/UglyUnicornsNFTWrapper.sol\":2038:2107  uglyUnicornsContract.transferFrom(msg.sender, address(this), tokenId) */\n      mload(0x40)\n      shl(0xe0, 0x23b872dd)\n      dup2\n      mstore\n        /* \"src/UglyUnicornsNFTWrapper.sol\":2072:2082  msg.sender */\n      caller\n        /* \"src/UglyUnicornsNFTWrapper.sol\":2038:2107  uglyUnicornsContract.transferFrom(msg.sender, address(this), tokenId) */\n      0x04\n      dup3\n      add\n        /* \"#utility.yul\":4175:4209   */\n      mstore\n        /* \"src/UglyUnicornsNFTWrapper.sol\":2092:2096  this */\n      address\n        /* \"#utility.yul\":4225:4243   */\n      0x24\n      dup3\n      add\n        /* \"#utility.yul\":4218:4261   */\n      mstore\n        /* \"#utility.yul\":4277:4295   */\n      0x44\n      dup2\n      add\n        /* \"#utility.yul\":4270:4304   */\n      dup4\n      swap1\n      mstore\n      sub(shl(0xa0, 0x01), 0x01)\n        /* \"src/UglyUnicornsNFTWrapper.sol\":2038:2058  uglyUnicornsContract */\n      swap1\n      swap2\n      and\n      swap1\n        /* \"src/UglyUnicornsNFTWrapper.sol\":2038:2071  uglyUnicornsContract.transferFrom */\n      0x23b872dd\n      swap1\n        /* \"#utility.yul\":4110:4128   */\n      0x64\n      add\n        /* \"src/UglyUnicornsNFTWrapper.sol\":2038:2107  uglyUnicornsContract.transferFrom(msg.sender, address(this), tokenId) */\n      0x00\n      mload(0x40)\n      dup1\n      dup4\n      sub\n      dup2\n      0x00\n      dup8\n      dup1\n      extcodesize\n      iszero\n      dup1\n      iszero\n      tag_118\n      jumpi\n      0x00\n      dup1\n      revert\n    tag_118:\n      pop\n      gas\n      call\n      iszero\n      dup1\n      iszero\n      tag_120\n      jumpi\n      returndatasize\n      0x00\n      dup1\n      returndatacopy\n      revert(0x00, returndatasize)\n    tag_120:\n      pop\n      pop\n      pop\n        /* \"src/UglyUnicornsNFTWrapper.sol\":2157:2173  ownerOf[tokenId] */\n      0x00\n      dup3\n      dup2\n      mstore\n        /* \"src/UglyUnicornsNFTWrapper.sol\":2157:2164  ownerOf */\n      0x03\n        /* \"src/UglyUnicornsNFTWrapper.sol\":2157:2173  ownerOf[tokenId] */\n      0x20\n      swap1\n      dup2\n      mstore\n      0x40\n      dup1\n      dup4\n      keccak256\n        /* \"src/UglyUnicornsNFTWrapper.sol\":2157:2186  ownerOf[tokenId] = msg.sender */\n      dup1\n      sload\n      not(sub(shl(0xa0, 0x01), 0x01))\n      and\n        /* \"src/UglyUnicornsNFTWrapper.sol\":2176:2186  msg.sender */\n      caller\n        /* \"src/UglyUnicornsNFTWrapper.sol\":2157:2186  ownerOf[tokenId] = msg.sender */\n      swap1\n      dup2\n      or\n      swap1\n      swap2\n      sstore\n        /* \"src/UglyUnicornsNFTWrapper.sol\":2197:2218  balanceOf[msg.sender] */\n      dup4\n      mstore\n        /* \"src/UglyUnicornsNFTWrapper.sol\":2197:2206  balanceOf */\n      0x06\n        /* \"src/UglyUnicornsNFTWrapper.sol\":2197:2218  balanceOf[msg.sender] */\n      swap1\n      swap2\n      mstore\n      dup2\n      keccak256\n        /* \"src/UglyUnicornsNFTWrapper.sol\":2197:2220  balanceOf[msg.sender]++ */\n      dup1\n      sload\n      swap3\n      pop\n        /* \"src/UglyUnicornsNFTWrapper.sol\":2197:2218  balanceOf[msg.sender] */\n      swap1\n        /* \"src/UglyUnicornsNFTWrapper.sol\":2197:2220  balanceOf[msg.sender]++ */\n      tag_121\n      dup4\n      tag_122\n      jump\t// in\n    tag_121:\n      swap1\n      swap2\n      sstore\n      pop\n      pop\n        /* \"src/UglyUnicornsNFTWrapper.sol\":2231:2249  isWrapped[tokenId] */\n      0x00\n      dup2\n      dup2\n      mstore\n        /* \"src/UglyUnicornsNFTWrapper.sol\":2231:2240  isWrapped */\n      0x07\n        /* \"src/UglyUnicornsNFTWrapper.sol\":2231:2249  isWrapped[tokenId] */\n      0x20\n      mstore\n      0x40\n      dup2\n      keccak256\n        /* \"src/UglyUnicornsNFTWrapper.sol\":2231:2256  isWrapped[tokenId] = true */\n      dup1\n      sload\n      not(0xff)\n      and\n        /* \"src/UglyUnicornsNFTWrapper.sol\":2252:2256  true */\n      0x01\n        /* \"src/UglyUnicornsNFTWrapper.sol\":2231:2256  isWrapped[tokenId] = true */\n      or\n      swap1\n      sstore\n        /* \"src/UglyUnicornsNFTWrapper.sol\":2267:2278  totalSupply */\n      0x0b\n        /* \"src/UglyUnicornsNFTWrapper.sol\":2267:2280  totalSupply++ */\n      dup1\n      sload\n      swap2\n      tag_123\n      dup4\n      tag_122\n      jump\t// in\n    tag_123:\n      swap1\n      swap2\n      sstore\n      pop\n      pop\n        /* \"src/UglyUnicornsNFTWrapper.sol\":2305:2325  votingPower[tokenId] */\n      0x00\n      dup2\n      dup2\n      mstore\n        /* \"src/UglyUnicornsNFTWrapper.sol\":2305:2316  votingPower */\n      0x08\n        /* \"src/UglyUnicornsNFTWrapper.sol\":2305:2325  votingPower[tokenId] */\n      0x20\n      mstore\n      0x40\n      dup2\n      keccak256\n      sload\n        /* \"src/UglyUnicornsNFTWrapper.sol\":2305:2330  votingPower[tokenId] == 0 */\n      swap1\n      sub\n        /* \"src/UglyUnicornsNFTWrapper.sol\":2301:2400  if (votingPower[tokenId] == 0) {... */\n      tag_124\n      jumpi\n        /* \"src/UglyUnicornsNFTWrapper.sol\":2370:2388  defaultVotingPower */\n      sload(0x0c)\n        /* \"src/UglyUnicornsNFTWrapper.sol\":2347:2367  votingPower[tokenId] */\n      0x00\n      dup3\n      dup2\n      mstore\n        /* \"src/UglyUnicornsNFTWrapper.sol\":2347:2358  votingPower */\n      0x08\n        /* \"src/UglyUnicornsNFTWrapper.sol\":2347:2367  votingPower[tokenId] */\n      0x20\n      mstore\n      0x40\n      swap1\n      keccak256\n        /* \"src/UglyUnicornsNFTWrapper.sol\":2347:2388  votingPower[tokenId] = defaultVotingPower */\n      sstore\n        /* \"src/UglyUnicornsNFTWrapper.sol\":2301:2400  if (votingPower[tokenId] == 0) {... */\n    tag_124:\n        /* \"src/UglyUnicornsNFTWrapper.sol\":2425:2466  Transfer(address(0), msg.sender, tokenId) */\n      mload(0x40)\n        /* \"src/UglyUnicornsNFTWrapper.sol\":2458:2465  tokenId */\n      dup2\n      swap1\n        /* \"src/UglyUnicornsNFTWrapper.sol\":2446:2456  msg.sender */\n      caller\n      swap1\n        /* \"src/UglyUnicornsNFTWrapper.sol\":2442:2443  0 */\n      0x00\n      swap1\n        /* \"src/UglyUnicornsNFTWrapper.sol\":2425:2466  Transfer(address(0), msg.sender, tokenId) */\n      0xddf252ad1be2c89b69c2b068fc378daa952ba7f163c4a11628f55a4df523b3ef\n      swap1\n        /* \"src/UglyUnicornsNFTWrapper.sol\":2442:2443  0 */\n      dup3\n      swap1\n        /* \"src/UglyUnicornsNFTWrapper.sol\":2425:2466  Transfer(address(0), msg.sender, tokenId) */\n      log4\n        /* \"src/UglyUnicornsNFTWrapper.sol\":2482:2513  NFTWrapped(msg.sender, tokenId) */\n      mload(0x40)\n        /* \"src/UglyUnicornsNFTWrapper.sol\":2505:2512  tokenId */\n      dup2\n      swap1\n        /* \"src/UglyUnicornsNFTWrapper.sol\":2493:2503  msg.sender */\n      caller\n      swap1\n        /* \"src/UglyUnicornsNFTWrapper.sol\":2482:2513  NFTWrapped(msg.sender, tokenId) */\n      0x031f9eff20defd749964eb1cfdc6fe39d8e47effba218e17e286211e3961efb5\n      swap1\n      0x00\n      swap1\n      log3\n        /* \"src/UglyUnicornsNFTWrapper.sol\":1765:2521  function wrapNFT(uint256 tokenId) external {... */\n      pop\n      jump\t// out\n        /* \"src/UglyUnicornsNFTWrapper.sol\":3209:3331  function setVotingPower(uint256 tokenId, uint256 power) external onlyOwner {... */\n    tag_48:\n        /* \"src/UglyUnicornsNFTWrapper.sol\":1527:1532  owner */\n      and(sub(shl(0xa0, 0x01), 0x01), sload(0x09))\n        /* \"src/UglyUnicornsNFTWrapper.sol\":1513:1523  msg.sender */\n      caller\n        /* \"src/UglyUnicornsNFTWrapper.sol\":1513:1532  msg.sender == owner */\n      eq\n        /* \"src/UglyUnicornsNFTWrapper.sol\":1505:1546  require(msg.sender == owner, \"Not owner\") */\n      tag_126\n      jumpi\n      mload(0x40)\n      shl(0xe5, 0x461bcd)\n      dup2\n      mstore\n      0x04\n      add\n      tag_111\n      swap1\n      tag_128\n      jump\t// in\n    tag_126:\n        /* \"src/UglyUnicornsNFTWrapper.sol\":3295:3315  votingPower[tokenId] */\n      0x00\n      swap2\n      dup3\n      mstore\n        /* \"src/UglyUnicornsNFTWrapper.sol\":3295:3306  votingPower */\n      0x08\n        /* \"src/UglyUnicornsNFTWrapper.sol\":3295:3315  votingPower[tokenId] */\n      0x20\n      mstore\n      0x40\n      swap1\n      swap2\n      keccak256\n        /* \"src/UglyUnicornsNFTWrapper.sol\":3295:3323  votingPower[tokenId] = power */\n      sstore\n        /* \"src/UglyUnicornsNFTWrapper.sol\":3209:3331  function setVotingPower(uint256 tokenId, uint256 power) external onlyOwner {... */\n      jump\t// out\n        /* \"src/UglyUnicornsNFTWrapper.sol\":1641:1753  function setGovTokenAddress(address _govToken) external onlyOwner {... */\n    tag_64:\n        /* \"src/UglyUnicornsNFTWrapper.sol\":1527:1532  owner */\n      and(sub(shl(0xa0, 0x01), 0x01), sload(0x09))\n        /* \"src/UglyUnicornsNFTWrapper.sol\":1513:1523  msg.sender */\n      caller\n        /* \"src/UglyUnicornsNFTWrapper.sol\":1513:1532  msg.sender == owner */\n      eq\n        /* \"src/UglyUnicornsNFTWrapper.sol\":1505:1546  require(msg.sender == owner, \"Not owner\") */\n      tag_131\n      jumpi\n      mload(0x40)\n      shl(0xe5, 0x461bcd)\n      dup2\n      mstore\n      0x04\n      add\n      tag_111\n      swap1\n      tag_128\n      jump\t// in\n    tag_131:\n        /* \"src/UglyUnicornsNFTWrapper.sol\":1718:1733  govTokenAddress */\n      0x0a\n        /* \"src/UglyUnicornsNFTWrapper.sol\":1718:1745  govTokenAddress = _govToken */\n      dup1\n      sload\n      not(sub(shl(0xa0, 0x01), 0x01))\n      and\n      sub(shl(0xa0, 0x01), 0x01)\n      swap3\n      swap1\n      swap3\n      and\n      swap2\n      swap1\n      swap2\n      or\n      swap1\n      sstore\n        /* \"src/UglyUnicornsNFTWrapper.sol\":1641:1753  function setGovTokenAddress(address _govToken) external onlyOwner {... */\n      jump\t// out\n        /* \"src/UglyUnicornsNFTWrapper.sol\":452:482  string public symbol = \"wUGLY\" */\n    tag_77:\n      0x01\n      dup1\n      sload\n      tag_98\n      swap1\n      tag_99\n      jump\t// in\n        /* \"src/UglyUnicornsNFTWrapper.sol\":3065:3197  function getVotingPower(address user) external view returns (uint256) {... */\n    tag_84:\n        /* \"src/UglyUnicornsNFTWrapper.sol\":3171:3189  defaultVotingPower */\n      sload(0x0c)\n      sub(shl(0xa0, 0x01), 0x01)\n        /* \"src/UglyUnicornsNFTWrapper.sol\":3153:3168  balanceOf[user] */\n      dup3\n      and\n        /* \"src/UglyUnicornsNFTWrapper.sol\":3126:3133  uint256 */\n      0x00\n        /* \"src/UglyUnicornsNFTWrapper.sol\":3153:3168  balanceOf[user] */\n      swap1\n      dup2\n      mstore\n        /* \"src/UglyUnicornsNFTWrapper.sol\":3153:3162  balanceOf */\n      0x06\n        /* \"src/UglyUnicornsNFTWrapper.sol\":3153:3168  balanceOf[user] */\n      0x20\n      mstore\n      0x40\n      dup2\n      keccak256\n      sload\n        /* \"src/UglyUnicornsNFTWrapper.sol\":3126:3133  uint256 */\n      swap1\n      swap2\n        /* \"src/UglyUnicornsNFTWrapper.sol\":3153:3189  balanceOf[user] * defaultVotingPower */\n      tag_140\n      swap2\n      tag_141\n      jump\t// in\n    tag_140:\n        /* \"src/UglyUnicornsNFTWrapper.sol\":3146:3189  return balanceOf[user] * defaultVotingPower */\n      swap3\n        /* \"src/UglyUnicornsNFTWrapper.sol\":3065:3197  function getVotingPower(address user) external view returns (uint256) {... */\n      swap2\n      pop\n      pop\n      jump\t// out\n        /* \"src/UglyUnicornsNFTWrapper.sol\":2533:3053  function unwrapNFT(uint256 tokenId) external {... */\n    tag_92:\n        /* \"src/UglyUnicornsNFTWrapper.sol\":2597:2613  ownerOf[tokenId] */\n      0x00\n      dup2\n      dup2\n      mstore\n        /* \"src/UglyUnicornsNFTWrapper.sol\":2597:2604  ownerOf */\n      0x03\n        /* \"src/UglyUnicornsNFTWrapper.sol\":2597:2613  ownerOf[tokenId] */\n      0x20\n      mstore\n      0x40\n      swap1\n      keccak256\n      sload\n      sub(shl(0xa0, 0x01), 0x01)\n      and\n        /* \"src/UglyUnicornsNFTWrapper.sol\":2617:2627  msg.sender */\n      caller\n        /* \"src/UglyUnicornsNFTWrapper.sol\":2597:2627  ownerOf[tokenId] == msg.sender */\n      eq\n        /* \"src/UglyUnicornsNFTWrapper.sol\":2589:2641  require(ownerOf[tokenId] == msg.sender, \"Not owner\") */\n      tag_143\n      jumpi\n      mload(0x40)\n      shl(0xe5, 0x461bcd)\n      dup2\n      mstore\n      0x04\n      add\n      tag_111\n      swap1\n      tag_128\n      jump\t// in\n    tag_143:\n        /* \"src/UglyUnicornsNFTWrapper.sol\":2660:2678  isWrapped[tokenId] */\n      0x00\n      dup2\n      dup2\n      mstore\n        /* \"src/UglyUnicornsNFTWrapper.sol\":2660:2669  isWrapped */\n      0x07\n        /* \"src/UglyUnicornsNFTWrapper.sol\":2660:2678  isWrapped[tokenId] */\n      0x20\n      mstore\n      0x40\n      swap1\n      keccak256\n      sload\n      0xff\n      and\n        /* \"src/UglyUnicornsNFTWrapper.sol\":2652:2694  require(isWrapped[tokenId], \"Not wrapped\") */\n      tag_145\n      jumpi\n      mload(0x40)\n      shl(0xe5, 0x461bcd)\n      dup2\n      mstore\n        /* \"#utility.yul\":5299:5301   */\n      0x20\n        /* \"src/UglyUnicornsNFTWrapper.sol\":2652:2694  require(isWrapped[tokenId], \"Not wrapped\") */\n      0x04\n      dup3\n      add\n        /* \"#utility.yul\":5281:5302   */\n      mstore\n        /* \"#utility.yul\":5338:5340   */\n      0x0b\n        /* \"#utility.yul\":5318:5336   */\n      0x24\n      dup3\n      add\n        /* \"#utility.yul\":5311:5341   */\n      mstore\n      shl(0xaa, 0x139bdd081ddc985c1c1959)\n        /* \"#utility.yul\":5357:5375   */\n      0x44\n      dup3\n      add\n        /* \"#utility.yul\":5350:5391   */\n      mstore\n        /* \"#utility.yul\":5408:5426   */\n      0x64\n      add\n        /* \"src/UglyUnicornsNFTWrapper.sol\":2652:2694  require(isWrapped[tokenId], \"Not wrapped\") */\n      tag_111\n        /* \"#utility.yul\":5097:5432   */\n      jump\n        /* \"src/UglyUnicornsNFTWrapper.sol\":2652:2694  require(isWrapped[tokenId], \"Not wrapped\") */\n    tag_145:\n        /* \"src/UglyUnicornsNFTWrapper.sol\":2742:2743  0 */\n      0x00\n        /* \"src/UglyUnicornsNFTWrapper.sol\":2715:2731  ownerOf[tokenId] */\n      dup2\n      dup2\n      mstore\n        /* \"src/UglyUnicornsNFTWrapper.sol\":2715:2722  ownerOf */\n      0x03\n        /* \"src/UglyUnicornsNFTWrapper.sol\":2715:2731  ownerOf[tokenId] */\n      0x20\n      swap1\n      dup2\n      mstore\n      0x40\n      dup1\n      dup4\n      keccak256\n        /* \"src/UglyUnicornsNFTWrapper.sol\":2715:2744  ownerOf[tokenId] = address(0) */\n      dup1\n      sload\n      not(sub(shl(0xa0, 0x01), 0x01))\n      and\n      swap1\n      sstore\n        /* \"src/UglyUnicornsNFTWrapper.sol\":2765:2775  msg.sender */\n      caller\n        /* \"src/UglyUnicornsNFTWrapper.sol\":2755:2776  balanceOf[msg.sender] */\n      dup4\n      mstore\n        /* \"src/UglyUnicornsNFTWrapper.sol\":2755:2764  balanceOf */\n      0x06\n        /* \"src/UglyUnicornsNFTWrapper.sol\":2755:2776  balanceOf[msg.sender] */\n      swap1\n      swap2\n      mstore\n      dup2\n      keccak256\n        /* \"src/UglyUnicornsNFTWrapper.sol\":2755:2778  balanceOf[msg.sender]-- */\n      dup1\n      sload\n      swap2\n      tag_148\n      dup4\n      tag_149\n      jump\t// in\n    tag_148:\n      swap1\n      swap2\n      sstore\n      pop\n      pop\n        /* \"src/UglyUnicornsNFTWrapper.sol\":2810:2815  false */\n      0x00\n        /* \"src/UglyUnicornsNFTWrapper.sol\":2789:2807  isWrapped[tokenId] */\n      dup2\n      dup2\n      mstore\n        /* \"src/UglyUnicornsNFTWrapper.sol\":2789:2798  isWrapped */\n      0x07\n        /* \"src/UglyUnicornsNFTWrapper.sol\":2789:2807  isWrapped[tokenId] */\n      0x20\n      mstore\n      0x40\n      dup2\n      keccak256\n        /* \"src/UglyUnicornsNFTWrapper.sol\":2789:2815  isWrapped[tokenId] = false */\n      dup1\n      sload\n      not(0xff)\n      and\n      swap1\n      sstore\n        /* \"src/UglyUnicornsNFTWrapper.sol\":2826:2837  totalSupply */\n      0x0b\n        /* \"src/UglyUnicornsNFTWrapper.sol\":2826:2839  totalSupply-- */\n      dup1\n      sload\n      swap2\n      tag_150\n      dup4\n      tag_149\n      jump\t// in\n    tag_150:\n      swap1\n      swap2\n      sstore\n      pop\n      pop\n        /* \"src/UglyUnicornsNFTWrapper.sol\":2860:2880  uglyUnicornsContract */\n      sload(0x02)\n        /* \"src/UglyUnicornsNFTWrapper.sol\":2860:2929  uglyUnicornsContract.transferFrom(address(this), msg.sender, tokenId) */\n      mload(0x40)\n      shl(0xe0, 0x23b872dd)\n      dup2\n      mstore\n        /* \"src/UglyUnicornsNFTWrapper.sol\":2902:2906  this */\n      address\n        /* \"src/UglyUnicornsNFTWrapper.sol\":2860:2929  uglyUnicornsContract.transferFrom(address(this), msg.sender, tokenId) */\n      0x04\n      dup3\n      add\n        /* \"#utility.yul\":4175:4209   */\n      mstore\n        /* \"src/UglyUnicornsNFTWrapper.sol\":2909:2919  msg.sender */\n      caller\n        /* \"#utility.yul\":4225:4243   */\n      0x24\n      dup3\n      add\n        /* \"#utility.yul\":4218:4261   */\n      mstore\n        /* \"#utility.yul\":4277:4295   */\n      0x44\n      dup2\n      add\n        /* \"#utility.yul\":4270:4304   */\n      dup4\n      swap1\n      mstore\n      sub(shl(0xa0, 0x01), 0x01)\n        /* \"src/UglyUnicornsNFTWrapper.sol\":2860:2880  uglyUnicornsContract */\n      swap1\n      swap2\n      and\n      swap1\n        /* \"src/UglyUnicornsNFTWrapper.sol\":2860:2893  uglyUnicornsContract.transferFrom */\n      0x23b872dd\n      swap1\n        /* \"#utility.yul\":4110:4128   */\n      0x64\n      add\n        /* \"src/UglyUnicornsNFTWrapper.sol\":2860:2929  uglyUnicornsContract.transferFrom(address(this), msg.sender, tokenId) */\n      0x00\n      mload(0x40)\n      dup1\n      dup4\n      sub\n      dup2\n      0x00\n      dup8\n      dup1\n      extcodesize\n      iszero\n      dup1\n      iszero\n      tag_152\n      jumpi\n      0x00\n      dup1\n      revert\n    tag_152:\n      pop\n      gas\n      call\n      iszero\n      dup1\n      iszero\n      tag_154\n      jumpi\n      returndatasize\n      0x00\n      dup1\n      returndatacopy\n      revert(0x00, returndatasize)\n    tag_154:\n      pop\n      pop\n        /* \"src/UglyUnicornsNFTWrapper.sol\":2955:2996  Transfer(msg.sender, address(0), tokenId) */\n      mload(0x40)\n        /* \"src/UglyUnicornsNFTWrapper.sol\":2988:2995  tokenId */\n      dup4\n      swap3\n      pop\n        /* \"src/UglyUnicornsNFTWrapper.sol\":2984:2985  0 */\n      0x00\n      swap2\n      pop\n        /* \"src/UglyUnicornsNFTWrapper.sol\":2964:2974  msg.sender */\n      caller\n      swap1\n        /* \"src/UglyUnicornsNFTWrapper.sol\":2955:2996  Transfer(msg.sender, address(0), tokenId) */\n      0xddf252ad1be2c89b69c2b068fc378daa952ba7f163c4a11628f55a4df523b3ef\n      swap1\n        /* \"src/UglyUnicornsNFTWrapper.sol\":2984:2985  0 */\n      dup4\n      swap1\n        /* \"src/UglyUnicornsNFTWrapper.sol\":2955:2996  Transfer(msg.sender, address(0), tokenId) */\n      log4\n        /* \"src/UglyUnicornsNFTWrapper.sol\":3012:3045  NFTUnwrapped(msg.sender, tokenId) */\n      mload(0x40)\n        /* \"src/UglyUnicornsNFTWrapper.sol\":3037:3044  tokenId */\n      dup2\n      swap1\n        /* \"src/UglyUnicornsNFTWrapper.sol\":3025:3035  msg.sender */\n      caller\n      swap1\n        /* \"src/UglyUnicornsNFTWrapper.sol\":3012:3045  NFTUnwrapped(msg.sender, tokenId) */\n      0x75fe4f17e0555d0dfb8c16373aaf7cf4f3bbce760c34db803af0cb45df606c60\n      swap1\n      0x00\n      swap1\n      log3\n        /* \"src/UglyUnicornsNFTWrapper.sol\":2533:3053  function unwrapNFT(uint256 tokenId) external {... */\n      pop\n      jump\t// out\n        /* \"#utility.yul\":14:562   */\n    tag_28:\n        /* \"#utility.yul\":126:130   */\n      0x00\n        /* \"#utility.yul\":155:157   */\n      0x20\n        /* \"#utility.yul\":184:186   */\n      dup1\n        /* \"#utility.yul\":173:182   */\n      dup4\n        /* \"#utility.yul\":166:187   */\n      mstore\n        /* \"#utility.yul\":216:222   */\n      dup4\n        /* \"#utility.yul\":210:223   */\n      mload\n        /* \"#utility.yul\":259:265   */\n      dup1\n        /* \"#utility.yul\":254:256   */\n      0x20\n        /* \"#utility.yul\":243:252   */\n      dup6\n        /* \"#utility.yul\":239:257   */\n      add\n        /* \"#utility.yul\":232:266   */\n      mstore\n        /* \"#utility.yul\":284:285   */\n      0x00\n        /* \"#utility.yul\":294:434   */\n    tag_159:\n        /* \"#utility.yul\":308:314   */\n      dup2\n        /* \"#utility.yul\":305:306   */\n      dup2\n        /* \"#utility.yul\":302:315   */\n      lt\n        /* \"#utility.yul\":294:434   */\n      iszero\n      tag_161\n      jumpi\n        /* \"#utility.yul\":403:417   */\n      dup6\n      dup2\n      add\n        /* \"#utility.yul\":399:422   */\n      dup4\n      add\n        /* \"#utility.yul\":393:423   */\n      mload\n        /* \"#utility.yul\":369:386   */\n      dup6\n      dup3\n      add\n        /* \"#utility.yul\":388:390   */\n      0x40\n        /* \"#utility.yul\":365:391   */\n      add\n        /* \"#utility.yul\":358:424   */\n      mstore\n        /* \"#utility.yul\":323:333   */\n      dup3\n      add\n        /* \"#utility.yul\":294:434   */\n      jump(tag_159)\n    tag_161:\n        /* \"#utility.yul\":298:301   */\n      pop\n        /* \"#utility.yul\":483:484   */\n      0x00\n        /* \"#utility.yul\":478:480   */\n      0x40\n        /* \"#utility.yul\":469:475   */\n      dup3\n        /* \"#utility.yul\":458:467   */\n      dup7\n        /* \"#utility.yul\":454:476   */\n      add\n        /* \"#utility.yul\":450:481   */\n      add\n        /* \"#utility.yul\":443:485   */\n      mstore\n        /* \"#utility.yul\":553:555   */\n      0x40\n        /* \"#utility.yul\":546:548   */\n      0x1f\n        /* \"#utility.yul\":542:549   */\n      not\n        /* \"#utility.yul\":537:539   */\n      0x1f\n        /* \"#utility.yul\":529:535   */\n      dup4\n        /* \"#utility.yul\":525:540   */\n      add\n        /* \"#utility.yul\":521:550   */\n      and\n        /* \"#utility.yul\":510:519   */\n      dup6\n        /* \"#utility.yul\":506:551   */\n      add\n        /* \"#utility.yul\":502:556   */\n      add\n        /* \"#utility.yul\":494:556   */\n      swap3\n      pop\n      pop\n      pop\n        /* \"#utility.yul\":14:562   */\n      swap3\n      swap2\n      pop\n      pop\n      jump\t// out\n        /* \"#utility.yul\":567:747   */\n    tag_31:\n        /* \"#utility.yul\":626:632   */\n      0x00\n        /* \"#utility.yul\":679:681   */\n      0x20\n        /* \"#utility.yul\":667:676   */\n      dup3\n        /* \"#utility.yul\":658:665   */\n      dup5\n        /* \"#utility.yul\":654:677   */\n      sub\n        /* \"#utility.yul\":650:682   */\n      slt\n        /* \"#utility.yul\":647:699   */\n      iszero\n      tag_163\n      jumpi\n        /* \"#utility.yul\":695:696   */\n      0x00\n        /* \"#utility.yul\":692:693   */\n      dup1\n        /* \"#utility.yul\":685:697   */\n      revert\n        /* \"#utility.yul\":647:699   */\n    tag_163:\n      pop\n        /* \"#utility.yul\":718:741   */\n      calldataload\n      swap2\n        /* \"#utility.yul\":567:747   */\n      swap1\n      pop\n      jump\t// out\n        /* \"#utility.yul\":1142:1390   */\n    tag_47:\n        /* \"#utility.yul\":1210:1216   */\n      0x00\n        /* \"#utility.yul\":1218:1224   */\n      dup1\n        /* \"#utility.yul\":1271:1273   */\n      0x40\n        /* \"#utility.yul\":1259:1268   */\n      dup4\n        /* \"#utility.yul\":1250:1257   */\n      dup6\n        /* \"#utility.yul\":1246:1269   */\n      sub\n        /* \"#utility.yul\":1242:1274   */\n      slt\n        /* \"#utility.yul\":1239:1291   */\n      iszero\n      tag_167\n      jumpi\n        /* \"#utility.yul\":1287:1288   */\n      0x00\n        /* \"#utility.yul\":1284:1285   */\n      dup1\n        /* \"#utility.yul\":1277:1289   */\n      revert\n        /* \"#utility.yul\":1239:1291   */\n    tag_167:\n      pop\n      pop\n        /* \"#utility.yul\":1310:1333   */\n      dup1\n      calldataload\n      swap3\n        /* \"#utility.yul\":1380:1382   */\n      0x20\n        /* \"#utility.yul\":1365:1383   */\n      swap1\n      swap2\n      add\n        /* \"#utility.yul\":1352:1384   */\n      calldataload\n      swap2\n      pop\n        /* \"#utility.yul\":1142:1390   */\n      jump\t// out\n        /* \"#utility.yul\":1395:1526   */\n    tag_155:\n      sub(shl(0xa0, 0x01), 0x01)\n        /* \"#utility.yul\":1470:1501   */\n      dup2\n      and\n        /* \"#utility.yul\":1460:1502   */\n      dup2\n      eq\n        /* \"#utility.yul\":1450:1520   */\n      tag_169\n      jumpi\n        /* \"#utility.yul\":1516:1517   */\n      0x00\n        /* \"#utility.yul\":1513:1514   */\n      dup1\n        /* \"#utility.yul\":1506:1518   */\n      revert\n        /* \"#utility.yul\":1450:1520   */\n    tag_169:\n        /* \"#utility.yul\":1395:1526   */\n      pop\n      jump\t// out\n        /* \"#utility.yul\":1531:1778   */\n    tag_55:\n        /* \"#utility.yul\":1590:1596   */\n      0x00\n        /* \"#utility.yul\":1643:1645   */\n      0x20\n        /* \"#utility.yul\":1631:1640   */\n      dup3\n        /* \"#utility.yul\":1622:1629   */\n      dup5\n        /* \"#utility.yul\":1618:1641   */\n      sub\n        /* \"#utility.yul\":1614:1646   */\n      slt\n        /* \"#utility.yul\":1611:1663   */\n      iszero\n      tag_171\n      jumpi\n        /* \"#utility.yul\":1659:1660   */\n      0x00\n        /* \"#utility.yul\":1656:1657   */\n      dup1\n        /* \"#utility.yul\":1649:1661   */\n      revert\n        /* \"#utility.yul\":1611:1663   */\n    tag_171:\n        /* \"#utility.yul\":1698:1707   */\n      dup2\n        /* \"#utility.yul\":1685:1708   */\n      calldataload\n        /* \"#utility.yul\":1717:1748   */\n      tag_172\n        /* \"#utility.yul\":1742:1747   */\n      dup2\n        /* \"#utility.yul\":1717:1748   */\n      tag_155\n      jump\t// in\n    tag_172:\n        /* \"#utility.yul\":1767:1772   */\n      swap4\n        /* \"#utility.yul\":1531:1778   */\n      swap3\n      pop\n      pop\n      pop\n      jump\t// out\n        /* \"#utility.yul\":2203:2591   */\n    tag_95:\n        /* \"#utility.yul\":2271:2277   */\n      0x00\n        /* \"#utility.yul\":2279:2285   */\n      dup1\n        /* \"#utility.yul\":2332:2334   */\n      0x40\n        /* \"#utility.yul\":2320:2329   */\n      dup4\n        /* \"#utility.yul\":2311:2318   */\n      dup6\n        /* \"#utility.yul\":2307:2330   */\n      sub\n        /* \"#utility.yul\":2303:2335   */\n      slt\n        /* \"#utility.yul\":2300:2352   */\n      iszero\n      tag_176\n      jumpi\n        /* \"#utility.yul\":2348:2349   */\n      0x00\n        /* \"#utility.yul\":2345:2346   */\n      dup1\n        /* \"#utility.yul\":2338:2350   */\n      revert\n        /* \"#utility.yul\":2300:2352   */\n    tag_176:\n        /* \"#utility.yul\":2387:2396   */\n      dup3\n        /* \"#utility.yul\":2374:2397   */\n      calldataload\n        /* \"#utility.yul\":2406:2437   */\n      tag_177\n        /* \"#utility.yul\":2431:2436   */\n      dup2\n        /* \"#utility.yul\":2406:2437   */\n      tag_155\n      jump\t// in\n    tag_177:\n        /* \"#utility.yul\":2456:2461   */\n      swap2\n      pop\n        /* \"#utility.yul\":2513:2515   */\n      0x20\n        /* \"#utility.yul\":2498:2516   */\n      dup4\n      add\n        /* \"#utility.yul\":2485:2517   */\n      calldataload\n        /* \"#utility.yul\":2526:2559   */\n      tag_178\n        /* \"#utility.yul\":2485:2517   */\n      dup2\n        /* \"#utility.yul\":2526:2559   */\n      tag_155\n      jump\t// in\n    tag_178:\n        /* \"#utility.yul\":2578:2585   */\n      dup1\n        /* \"#utility.yul\":2568:2585   */\n      swap2\n      pop\n      pop\n        /* \"#utility.yul\":2203:2591   */\n      swap3\n      pop\n      swap3\n      swap1\n      pop\n      jump\t// out\n        /* \"#utility.yul\":2596:2976   */\n    tag_99:\n        /* \"#utility.yul\":2675:2676   */\n      0x01\n        /* \"#utility.yul\":2671:2683   */\n      dup2\n      dup2\n      shr\n      swap1\n        /* \"#utility.yul\":2718:2730   */\n      dup3\n      and\n      dup1\n        /* \"#utility.yul\":2739:2800   */\n      tag_180\n      jumpi\n        /* \"#utility.yul\":2793:2797   */\n      0x7f\n        /* \"#utility.yul\":2785:2791   */\n      dup3\n        /* \"#utility.yul\":2781:2798   */\n      and\n        /* \"#utility.yul\":2771:2798   */\n      swap2\n      pop\n        /* \"#utility.yul\":2739:2800   */\n    tag_180:\n        /* \"#utility.yul\":2846:2848   */\n      0x20\n        /* \"#utility.yul\":2838:2844   */\n      dup3\n        /* \"#utility.yul\":2835:2849   */\n      lt\n        /* \"#utility.yul\":2815:2833   */\n      dup2\n        /* \"#utility.yul\":2812:2850   */\n      sub\n        /* \"#utility.yul\":2809:2970   */\n      tag_181\n      jumpi\n        /* \"#utility.yul\":2892:2902   */\n      0x4e487b71\n        /* \"#utility.yul\":2887:2890   */\n      0xe0\n        /* \"#utility.yul\":2883:2903   */\n      shl\n        /* \"#utility.yul\":2880:2881   */\n      0x00\n        /* \"#utility.yul\":2873:2904   */\n      mstore\n        /* \"#utility.yul\":2927:2931   */\n      0x22\n        /* \"#utility.yul\":2924:2925   */\n      0x04\n        /* \"#utility.yul\":2917:2932   */\n      mstore\n        /* \"#utility.yul\":2955:2959   */\n      0x24\n        /* \"#utility.yul\":2952:2953   */\n      0x00\n        /* \"#utility.yul\":2945:2960   */\n      revert\n        /* \"#utility.yul\":2809:2970   */\n    tag_181:\n      pop\n        /* \"#utility.yul\":2596:2976   */\n      swap2\n      swap1\n      pop\n      jump\t// out\n        /* \"#utility.yul\":2981:3232   */\n    tag_109:\n        /* \"#utility.yul\":3051:3057   */\n      0x00\n        /* \"#utility.yul\":3104:3106   */\n      0x20\n        /* \"#utility.yul\":3092:3101   */\n      dup3\n        /* \"#utility.yul\":3083:3090   */\n      dup5\n        /* \"#utility.yul\":3079:3102   */\n      sub\n        /* \"#utility.yul\":3075:3107   */\n      slt\n        /* \"#utility.yul\":3072:3124   */\n      iszero\n      tag_183\n      jumpi\n        /* \"#utility.yul\":3120:3121   */\n      0x00\n        /* \"#utility.yul\":3117:3118   */\n      dup1\n        /* \"#utility.yul\":3110:3122   */\n      revert\n        /* \"#utility.yul\":3072:3124   */\n    tag_183:\n        /* \"#utility.yul\":3152:3161   */\n      dup2\n        /* \"#utility.yul\":3146:3162   */\n      mload\n        /* \"#utility.yul\":3171:3202   */\n      tag_172\n        /* \"#utility.yul\":3196:3201   */\n      dup2\n        /* \"#utility.yul\":3171:3202   */\n      tag_155\n      jump\t// in\n        /* \"#utility.yul\":4315:4442   */\n    tag_156:\n        /* \"#utility.yul\":4376:4386   */\n      0x4e487b71\n        /* \"#utility.yul\":4371:4374   */\n      0xe0\n        /* \"#utility.yul\":4367:4387   */\n      shl\n        /* \"#utility.yul\":4364:4365   */\n      0x00\n        /* \"#utility.yul\":4357:4388   */\n      mstore\n        /* \"#utility.yul\":4407:4411   */\n      0x11\n        /* \"#utility.yul\":4404:4405   */\n      0x04\n        /* \"#utility.yul\":4397:4412   */\n      mstore\n        /* \"#utility.yul\":4431:4435   */\n      0x24\n        /* \"#utility.yul\":4428:4429   */\n      0x00\n        /* \"#utility.yul\":4421:4436   */\n      revert\n        /* \"#utility.yul\":4447:4582   */\n    tag_122:\n        /* \"#utility.yul\":4486:4489   */\n      0x00\n        /* \"#utility.yul\":4507:4524   */\n      0x01\n      dup3\n      add\n        /* \"#utility.yul\":4504:4547   */\n      tag_191\n      jumpi\n        /* \"#utility.yul\":4527:4545   */\n      tag_191\n      tag_156\n      jump\t// in\n    tag_191:\n      pop\n        /* \"#utility.yul\":4574:4575   */\n      0x01\n        /* \"#utility.yul\":4563:4576   */\n      add\n      swap1\n        /* \"#utility.yul\":4447:4582   */\n      jump\t// out\n        /* \"#utility.yul\":4587:4919   */\n    tag_128:\n        /* \"#utility.yul\":4789:4791   */\n      0x20\n        /* \"#utility.yul\":4771:4792   */\n      dup1\n      dup3\n      mstore\n        /* \"#utility.yul\":4828:4829   */\n      0x09\n        /* \"#utility.yul\":4808:4826   */\n      swap1\n      dup3\n      add\n        /* \"#utility.yul\":4801:4830   */\n      mstore\n      shl(0xb9, 0x2737ba1037bbb732b9)\n        /* \"#utility.yul\":4861:4863   */\n      0x40\n        /* \"#utility.yul\":4846:4864   */\n      dup3\n      add\n        /* \"#utility.yul\":4839:4878   */\n      mstore\n        /* \"#utility.yul\":4910:4912   */\n      0x60\n        /* \"#utility.yul\":4895:4913   */\n      add\n      swap1\n        /* \"#utility.yul\":4587:4919   */\n      jump\t// out\n        /* \"#utility.yul\":4924:5092   */\n    tag_141:\n        /* \"#utility.yul\":4997:5006   */\n      dup1\n      dup3\n      mul\n        /* \"#utility.yul\":5028:5037   */\n      dup2\n      iszero\n        /* \"#utility.yul\":5045:5060   */\n      dup3\n      dup3\n      div\n        /* \"#utility.yul\":5039:5061   */\n      dup5\n      eq\n        /* \"#utility.yul\":5025:5062   */\n      or\n        /* \"#utility.yul\":5015:5086   */\n      tag_140\n      jumpi\n        /* \"#utility.yul\":5066:5084   */\n      tag_140\n      tag_156\n      jump\t// in\n        /* \"#utility.yul\":5437:5573   */\n    tag_149:\n        /* \"#utility.yul\":5476:5479   */\n      0x00\n        /* \"#utility.yul\":5504:5509   */\n      dup2\n        /* \"#utility.yul\":5494:5533   */\n      tag_199\n      jumpi\n        /* \"#utility.yul\":5513:5531   */\n      tag_199\n      tag_156\n      jump\t// in\n    tag_199:\n      pop\n      not(0x00)\n        /* \"#utility.yul\":5549:5567   */\n      add\n      swap1\n        /* \"#utility.yul\":5437:5573   */\n      jump\t// out\n\n    auxdata: 0xa26469706673582212209be7991d2cc06d6d0357b250f62920e1ef3f6e21191f923fd4a238387c50dc4264736f6c63430008180033\n}\n",
				"bytecode": {
					"linkReferences": {},
					"object": "60c0604052601560809081527f577261707065642055676c7920556e69636f726e73000000000000000000000060a0525f906200003d908262000159565b506040805180820190915260058152647755474c5960d81b602082015260019062000069908262000159565b50600280546001600160a01b03191673a548fa1d539cab8d78163cb064f7b22e6ef34b2f1790556103e8600c55348015620000a2575f80fd5b50600980546001600160a01b0319163317905562000225565b634e487b7160e01b5f52604160045260245ffd5b600181811c90821680620000e457607f821691505b6020821081036200010357634e487b7160e01b5f52602260045260245ffd5b50919050565b601f8211156200015457805f5260205f20601f840160051c81016020851015620001305750805b601f840160051c820191505b8181101562000151575f81556001016200013c565b50505b505050565b81516001600160401b03811115620001755762000175620000bb565b6200018d81620001868454620000cf565b8462000109565b602080601f831160018114620001c3575f8415620001ab5750858301515b5f19600386901b1c1916600185901b1785556200021d565b5f85815260208120601f198616915b82811015620001f357888601518255948401946001909101908401620001d2565b50858210156200021157878501515f19600388901b60f8161c191681555b505060018460011b0185555b505050505050565b610a6c80620002335f395ff3fe608060405234801561000f575f80fd5b506004361061011c575f3560e01c8063840f82ac116100a9578063bb0ef2b41161006e578063bb0ef2b41461029f578063bb4d4436146102ba578063d116287e146102cd578063d5cf5f6f146102e0578063e985e9c5146102f3575f80fd5b8063840f82ac146102365780638da5cb5b14610249578063902f5e3a1461025c57806394c2237e1461028e57806395d89b4114610297575f80fd5b80635b4f3673116100ef5780635b4f3673146101a85780636327fb4a146101bd5780636352211e146101d057806370a08231146101f857806372c4a92714610217575f80fd5b806306fdde0314610120578063081812fc1461013e57806318160ddd1461017e5780634a3b00a614610195575b5f80fd5b610128610320565b6040516101359190610875565b60405180910390f35b61016661014c3660046108c1565b60046020525f90815260409020546001600160a01b031681565b6040516001600160a01b039091168152602001610135565b610187600b5481565b604051908152602001610135565b600a54610166906001600160a01b031681565b6101bb6101b63660046108c1565b6103ab565b005b6101bb6101cb3660046108d8565b610612565b6101666101de3660046108c1565b60036020525f90815260409020546001600160a01b031681565b61018761020636600461090f565b60066020525f908152604090205481565b6101876102253660046108c1565b60086020525f908152604090205481565b6101bb61024436600461090f565b61064d565b600954610166906001600160a01b031681565b61027e61026a3660046108c1565b60076020525f908152604090205460ff1681565b6040519015158152602001610135565b610187600c5481565b610128610699565b61016673a548fa1d539cab8d78163cb064f7b22e6ef34b2f81565b6101876102c836600461090f565b6106a6565b600254610166906001600160a01b031681565b6101bb6102ee3660046108c1565b6106d2565b61027e610301366004610931565b600560209081525f928352604080842090915290825290205460ff1681565b5f805461032c90610968565b80601f016020809104026020016040519081016040528092919081815260200182805461035890610968565b80156103a35780601f1061037a576101008083540402835291602001916103a3565b820191905f5260205f20905b81548152906001019060200180831161038657829003601f168201915b505050505081565b6002546040516331a9108f60e11b81526004810183905233916001600160a01b031690636352211e90602401602060405180830381865afa1580156103f2573d5f803e3d5ffd5b505050506040513d601f19601f8201168201806040525081019061041691906109a0565b6001600160a01b0316146104715760405162461bcd60e51b815260206004820152601960248201527f4e6f74206f776e6572206f66206f726967696e616c204e46540000000000000060448201526064015b60405180910390fd5b5f8181526007602052604090205460ff16156104c15760405162461bcd60e51b815260206004820152600f60248201526e105b1c9958591e481ddc985c1c1959608a1b6044820152606401610468565b6002546040516323b872dd60e01b8152336004820152306024820152604481018390526001600160a01b03909116906323b872dd906064015f604051808303815f87803b158015610510575f80fd5b505af1158015610522573d5f803e3d5ffd5b5050505f82815260036020908152604080832080546001600160a01b03191633908117909155835260069091528120805492509061055f836109cf565b90915550505f818152600760205260408120805460ff19166001179055600b80549161058a836109cf565b90915550505f8181526008602052604081205490036105b557600c545f828152600860205260409020555b604051819033905f907fddf252ad1be2c89b69c2b068fc378daa952ba7f163c4a11628f55a4df523b3ef908290a4604051819033907f031f9eff20defd749964eb1cfdc6fe39d8e47effba218e17e286211e3961efb5905f90a350565b6009546001600160a01b0316331461063c5760405162461bcd60e51b8152600401610468906109e7565b5f9182526008602052604090912055565b6009546001600160a01b031633146106775760405162461bcd60e51b8152600401610468906109e7565b600a80546001600160a01b0319166001600160a01b0392909216919091179055565b6001805461032c90610968565b600c546001600160a01b0382165f9081526006602052604081205490916106cc91610a0a565b92915050565b5f818152600360205260409020546001600160a01b031633146107075760405162461bcd60e51b8152600401610468906109e7565b5f8181526007602052604090205460ff166107525760405162461bcd60e51b815260206004820152600b60248201526a139bdd081ddc985c1c195960aa1b6044820152606401610468565b5f81815260036020908152604080832080546001600160a01b03191690553383526006909152812080549161078683610a21565b90915550505f818152600760205260408120805460ff19169055600b8054916107ae83610a21565b90915550506002546040516323b872dd60e01b8152306004820152336024820152604481018390526001600160a01b03909116906323b872dd906064015f604051808303815f87803b158015610802575f80fd5b505af1158015610814573d5f803e3d5ffd5b50506040518392505f915033907fddf252ad1be2c89b69c2b068fc378daa952ba7f163c4a11628f55a4df523b3ef908390a4604051819033907f75fe4f17e0555d0dfb8c16373aaf7cf4f3bbce760c34db803af0cb45df606c60905f90a350565b5f602080835283518060208501525f5b818110156108a157858101830151858201604001528201610885565b505f604082860101526040601f19601f8301168501019250505092915050565b5f602082840312156108d1575f80fd5b5035919050565b5f80604083850312156108e9575f80fd5b50508035926020909101359150565b6001600160a01b038116811461090c575f80fd5b50565b5f6020828403121561091f575f80fd5b813561092a816108f8565b9392505050565b5f8060408385031215610942575f80fd5b823561094d816108f8565b9150602083013561095d816108f8565b809150509250929050565b600181811c9082168061097c57607f821691505b60208210810361099a57634e487b7160e01b5f52602260045260245ffd5b50919050565b5f602082840312156109b0575f80fd5b815161092a816108f8565b634e487b7160e01b5f52601160045260245ffd5b5f600182016109e0576109e06109bb565b5060010190565b6020808252600990820152682737ba1037bbb732b960b91b604082015260600190565b80820281158282048414176106cc576106cc6109bb565b5f81610a2f57610a2f6109bb565b505f19019056fea26469706673582212209be7991d2cc06d6d0357b250f62920e1ef3f6e21191f923fd4a238387c50dc4264736f6c63430008180033",
					"opcodes": "PUSH1 0xC0 PUSH1 0x40 MSTORE PUSH1 0x15 PUSH1 0x80 SWAP1 DUP2 MSTORE PUSH32 0x577261707065642055676C7920556E69636F726E730000000000000000000000 PUSH1 0xA0 MSTORE PUSH0 SWAP1 PUSH3 0x3D SWAP1 DUP3 PUSH3 0x159 JUMP JUMPDEST POP PUSH1 0x40 DUP1 MLOAD DUP1 DUP3 ADD SWAP1 SWAP2 MSTORE PUSH1 0x5 DUP2 MSTORE PUSH5 0x7755474C59 PUSH1 0xD8 SHL PUSH1 0x20 DUP3 ADD MSTORE PUSH1 0x1 SWAP1 PUSH3 0x69 SWAP1 DUP3 PUSH3 0x159 JUMP JUMPDEST POP PUSH1 0x2 DUP1 SLOAD PUSH1 0x1 PUSH1 0x1 PUSH1 0xA0 SHL SUB NOT AND PUSH20 0xA548FA1D539CAB8D78163CB064F7B22E6EF34B2F OR SWAP1 SSTORE PUSH2 0x3E8 PUSH1 0xC SSTORE CALLVALUE DUP1 ISZERO PUSH3 0xA2 JUMPI PUSH0 DUP1 REVERT JUMPDEST POP PUSH1 0x9 DUP1 SLOAD PUSH1 0x1 PUSH1 0x1 PUSH1 0xA0 SHL SUB NOT AND CALLER OR SWAP1 SSTORE PUSH3 0x225 JUMP JUMPDEST PUSH4 0x4E487B71 PUSH1 0xE0 SHL PUSH0 MSTORE PUSH1 0x41 PUSH1 0x4 MSTORE PUSH1 0x24 PUSH0 REVERT JUMPDEST PUSH1 0x1 DUP2 DUP2 SHR SWAP1 DUP3 AND DUP1 PUSH3 0xE4 JUMPI PUSH1 0x7F DUP3 AND SWAP2 POP JUMPDEST PUSH1 0x20 DUP3 LT DUP2 SUB PUSH3 0x103 JUMPI PUSH4 0x4E487B71 PUSH1 0xE0 SHL PUSH0 MSTORE PUSH1 0x22 PUSH1 0x4 MSTORE PUSH1 0x24 PUSH0 REVERT JUMPDEST POP SWAP2 SWAP1 POP JUMP JUMPDEST PUSH1 0x1F DUP3 GT ISZERO PUSH3 0x154 JUMPI DUP1 PUSH0 MSTORE PUSH1 0x20 PUSH0 KECCAK256 PUSH1 0x1F DUP5 ADD PUSH1 0x5 SHR DUP2 ADD PUSH1 0x20 DUP6 LT ISZERO PUSH3 0x130 JUMPI POP DUP1 JUMPDEST PUSH1 0x1F DUP5 ADD PUSH1 0x5 SHR DUP3 ADD SWAP2 POP JUMPDEST DUP2 DUP2 LT ISZERO PUSH3 0x151 JUMPI PUSH0 DUP2 SSTORE PUSH1 0x1 ADD PUSH3 0x13C JUMP JUMPDEST POP POP JUMPDEST POP POP POP JUMP JUMPDEST DUP2 MLOAD PUSH1 0x1 PUSH1 0x1 PUSH1 0x40 SHL SUB DUP2 GT ISZERO PUSH3 0x175 JUMPI PUSH3 0x175 PUSH3 0xBB JUMP JUMPDEST PUSH3 0x18D DUP2 PUSH3 0x186 DUP5 SLOAD PUSH3 0xCF JUMP JUMPDEST DUP5 PUSH3 0x109 JUMP JUMPDEST PUSH1 0x20 DUP1 PUSH1 0x1F DUP4 GT PUSH1 0x1 DUP2 EQ PUSH3 0x1C3 JUMPI PUSH0 DUP5 ISZERO PUSH3 0x1AB JUMPI POP DUP6 DUP4 ADD MLOAD JUMPDEST PUSH0 NOT PUSH1 0x3 DUP7 SWAP1 SHL SHR NOT AND PUSH1 0x1 DUP6 SWAP1 SHL OR DUP6 SSTORE PUSH3 0x21D JUMP JUMPDEST PUSH0 DUP6 DUP2 MSTORE PUSH1 0x20 DUP2 KECCAK256 PUSH1 0x1F NOT DUP7 AND SWAP2 JUMPDEST DUP3 DUP2 LT ISZERO PUSH3 0x1F3 JUMPI DUP9 DUP7 ADD MLOAD DUP3 SSTORE SWAP5 DUP5 ADD SWAP5 PUSH1 0x1 SWAP1 SWAP2 ADD SWAP1 DUP5 ADD PUSH3 0x1D2 JUMP JUMPDEST POP DUP6 DUP3 LT ISZERO PUSH3 0x211 JUMPI DUP8 DUP6 ADD MLOAD PUSH0 NOT PUSH1 0x3 DUP9 SWAP1 SHL PUSH1 0xF8 AND SHR NOT AND DUP2 SSTORE JUMPDEST POP POP PUSH1 0x1 DUP5 PUSH1 0x1 SHL ADD DUP6 SSTORE JUMPDEST POP POP POP POP POP POP JUMP JUMPDEST PUSH2 0xA6C DUP1 PUSH3 0x233 PUSH0 CODECOPY PUSH0 RETURN INVALID PUSH1 0x80 PUSH1 0x40 MSTORE CALLVALUE DUP1 ISZERO PUSH2 0xF JUMPI PUSH0 DUP1 REVERT JUMPDEST POP PUSH1 0x4 CALLDATASIZE LT PUSH2 0x11C JUMPI PUSH0 CALLDATALOAD PUSH1 0xE0 SHR DUP1 PUSH4 0x840F82AC GT PUSH2 0xA9 JUMPI DUP1 PUSH4 0xBB0EF2B4 GT PUSH2 0x6E JUMPI DUP1 PUSH4 0xBB0EF2B4 EQ PUSH2 0x29F JUMPI DUP1 PUSH4 0xBB4D4436 EQ PUSH2 0x2BA JUMPI DUP1 PUSH4 0xD116287E EQ PUSH2 0x2CD JUMPI DUP1 PUSH4 0xD5CF5F6F EQ PUSH2 0x2E0 JUMPI DUP1 PUSH4 0xE985E9C5 EQ PUSH2 0x2F3 JUMPI PUSH0 DUP1 REVERT JUMPDEST DUP1 PUSH4 0x840F82AC EQ PUSH2 0x236 JUMPI DUP1 PUSH4 0x8DA5CB5B EQ PUSH2 0x249 JUMPI DUP1 PUSH4 0x902F5E3A EQ PUSH2 0x25C JUMPI DUP1 PUSH4 0x94C2237E EQ PUSH2 0x28E JUMPI DUP1 PUSH4 0x95D89B41 EQ PUSH2 0x297 JUMPI PUSH0 DUP1 REVERT JUMPDEST DUP1 PUSH4 0x5B4F3673 GT PUSH2 0xEF JUMPI DUP1 PUSH4 0x5B4F3673 EQ PUSH2 0x1A8 JUMPI DUP1 PUSH4 0x6327FB4A EQ PUSH2 0x1BD JUMPI DUP1 PUSH4 0x6352211E EQ PUSH2 0x1D0 JUMPI DUP1 PUSH4 0x70A08231 EQ PUSH2 0x1F8 JUMPI DUP1 PUSH4 0x72C4A927 EQ PUSH2 0x217 JUMPI PUSH0 DUP1 REVERT JUMPDEST DUP1 PUSH4 0x6FDDE03 EQ PUSH2 0x120 JUMPI DUP1 PUSH4 0x81812FC EQ PUSH2 0x13E JUMPI DUP1 PUSH4 0x18160DDD EQ PUSH2 0x17E JUMPI DUP1 PUSH4 0x4A3B00A6 EQ PUSH2 0x195 JUMPI JUMPDEST PUSH0 DUP1 REVERT JUMPDEST PUSH2 0x128 PUSH2 0x320 JUMP JUMPDEST PUSH1 0x40 MLOAD PUSH2 0x135 SWAP2 SWAP1 PUSH2 0x875 JUMP JUMPDEST PUSH1 0x40 MLOAD DUP1 SWAP2 SUB SWAP1 RETURN JUMPDEST PUSH2 0x166 PUSH2 0x14C CALLDATASIZE PUSH1 0x4 PUSH2 0x8C1 JUMP JUMPDEST PUSH1 0x4 PUSH1 0x20 MSTORE PUSH0 SWAP1 DUP2 MSTORE PUSH1 0x40 SWAP1 KECCAK256 SLOAD PUSH1 0x1 PUSH1 0x1 PUSH1 0xA0 SHL SUB AND DUP2 JUMP JUMPDEST PUSH1 0x40 MLOAD PUSH1 0x1 PUSH1 0x1 PUSH1 0xA0 SHL SUB SWAP1 SWAP2 AND DUP2 MSTORE PUSH1 0x20 ADD PUSH2 0x135 JUMP JUMPDEST PUSH2 0x187 PUSH1 0xB SLOAD DUP2 JUMP JUMPDEST PUSH1 0x40 MLOAD SWAP1 DUP2 MSTORE PUSH1 0x20 ADD PUSH2 0x135 JUMP JUMPDEST PUSH1 0xA SLOAD PUSH2 0x166 SWAP1 PUSH1 0x1 PUSH1 0x1 PUSH1 0xA0 SHL SUB AND DUP2 JUMP JUMPDEST PUSH2 0x1BB PUSH2 0x1B6 CALLDATASIZE PUSH1 0x4 PUSH2 0x8C1 JUMP JUMPDEST PUSH2 0x3AB JUMP JUMPDEST STOP JUMPDEST PUSH2 0x1BB PUSH2 0x1CB CALLDATASIZE PUSH1 0x4 PUSH2 0x8D8 JUMP JUMPDEST PUSH2 0x612 JUMP JUMPDEST PUSH2 0x166 PUSH2 0x1DE CALLDATASIZE PUSH1 0x4 PUSH2 0x8C1 JUMP JUMPDEST PUSH1 0x3 PUSH1 0x20 MSTORE PUSH0 SWAP1 DUP2 MSTORE PUSH1 0x40 SWAP1 KECCAK256 SLOAD PUSH1 0x1 PUSH1 0x1 PUSH1 0xA0 SHL SUB AND DUP2 JUMP JUMPDEST PUSH2 0x187 PUSH2 0x206 CALLDATASIZE PUSH1 0x4 PUSH2 0x90F JUMP JUMPDEST PUSH1 0x6 PUSH1 0x20 MSTORE PUSH0 SWAP1 DUP2 MSTORE PUSH1 0x40 SWAP1 KECCAK256 SLOAD DUP2 JUMP JUMPDEST PUSH2 0x187 PUSH2 0x225 CALLDATASIZE PUSH1 0x4 PUSH2 0x8C1 JUMP JUMPDEST PUSH1 0x8 PUSH1 0x20 MSTORE PUSH0 SWAP1 DUP2 MSTORE PUSH1 0x40 SWAP1 KECCAK256 SLOAD DUP2 JUMP JUMPDEST PUSH2 0x1BB PUSH2 0x244 CALLDATASIZE PUSH1 0x4 PUSH2 0x90F JUMP JUMPDEST PUSH2 0x64D JUMP JUMPDEST PUSH1 0x9 SLOAD PUSH2 0x166 SWAP1 PUSH1 0x1 PUSH1 0x1 PUSH1 0xA0 SHL SUB AND DUP2 JUMP JUMPDEST PUSH2 0x27E PUSH2 0x26A CALLDATASIZE PUSH1 0x4 PUSH2 0x8C1 JUMP JUMPDEST PUSH1 0x7 PUSH1 0x20 MSTORE PUSH0 SWAP1 DUP2 MSTORE PUSH1 0x40 SWAP1 KECCAK256 SLOAD PUSH1 0xFF AND DUP2 JUMP JUMPDEST PUSH1 0x40 MLOAD SWAP1 ISZERO ISZERO DUP2 MSTORE PUSH1 0x20 ADD PUSH2 0x135 JUMP JUMPDEST PUSH2 0x187 PUSH1 0xC SLOAD DUP2 JUMP JUMPDEST PUSH2 0x128 PUSH2 0x699 JUMP JUMPDEST PUSH2 0x166 PUSH20 0xA548FA1D539CAB8D78163CB064F7B22E6EF34B2F DUP2 JUMP JUMPDEST PUSH2 0x187 PUSH2 0x2C8 CALLDATASIZE PUSH1 0x4 PUSH2 0x90F JUMP JUMPDEST PUSH2 0x6A6 JUMP JUMPDEST PUSH1 0x2 SLOAD PUSH2 0x166 SWAP1 PUSH1 0x1 PUSH1 0x1 PUSH1 0xA0 SHL SUB AND DUP2 JUMP JUMPDEST PUSH2 0x1BB PUSH2 0x2EE CALLDATASIZE PUSH1 0x4 PUSH2 0x8C1 JUMP JUMPDEST PUSH2 0x6D2 JUMP JUMPDEST PUSH2 0x27E PUSH2 0x301 CALLDATASIZE PUSH1 0x4 PUSH2 0x931 JUMP JUMPDEST PUSH1 0x5 PUSH1 0x20 SWAP1 DUP2 MSTORE PUSH0 SWAP3 DUP4 MSTORE PUSH1 0x40 DUP1 DUP5 KECCAK256 SWAP1 SWAP2 MSTORE SWAP1 DUP3 MSTORE SWAP1 KECCAK256 SLOAD PUSH1 0xFF AND DUP2 JUMP JUMPDEST PUSH0 DUP1 SLOAD PUSH2 0x32C SWAP1 PUSH2 0x968 JUMP JUMPDEST DUP1 PUSH1 0x1F ADD PUSH1 0x20 DUP1 SWAP2 DIV MUL PUSH1 0x20 ADD PUSH1 0x40 MLOAD SWAP1 DUP2 ADD PUSH1 0x40 MSTORE DUP1 SWAP3 SWAP2 SWAP1 DUP2 DUP2 MSTORE PUSH1 0x20 ADD DUP3 DUP1 SLOAD PUSH2 0x358 SWAP1 PUSH2 0x968 JUMP JUMPDEST DUP1 ISZERO PUSH2 0x3A3 JUMPI DUP1 PUSH1 0x1F LT PUSH2 0x37A JUMPI PUSH2 0x100 DUP1 DUP4 SLOAD DIV MUL DUP4 MSTORE SWAP2 PUSH1 0x20 ADD SWAP2 PUSH2 0x3A3 JUMP JUMPDEST DUP3 ADD SWAP2 SWAP1 PUSH0 MSTORE PUSH1 0x20 PUSH0 KECCAK256 SWAP1 JUMPDEST DUP2 SLOAD DUP2 MSTORE SWAP1 PUSH1 0x1 ADD SWAP1 PUSH1 0x20 ADD DUP1 DUP4 GT PUSH2 0x386 JUMPI DUP3 SWAP1 SUB PUSH1 0x1F AND DUP3 ADD SWAP2 JUMPDEST POP POP POP POP POP DUP2 JUMP JUMPDEST PUSH1 0x2 SLOAD PUSH1 0x40 MLOAD PUSH4 0x31A9108F PUSH1 0xE1 SHL DUP2 MSTORE PUSH1 0x4 DUP2 ADD DUP4 SWAP1 MSTORE CALLER SWAP2 PUSH1 0x1 PUSH1 0x1 PUSH1 0xA0 SHL SUB AND SWAP1 PUSH4 0x6352211E SWAP1 PUSH1 0x24 ADD PUSH1 0x20 PUSH1 0x40 MLOAD DUP1 DUP4 SUB DUP2 DUP7 GAS STATICCALL ISZERO DUP1 ISZERO PUSH2 0x3F2 JUMPI RETURNDATASIZE PUSH0 DUP1 RETURNDATACOPY RETURNDATASIZE PUSH0 REVERT JUMPDEST POP POP POP POP PUSH1 0x40 MLOAD RETURNDATASIZE PUSH1 0x1F NOT PUSH1 0x1F DUP3 ADD AND DUP3 ADD DUP1 PUSH1 0x40 MSTORE POP DUP2 ADD SWAP1 PUSH2 0x416 SWAP2 SWAP1 PUSH2 0x9A0 JUMP JUMPDEST PUSH1 0x1 PUSH1 0x1 PUSH1 0xA0 SHL SUB AND EQ PUSH2 0x471 JUMPI PUSH1 0x40 MLOAD PUSH3 0x461BCD PUSH1 0xE5 SHL DUP2 MSTORE PUSH1 0x20 PUSH1 0x4 DUP3 ADD MSTORE PUSH1 0x19 PUSH1 0x24 DUP3 ADD MSTORE PUSH32 0x4E6F74206F776E6572206F66206F726967696E616C204E465400000000000000 PUSH1 0x44 DUP3 ADD MSTORE PUSH1 0x64 ADD JUMPDEST PUSH1 0x40 MLOAD DUP1 SWAP2 SUB SWAP1 REVERT JUMPDEST PUSH0 DUP2 DUP2 MSTORE PUSH1 0x7 PUSH1 0x20 MSTORE PUSH1 0x40 SWAP1 KECCAK256 SLOAD PUSH1 0xFF AND ISZERO PUSH2 0x4C1 JUMPI PUSH1 0x40 MLOAD PUSH3 0x461BCD PUSH1 0xE5 SHL DUP2 MSTORE PUSH1 0x20 PUSH1 0x4 DUP3 ADD MSTORE PUSH1 0xF PUSH1 0x24 DUP3 ADD MSTORE PUSH15 0x105B1C9958591E481DDC985C1C1959 PUSH1 0x8A SHL PUSH1 0x44 DUP3 ADD MSTORE PUSH1 0x64 ADD PUSH2 0x468 JUMP JUMPDEST PUSH1 0x2 SLOAD PUSH1 0x40 MLOAD PUSH4 0x23B872DD PUSH1 0xE0 SHL DUP2 MSTORE CALLER PUSH1 0x4 DUP3 ADD MSTORE ADDRESS PUSH1 0x24 DUP3 ADD MSTORE PUSH1 0x44 DUP2 ADD DUP4 SWAP1 MSTORE PUSH1 0x1 PUSH1 0x1 PUSH1 0xA0 SHL SUB SWAP1 SWAP2 AND SWAP1 PUSH4 0x23B872DD SWAP1 PUSH1 0x64 ADD PUSH0 PUSH1 0x40 MLOAD DUP1 DUP4 SUB DUP2 PUSH0 DUP8 DUP1 EXTCODESIZE ISZERO DUP1 ISZERO PUSH2 0x510 JUMPI PUSH0 DUP1 REVERT JUMPDEST POP GAS CALL ISZERO DUP1 ISZERO PUSH2 0x522 JUMPI RETURNDATASIZE PUSH0 DUP1 RETURNDATACOPY RETURNDATASIZE PUSH0 REVERT JUMPDEST POP POP POP PUSH0 DUP3 DUP2 MSTORE PUSH1 0x3 PUSH1 0x20 SWAP1 DUP2 MSTORE PUSH1 0x40 DUP1 DUP4 KECCAK256 DUP1 SLOAD PUSH1 0x1 PUSH1 0x1 PUSH1 0xA0 SHL SUB NOT AND CALLER SWAP1 DUP2 OR SWAP1 SWAP2 SSTORE DUP4 MSTORE PUSH1 0x6 SWAP1 SWAP2 MSTORE DUP2 KECCAK256 DUP1 SLOAD SWAP3 POP SWAP1 PUSH2 0x55F DUP4 PUSH2 0x9CF JUMP JUMPDEST SWAP1 SWAP2 SSTORE POP POP PUSH0 DUP2 DUP2 MSTORE PUSH1 0x7 PUSH1 0x20 MSTORE PUSH1 0x40 DUP2 KECCAK256 DUP1 SLOAD PUSH1 0xFF NOT AND PUSH1 0x1 OR SWAP1 SSTORE PUSH1 0xB DUP1 SLOAD SWAP2 PUSH2 0x58A DUP4 PUSH2 0x9CF JUMP JUMPDEST SWAP1 SWAP2 SSTORE POP POP PUSH0 DUP2 DUP2 MSTORE PUSH1 0x8 PUSH1 0x20 MSTORE PUSH1 0x40 DUP2 KECCAK256 SLOAD SWAP1 SUB PUSH2 0x5B5 JUMPI PUSH1 0xC SLOAD PUSH0 DUP3 DUP2 MSTORE PUSH1 0x8 PUSH1 0x20 MSTORE PUSH1 0x40 SWAP1 KECCAK256 SSTORE JUMPDEST PUSH1 0x40 MLOAD DUP2 SWAP1 CALLER SWAP1 PUSH0 SWAP1 PUSH32 0xDDF252AD1BE2C89B69C2B068FC378DAA952BA7F163C4A11628F55A4DF523B3EF SWAP1 DUP3 SWAP1 LOG4 PUSH1 0x40 MLOAD DUP2 SWAP1 CALLER SWAP1 PUSH32 0x31F9EFF20DEFD749964EB1CFDC6FE39D8E47EFFBA218E17E286211E3961EFB5 SWAP1 PUSH0 SWAP1 LOG3 POP JUMP JUMPDEST PUSH1 0x9 SLOAD PUSH1 0x1 PUSH1 0x1 PUSH1 0xA0 SHL SUB AND CALLER EQ PUSH2 0x63C JUMPI PUSH1 0x40 MLOAD PUSH3 0x461BCD PUSH1 0xE5 SHL DUP2 MSTORE PUSH1 0x4 ADD PUSH2 0x468 SWAP1 PUSH2 0x9E7 JUMP JUMPDEST PUSH0 SWAP2 DUP3 MSTORE PUSH1 0x8 PUSH1 0x20 MSTORE PUSH1 0x40 SWAP1 SWAP2 KECCAK256 SSTORE JUMP JUMPDEST PUSH1 0x9 SLOAD PUSH1 0x1 PUSH1 0x1 PUSH1 0xA0 SHL SUB AND CALLER EQ PUSH2 0x677 JUMPI PUSH1 0x40 MLOAD PUSH3 0x461BCD PUSH1 0xE5 SHL DUP2 MSTORE PUSH1 0x4 ADD PUSH2 0x468 SWAP1 PUSH2 0x9E7 JUMP JUMPDEST PUSH1 0xA DUP1 SLOAD PUSH1 0x1 PUSH1 0x1 PUSH1 0xA0 SHL SUB NOT AND PUSH1 0x1 PUSH1 0x1 PUSH1 0xA0 SHL SUB SWAP3 SWAP1 SWAP3 AND SWAP2 SWAP1 SWAP2 OR SWAP1 SSTORE JUMP JUMPDEST PUSH1 0x1 DUP1 SLOAD PUSH2 0x32C SWAP1 PUSH2 0x968 JUMP JUMPDEST PUSH1 0xC SLOAD PUSH1 0x1 PUSH1 0x1 PUSH1 0xA0 SHL SUB DUP3 AND PUSH0 SWAP1 DUP2 MSTORE PUSH1 0x6 PUSH1 0x20 MSTORE PUSH1 0x40 DUP2 KECCAK256 SLOAD SWAP1 SWAP2 PUSH2 0x6CC SWAP2 PUSH2 0xA0A JUMP JUMPDEST SWAP3 SWAP2 POP POP JUMP JUMPDEST PUSH0 DUP2 DUP2 MSTORE PUSH1 0x3 PUSH1 0x20 MSTORE PUSH1 0x40 SWAP1 KECCAK256 SLOAD PUSH1 0x1 PUSH1 0x1 PUSH1 0xA0 SHL SUB AND CALLER EQ PUSH2 0x707 JUMPI PUSH1 0x40 MLOAD PUSH3 0x461BCD PUSH1 0xE5 SHL DUP2 MSTORE PUSH1 0x4 ADD PUSH2 0x468 SWAP1 PUSH2 0x9E7 JUMP JUMPDEST PUSH0 DUP2 DUP2 MSTORE PUSH1 0x7 PUSH1 0x20 MSTORE PUSH1 0x40 SWAP1 KECCAK256 SLOAD PUSH1 0xFF AND PUSH2 0x752 JUMPI PUSH1 0x40 MLOAD PUSH3 0x461BCD PUSH1 0xE5 SHL DUP2 MSTORE PUSH1 0x20 PUSH1 0x4 DUP3 ADD MSTORE PUSH1 0xB PUSH1 0x24 DUP3 ADD MSTORE PUSH11 0x139BDD081DDC985C1C1959 PUSH1 0xAA SHL PUSH1 0x44 DUP3 ADD MSTORE PUSH1 0x64 ADD PUSH2 0x468 JUMP JUMPDEST PUSH0 DUP2 DUP2 MSTORE PUSH1 0x3 PUSH1 0x20 SWAP1 DUP2 MSTORE PUSH1 0x40 DUP1 DUP4 KECCAK256 DUP1 SLOAD PUSH1 0x1 PUSH1 0x1 PUSH1 0xA0 SHL SUB NOT AND SWAP1 SSTORE CALLER DUP4 MSTORE PUSH1 0x6 SWAP1 SWAP2 MSTORE DUP2 KECCAK256 DUP1 SLOAD SWAP2 PUSH2 0x786 DUP4 PUSH2 0xA21 JUMP JUMPDEST SWAP1 SWAP2 SSTORE POP POP PUSH0 DUP2 DUP2 MSTORE PUSH1 0x7 PUSH1 0x20 MSTORE PUSH1 0x40 DUP2 KECCAK256 DUP1 SLOAD PUSH1 0xFF NOT AND SWAP1 SSTORE PUSH1 0xB DUP1 SLOAD SWAP2 PUSH2 0x7AE DUP4 PUSH2 0xA21 JUMP JUMPDEST SWAP1 SWAP2 SSTORE POP POP PUSH1 0x2 SLOAD PUSH1 0x40 MLOAD PUSH4 0x23B872DD PUSH1 0xE0 SHL DUP2 MSTORE ADDRESS PUSH1 0x4 DUP3 ADD MSTORE CALLER PUSH1 0x24 DUP3 ADD MSTORE PUSH1 0x44 DUP2 ADD DUP4 SWAP1 MSTORE PUSH1 0x1 PUSH1 0x1 PUSH1 0xA0 SHL SUB SWAP1 SWAP2 AND SWAP1 PUSH4 0x23B872DD SWAP1 PUSH1 0x64 ADD PUSH0 PUSH1 0x40 MLOAD DUP1 DUP4 SUB DUP2 PUSH0 DUP8 DUP1 EXTCODESIZE ISZERO DUP1 ISZERO PUSH2 0x802 JUMPI PUSH0 DUP1 REVERT JUMPDEST POP GAS CALL ISZERO DUP1 ISZERO PUSH2 0x814 JUMPI RETURNDATASIZE PUSH0 DUP1 RETURNDATACOPY RETURNDATASIZE PUSH0 REVERT JUMPDEST POP POP PUSH1 0x40 MLOAD DUP4 SWAP3 POP PUSH0 SWAP2 POP CALLER SWAP1 PUSH32 0xDDF252AD1BE2C89B69C2B068FC378DAA952BA7F163C4A11628F55A4DF523B3EF SWAP1 DUP4 SWAP1 LOG4 PUSH1 0x40 MLOAD DUP2 SWAP1 CALLER SWAP1 PUSH32 0x75FE4F17E0555D0DFB8C16373AAF7CF4F3BBCE760C34DB803AF0CB45DF606C60 SWAP1 PUSH0 SWAP1 LOG3 POP JUMP JUMPDEST PUSH0 PUSH1 0x20 DUP1 DUP4 MSTORE DUP4 MLOAD DUP1 PUSH1 0x20 DUP6 ADD MSTORE PUSH0 JUMPDEST DUP2 DUP2 LT ISZERO PUSH2 0x8A1 JUMPI DUP6 DUP2 ADD DUP4 ADD MLOAD DUP6 DUP3 ADD PUSH1 0x40 ADD MSTORE DUP3 ADD PUSH2 0x885 JUMP JUMPDEST POP PUSH0 PUSH1 0x40 DUP3 DUP7 ADD ADD MSTORE PUSH1 0x40 PUSH1 0x1F NOT PUSH1 0x1F DUP4 ADD AND DUP6 ADD ADD SWAP3 POP POP POP SWAP3 SWAP2 POP POP JUMP JUMPDEST PUSH0 PUSH1 0x20 DUP3 DUP5 SUB SLT ISZERO PUSH2 0x8D1 JUMPI PUSH0 DUP1 REVERT JUMPDEST POP CALLDATALOAD SWAP2 SWAP1 POP JUMP JUMPDEST PUSH0 DUP1 PUSH1 0x40 DUP4 DUP6 SUB SLT ISZERO PUSH2 0x8E9 JUMPI PUSH0 DUP1 REVERT JUMPDEST POP POP DUP1 CALLDATALOAD SWAP3 PUSH1 0x20 SWAP1 SWAP2 ADD CALLDATALOAD SWAP2 POP JUMP JUMPDEST PUSH1 0x1 PUSH1 0x1 PUSH1 0xA0 SHL SUB DUP2 AND DUP2 EQ PUSH2 0x90C JUMPI PUSH0 DUP1 REVERT JUMPDEST POP JUMP JUMPDEST PUSH0 PUSH1 0x20 DUP3 DUP5 SUB SLT ISZERO PUSH2 0x91F JUMPI PUSH0 DUP1 REVERT JUMPDEST DUP2 CALLDATALOAD PUSH2 0x92A DUP2 PUSH2 0x8F8 JUMP JUMPDEST SWAP4 SWAP3 POP POP POP JUMP JUMPDEST PUSH0 DUP1 PUSH1 0x40 DUP4 DUP6 SUB SLT ISZERO PUSH2 0x942 JUMPI PUSH0 DUP1 REVERT JUMPDEST DUP3 CALLDATALOAD PUSH2 0x94D DUP2 PUSH2 0x8F8 JUMP JUMPDEST SWAP2 POP PUSH1 0x20 DUP4 ADD CALLDATALOAD PUSH2 0x95D DUP2 PUSH2 0x8F8 JUMP JUMPDEST DUP1 SWAP2 POP POP SWAP3 POP SWAP3 SWAP1 POP JUMP JUMPDEST PUSH1 0x1 DUP2 DUP2 SHR SWAP1 DUP3 AND DUP1 PUSH2 0x97C JUMPI PUSH1 0x7F DUP3 AND SWAP2 POP JUMPDEST PUSH1 0x20 DUP3 LT DUP2 SUB PUSH2 0x99A JUMPI PUSH4 0x4E487B71 PUSH1 0xE0 SHL PUSH0 MSTORE PUSH1 0x22 PUSH1 0x4 MSTORE PUSH1 0x24 PUSH0 REVERT JUMPDEST POP SWAP2 SWAP1 POP JUMP JUMPDEST PUSH0 PUSH1 0x20 DUP3 DUP5 SUB SLT ISZERO PUSH2 0x9B0 JUMPI PUSH0 DUP1 REVERT JUMPDEST DUP2 MLOAD PUSH2 0x92A DUP2 PUSH2 0x8F8 JUMP JUMPDEST PUSH4 0x4E487B71 PUSH1 0xE0 SHL PUSH0 MSTORE PUSH1 0x11 PUSH1 0x4 MSTORE PUSH1 0x24 PUSH0 REVERT JUMPDEST PUSH0 PUSH1 0x1 DUP3 ADD PUSH2 0x9E0 JUMPI PUSH2 0x9E0 PUSH2 0x9BB JUMP JUMPDEST POP PUSH1 0x1 ADD SWAP1 JUMP JUMPDEST PUSH1 0x20 DUP1 DUP3 MSTORE PUSH1 0x9 SWAP1 DUP3 ADD MSTORE PUSH9 0x2737BA1037BBB732B9 PUSH1 0xB9 SHL PUSH1 0x40 DUP3 ADD MSTORE PUSH1 0x60 ADD SWAP1 JUMP JUMPDEST DUP1 DUP3 MUL DUP2 ISZERO DUP3 DUP3 DIV DUP5 EQ OR PUSH2 0x6CC JUMPI PUSH2 0x6CC PUSH2 0x9BB JUMP JUMPDEST PUSH0 DUP2 PUSH2 0xA2F JUMPI PUSH2 0xA2F PUSH2 0x9BB JUMP JUMPDEST POP PUSH0 NOT ADD SWAP1 JUMP INVALID LOG2 PUSH5 0x6970667358 0x22 SLT KECCAK256 SWAP12 0xE7 SWAP10 SAR 0x2C 0xC0 PUSH14 0x6D0357B250F62920E1EF3F6E2119 0x1F SWAP3 EXTCODEHASH 0xD4 LOG2 CODESIZE CODESIZE PUSH29 0x50DC4264736F6C63430008180033000000000000000000000000000000 "
				},
				"gasEstimates": {
					"creation": {
						"codeDepositCost": "533600",
						"executionCost": "infinite",
						"totalCost": "infinite"
					},
					"external": {
						"UGLY_UNICORNS_ADDRESS()": "237",
						"balanceOf(address)": "2599",
						"defaultVotingPower()": "2383",
						"getApproved(uint256)": "2520",
						"getVotingPower(address)": "infinite",
						"govTokenAddress()": "2426",
						"isApprovedForAll(address,address)": "infinite",
						"isWrapped(uint256)": "2514",
						"name()": "infinite",
						"owner()": "2381",
						"ownerOf(uint256)": "2541",
						"setGovTokenAddress(address)": "26726",
						"setVotingPower(uint256,uint256)": "24598",
						"symbol()": "infinite",
						"totalSupply()": "2362",
						"uglyUnicornsContract()": "2402",
						"unwrapNFT(uint256)": "infinite",
						"votingPower(uint256)": "2546",
						"wrapNFT(uint256)": "infinite"
					}
				},
				"methodIdentifiers": {
					"UGLY_UNICORNS_ADDRESS()": "bb0ef2b4",
					"balanceOf(address)": "70a08231",
					"defaultVotingPower()": "94c2237e",
					"getApproved(uint256)": "081812fc",
					"getVotingPower(address)": "bb4d4436",
					"govTokenAddress()": "4a3b00a6",
					"isApprovedForAll(address,address)": "e985e9c5",
					"isWrapped(uint256)": "902f5e3a",
					"name()": "06fdde03",
					"owner()": "8da5cb5b",
					"ownerOf(uint256)": "6352211e",
					"setGovTokenAddress(address)": "840f82ac",
					"setVotingPower(uint256,uint256)": "6327fb4a",
					"symbol()": "95d89b41",
					"totalSupply()": "18160ddd",
					"uglyUnicornsContract()": "d116287e",
					"unwrapNFT(uint256)": "d5cf5f6f",
					"votingPower(uint256)": "72c4a927",
					"wrapNFT(uint256)": "5b4f3673"
				}
			},
			"storageLayout": {
				"storage": [
					{
						"astId": 28,
						"contract": "src/UglyUnicornsNFTWrapper.sol:UglyUnicornsNFTWrapper",
						"label": "name",
						"offset": 0,
						"slot": "0",
						"type": "t_string_storage"
					},
					{
						"astId": 31,
						"contract": "src/UglyUnicornsNFTWrapper.sol:UglyUnicornsNFTWrapper",
						"label": "symbol",
						"offset": 0,
						"slot": "1",
						"type": "t_string_storage"
					},
					{
						"astId": 40,
						"contract": "src/UglyUnicornsNFTWrapper.sol:UglyUnicornsNFTWrapper",
						"label": "uglyUnicornsContract",
						"offset": 0,
						"slot": "2",
						"type": "t_contract(IUglyUnicorns)25"
					},
					{
						"astId": 44,
						"contract": "src/UglyUnicornsNFTWrapper.sol:UglyUnicornsNFTWrapper",
						"label": "ownerOf",
						"offset": 0,
						"slot": "3",
						"type": "t_mapping(t_uint256,t_address)"
					},
					{
						"astId": 48,
						"contract": "src/UglyUnicornsNFTWrapper.sol:UglyUnicornsNFTWrapper",
						"label": "getApproved",
						"offset": 0,
						"slot": "4",
						"type": "t_mapping(t_uint256,t_address)"
					},
					{
						"astId": 54,
						"contract": "src/UglyUnicornsNFTWrapper.sol:UglyUnicornsNFTWrapper",
						"label": "isApprovedForAll",
						"offset": 0,
						"slot": "5",
						"type": "t_mapping(t_address,t_mapping(t_address,t_bool))"
					},
					{
						"astId": 58,
						"contract": "src/UglyUnicornsNFTWrapper.sol:UglyUnicornsNFTWrapper",
						"label": "balanceOf",
						"offset": 0,
						"slot": "6",
						"type": "t_mapping(t_address,t_uint256)"
					},
					{
						"astId": 62,
						"contract": "src/UglyUnicornsNFTWrapper.sol:UglyUnicornsNFTWrapper",
						"label": "isWrapped",
						"offset": 0,
						"slot": "7",
						"type": "t_mapping(t_uint256,t_bool)"
					},
					{
						"astId": 66,
						"contract": "src/UglyUnicornsNFTWrapper.sol:UglyUnicornsNFTWrapper",
						"label": "votingPower",
						"offset": 0,
						"slot": "8",
						"type": "t_mapping(t_uint256,t_uint256)"
					},
					{
						"astId": 68,
						"contract": "src/UglyUnicornsNFTWrapper.sol:UglyUnicornsNFTWrapper",
						"label": "owner",
						"offset": 0,
						"slot": "9",
						"type": "t_address"
					},
					{
						"astId": 70,
						"contract": "src/UglyUnicornsNFTWrapper.sol:UglyUnicornsNFTWrapper",
						"label": "govTokenAddress",
						"offset": 0,
						"slot": "10",
						"type": "t_address"
					},
					{
						"astId": 72,
						"contract": "src/UglyUnicornsNFTWrapper.sol:UglyUnicornsNFTWrapper",
						"label": "totalSupply",
						"offset": 0,
						"slot": "11",
						"type": "t_uint256"
					},
					{
						"astId": 75,
						"contract": "src/UglyUnicornsNFTWrapper.sol:UglyUnicornsNFTWrapper",
						"label": "defaultVotingPower",
						"offset": 0,
						"slot": "12",
						"type": "t_uint256"
					}
				],
				"types": {
					"t_address": {
						"encoding": "inplace",
						"label": "address",
						"numberOfBytes": "20"
					},
					"t_bool": {
						"encoding": "inplace",
						"label": "bool",
						"numberOfBytes": "1"
					},
					"t_contract(IUglyUnicorns)25": {
						"encoding": "inplace",
						"label": "contract IUglyUnicorns",
						"numberOfBytes": "20"
					},
					"t_mapping(t_address,t_bool)": {
						"encoding": "mapping",
						"key": "t_address",
						"label": "mapping(address => bool)",
						"numberOfBytes": "32",
						"value": "t_bool"
					},
					"t_mapping(t_address,t_mapping(t_address,t_bool))": {
						"encoding": "mapping",
						"key": "t_address",
						"label": "mapping(address => mapping(address => bool))",
						"numberOfBytes": "32",
						"value": "t_mapping(t_address,t_bool)"
					},
					"t_mapping(t_address,t_uint256)": {
						"encoding": "mapping",
						"key": "t_address",
						"label": "mapping(address => uint256)",
						"numberOfBytes": "32",
						"value": "t_uint256"
					},
					"t_mapping(t_uint256,t_address)": {
						"encoding": "mapping",
						"key": "t_uint256",
						"label": "mapping(uint256 => address)",
						"numberOfBytes": "32",
						"value": "t_address"
					},
					"t_mapping(t_uint256,t_bool)": {
						"encoding": "mapping",
						"key": "t_uint256",
						"label": "mapping(uint256 => bool)",
						"numberOfBytes": "32",
						"value": "t_bool"
					},
					"t_mapping(t_uint256,t_uint256)": {
						"encoding": "mapping",
						"key": "t_uint256",
						"label": "mapping(uint256 => uint256)",
						"numberOfBytes": "32",
						"value": "t_uint256"
					},
					"t_string_storage": {
						"encoding": "bytes",
						"label": "string",
						"numberOfBytes": "32"
					},
					"t_uint256": {
						"encoding": "inplace",
						"label": "uint256",
						"numberOfBytes": "32"
					}
				}
			},
			"userdoc": {
				"kind": "user",
				"methods": {},
				"version": 1
			}
		}
	}
}