{
	"src/UglyUnicornsGovToken.sol": {
		"SimpleGovToken": {
			"abi": [
				{
					"inputs": [],
					"stateMutability": "nonpayable",
					"type": "constructor"
				},
				{
					"anonymous": false,
					"inputs": [
						{
							"indexed": true,
							"internalType": "address",
							"name": "owner",
							"type": "address"
						},
						{
							"indexed": true,
							"internalType": "address",
							"name": "spender",
							"type": "address"
						},
						{
							"indexed": false,
							"internalType": "uint256",
							"name": "value",
							"type": "uint256"
						}
					],
					"name": "Approval",
					"type": "event"
				},
				{
					"anonymous": false,
					"inputs": [
						{
							"indexed": true,
							"internalType": "address",
							"name": "from",
							"type": "address"
						},
						{
							"indexed": true,
							"internalType": "address",
							"name": "to",
							"type": "address"
						},
						{
							"indexed": false,
							"internalType": "uint256",
							"name": "value",
							"type": "uint256"
						}
					],
					"name": "Transfer",
					"type": "event"
				},
				{
					"inputs": [
						{
							"internalType": "address",
							"name": "minter",
							"type": "address"
						}
					],
					"name": "addMinter",
					"outputs": [],
					"stateMutability": "nonpayable",
					"type": "function"
				},
				{
					"inputs": [
						{
							"internalType": "address",
							"name": "",
							"type": "address"
						},
						{
							"internalType": "address",
							"name": "",
							"type": "address"
						}
					],
					"name": "allowance",
					"outputs": [
						{
							"internalType": "uint256",
							"name": "",
							"type": "uint256"
						}
					],
					"stateMutability": "view",
					"type": "function"
				},
				{
					"inputs": [
						{
							"internalType": "address",
							"name": "",
							"type": "address"
						}
					],
					"name": "balanceOf",
					"outputs": [
						{
							"internalType": "uint256",
							"name": "",
							"type": "uint256"
						}
					],
					"stateMutability": "view",
					"type": "function"
				},
				{
					"inputs": [
						{
							"internalType": "address",
							"name": "from",
							"type": "address"
						},
						{
							"internalType": "uint256",
							"name": "amount",
							"type": "uint256"
						}
					],
					"name": "burn",
					"outputs": [],
					"stateMutability": "nonpayable",
					"type": "function"
				},
				{
					"inputs": [],
					"name": "decimals",
					"outputs": [
						{
							"internalType": "uint8",
							"name": "",
							"type": "uint8"
						}
					],
					"stateMutability": "view",
					"type": "function"
				},
				{
					"inputs": [
						{
							"internalType": "address",
							"name": "to",
							"type": "address"
						},
						{
							"internalType": "uint256",
							"name": "amount",
							"type": "uint256"
						}
					],
					"name": "mint",
					"outputs": [],
					"stateMutability": "nonpayable",
					"type": "function"
				},
				{
					"inputs": [
						{
							"internalType": "address",
							"name": "",
							"type": "address"
						}
					],
					"name": "minters",
					"outputs": [
						{
							"internalType": "bool",
							"name": "",
							"type": "bool"
						}
					],
					"stateMutability": "view",
					"type": "function"
				},
				{
					"inputs": [],
					"name": "name",
					"outputs": [
						{
							"internalType": "string",
							"name": "",
							"type": "string"
						}
					],
					"stateMutability": "view",
					"type": "function"
				},
				{
					"inputs": [],
					"name": "owner",
					"outputs": [
						{
							"internalType": "address",
							"name": "",
							"type": "address"
						}
					],
					"stateMutability": "view",
					"type": "function"
				},
				{
					"inputs": [],
					"name": "symbol",
					"outputs": [
						{
							"internalType": "string",
							"name": "",
							"type": "string"
						}
					],
					"stateMutability": "view",
					"type": "function"
				},
				{
					"inputs": [],
					"name": "totalSupply",
					"outputs": [
						{
							"internalType": "uint256",
							"name": "",
							"type": "uint256"
						}
					],
					"stateMutability": "view",
					"type": "function"
				},
				{
					"inputs": [
						{
							"internalType": "address",
							"name": "to",
							"type": "address"
						},
						{
							"internalType": "uint256",
							"name": "amount",
							"type": "uint256"
						}
					],
					"name": "transfer",
					"outputs": [
						{
							"internalType": "bool",
							"name": "",
							"type": "bool"
						}
					],
					"stateMutability": "nonpayable",
					"type": "function"
				}
			],
			"devdoc": {
				"kind": "dev",
				"methods": {},
				"version": 1
			},
			"evm": {
				"assembly": "    /* \"src/UglyUnicornsGovToken.sol\":92:138  string public name = \"Ugly Unicorns DAO Token\" */\n  0xc0\n    /* \"src/UglyUnicornsGovToken.sol\":61:1833  contract SimpleGovToken {... */\n  0x40\n    /* \"src/UglyUnicornsGovToken.sol\":92:138  string public name = \"Ugly Unicorns DAO Token\" */\n  mstore\n  0x17\n    /* \"src/UglyUnicornsGovToken.sol\":61:1833  contract SimpleGovToken {... */\n  0x80\n    /* \"src/UglyUnicornsGovToken.sol\":92:138  string public name = \"Ugly Unicorns DAO Token\" */\n  swap1\n  dup2\n  mstore\n  mstore(0xa0, 0x55676c7920556e69636f726e732044414f20546f6b656e000000000000000000)\n  0x00\n  swap1\n  tag_1\n  swap1\n  dup3\n  tag_2\n  jump\t// in\ntag_1:\n  pop\n    /* \"src/UglyUnicornsGovToken.sol\":145:176  string public symbol = \"UGLYDO\" */\n  0x40\n  dup1\n  mload\n  dup1\n  dup3\n  add\n  swap1\n  swap2\n  mstore\n  0x06\n  dup2\n  mstore\n  shl(0xd0, 0x55474c59444f)\n  0x20\n  dup3\n  add\n  mstore\n  0x01\n  swap1\n  tag_3\n  swap1\n  dup3\n  tag_2\n  jump\t// in\ntag_3:\n  pop\n    /* \"src/UglyUnicornsGovToken.sol\":183:209  uint8 public decimals = 18 */\n  0x02\n  dup1\n  sload\n  not(0xff)\n  and\n    /* \"src/UglyUnicornsGovToken.sol\":207:209  18 */\n  0x12\n    /* \"src/UglyUnicornsGovToken.sol\":183:209  uint8 public decimals = 18 */\n  or\n  swap1\n  sstore\n    /* \"src/UglyUnicornsGovToken.sol\":865:953  constructor() {... */\n  callvalue\n  dup1\n  iszero\n  tag_4\n  jumpi\n  0x00\n  dup1\n  revert\ntag_4:\n  pop\n    /* \"src/UglyUnicornsGovToken.sol\":890:895  owner */\n  0x07\n    /* \"src/UglyUnicornsGovToken.sol\":890:908  owner = msg.sender */\n  dup1\n  sload\n  not(sub(shl(0xa0, 0x01), 0x01))\n  and\n    /* \"src/UglyUnicornsGovToken.sol\":898:908  msg.sender */\n  caller\n    /* \"src/UglyUnicornsGovToken.sol\":890:908  owner = msg.sender */\n  swap1\n  dup2\n  or\n  swap1\n  swap2\n  sstore\n    /* \"src/UglyUnicornsGovToken.sol\":890:895  owner */\n  0x00\n    /* \"src/UglyUnicornsGovToken.sol\":919:938  minters[msg.sender] */\n  swap1\n  dup2\n  mstore\n    /* \"src/UglyUnicornsGovToken.sol\":919:926  minters */\n  0x06\n    /* \"src/UglyUnicornsGovToken.sol\":919:938  minters[msg.sender] */\n  0x20\n  mstore\n  0x40\n  swap1\n  keccak256\n    /* \"src/UglyUnicornsGovToken.sol\":919:945  minters[msg.sender] = true */\n  dup1\n  sload\n  not(0xff)\n  and\n    /* \"src/UglyUnicornsGovToken.sol\":890:908  owner = msg.sender */\n  0x01\n    /* \"src/UglyUnicornsGovToken.sol\":919:945  minters[msg.sender] = true */\n  or\n  swap1\n  sstore\n    /* \"src/UglyUnicornsGovToken.sol\":61:1833  contract SimpleGovToken {... */\n  jump(tag_13)\n    /* \"#utility.yul\":14:141   */\ntag_8:\n    /* \"#utility.yul\":75:85   */\n  0x4e487b71\n    /* \"#utility.yul\":70:73   */\n  0xe0\n    /* \"#utility.yul\":66:86   */\n  shl\n    /* \"#utility.yul\":63:64   */\n  0x00\n    /* \"#utility.yul\":56:87   */\n  mstore\n    /* \"#utility.yul\":106:110   */\n  0x41\n    /* \"#utility.yul\":103:104   */\n  0x04\n    /* \"#utility.yul\":96:111   */\n  mstore\n    /* \"#utility.yul\":130:134   */\n  0x24\n    /* \"#utility.yul\":127:128   */\n  0x00\n    /* \"#utility.yul\":120:135   */\n  revert\n    /* \"#utility.yul\":146:526   */\ntag_9:\n    /* \"#utility.yul\":225:226   */\n  0x01\n    /* \"#utility.yul\":221:233   */\n  dup2\n  dup2\n  shr\n  swap1\n    /* \"#utility.yul\":268:280   */\n  dup3\n  and\n  dup1\n    /* \"#utility.yul\":289:350   */\n  tag_16\n  jumpi\n    /* \"#utility.yul\":343:347   */\n  0x7f\n    /* \"#utility.yul\":335:341   */\n  dup3\n    /* \"#utility.yul\":331:348   */\n  and\n    /* \"#utility.yul\":321:348   */\n  swap2\n  pop\n    /* \"#utility.yul\":289:350   */\ntag_16:\n    /* \"#utility.yul\":396:398   */\n  0x20\n    /* \"#utility.yul\":388:394   */\n  dup3\n    /* \"#utility.yul\":385:399   */\n  lt\n    /* \"#utility.yul\":365:383   */\n  dup2\n    /* \"#utility.yul\":362:400   */\n  sub\n    /* \"#utility.yul\":359:520   */\n  tag_17\n  jumpi\n    /* \"#utility.yul\":442:452   */\n  0x4e487b71\n    /* \"#utility.yul\":437:440   */\n  0xe0\n    /* \"#utility.yul\":433:453   */\n  shl\n    /* \"#utility.yul\":430:431   */\n  0x00\n    /* \"#utility.yul\":423:454   */\n  mstore\n    /* \"#utility.yul\":477:481   */\n  0x22\n    /* \"#utility.yul\":474:475   */\n  0x04\n    /* \"#utility.yul\":467:482   */\n  mstore\n    /* \"#utility.yul\":505:509   */\n  0x24\n    /* \"#utility.yul\":502:503   */\n  0x00\n    /* \"#utility.yul\":495:510   */\n  revert\n    /* \"#utility.yul\":359:520   */\ntag_17:\n  pop\n    /* \"#utility.yul\":146:526   */\n  swap2\n  swap1\n  pop\n  jump\t// out\n    /* \"#utility.yul\":657:1202   */\ntag_11:\n    /* \"#utility.yul\":759:761   */\n  0x1f\n    /* \"#utility.yul\":754:757   */\n  dup3\n    /* \"#utility.yul\":751:762   */\n  gt\n    /* \"#utility.yul\":748:1196   */\n  iszero\n  tag_20\n  jumpi\n    /* \"#utility.yul\":795:796   */\n  0x00\n    /* \"#utility.yul\":820:825   */\n  dup2\n    /* \"#utility.yul\":816:818   */\n  dup2\n    /* \"#utility.yul\":809:826   */\n  mstore\n    /* \"#utility.yul\":865:869   */\n  0x20\n    /* \"#utility.yul\":861:863   */\n  dup2\n    /* \"#utility.yul\":851:870   */\n  keccak256\n    /* \"#utility.yul\":935:937   */\n  0x1f\n    /* \"#utility.yul\":923:933   */\n  dup6\n    /* \"#utility.yul\":919:938   */\n  add\n    /* \"#utility.yul\":916:917   */\n  0x05\n    /* \"#utility.yul\":912:939   */\n  shr\n    /* \"#utility.yul\":906:910   */\n  dup2\n    /* \"#utility.yul\":902:940   */\n  add\n    /* \"#utility.yul\":971:975   */\n  0x20\n    /* \"#utility.yul\":959:969   */\n  dup7\n    /* \"#utility.yul\":956:976   */\n  lt\n    /* \"#utility.yul\":953:1000   */\n  iszero\n  tag_21\n  jumpi\n  pop\n    /* \"#utility.yul\":994:998   */\n  dup1\n    /* \"#utility.yul\":953:1000   */\ntag_21:\n    /* \"#utility.yul\":1049:1051   */\n  0x1f\n    /* \"#utility.yul\":1044:1047   */\n  dup6\n    /* \"#utility.yul\":1040:1052   */\n  add\n    /* \"#utility.yul\":1037:1038   */\n  0x05\n    /* \"#utility.yul\":1033:1053   */\n  shr\n    /* \"#utility.yul\":1027:1031   */\n  dup3\n    /* \"#utility.yul\":1023:1054   */\n  add\n    /* \"#utility.yul\":1013:1054   */\n  swap2\n  pop\n    /* \"#utility.yul\":1104:1186   */\ntag_22:\n    /* \"#utility.yul\":1122:1124   */\n  dup2\n    /* \"#utility.yul\":1115:1120   */\n  dup2\n    /* \"#utility.yul\":1112:1125   */\n  lt\n    /* \"#utility.yul\":1104:1186   */\n  iszero\n  tag_24\n  jumpi\n    /* \"#utility.yul\":1167:1184   */\n  dup3\n  dup2\n  sstore\n    /* \"#utility.yul\":1148:1149   */\n  0x01\n    /* \"#utility.yul\":1137:1150   */\n  add\n    /* \"#utility.yul\":1104:1186   */\n  jump(tag_22)\ntag_24:\n    /* \"#utility.yul\":1108:1111   */\n  pop\n  pop\n  pop\n    /* \"#utility.yul\":748:1196   */\ntag_20:\n    /* \"#utility.yul\":657:1202   */\n  pop\n  pop\n  pop\n  jump\t// out\n    /* \"#utility.yul\":1378:2730   */\ntag_2:\n    /* \"#utility.yul\":1498:1508   */\n  dup2\n  mload\n  sub(shl(0x40, 0x01), 0x01)\n    /* \"#utility.yul\":1520:1550   */\n  dup2\n  gt\n    /* \"#utility.yul\":1517:1573   */\n  iszero\n  tag_28\n  jumpi\n    /* \"#utility.yul\":1553:1571   */\n  tag_28\n  tag_8\n  jump\t// in\ntag_28:\n    /* \"#utility.yul\":1582:1679   */\n  tag_29\n    /* \"#utility.yul\":1672:1678   */\n  dup2\n    /* \"#utility.yul\":1632:1670   */\n  tag_30\n    /* \"#utility.yul\":1664:1668   */\n  dup5\n    /* \"#utility.yul\":1658:1669   */\n  sload\n    /* \"#utility.yul\":1632:1670   */\n  tag_9\n  jump\t// in\ntag_30:\n    /* \"#utility.yul\":1626:1630   */\n  dup5\n    /* \"#utility.yul\":1582:1679   */\n  tag_11\n  jump\t// in\ntag_29:\n    /* \"#utility.yul\":1734:1738   */\n  0x20\n  dup1\n    /* \"#utility.yul\":1798:1800   */\n  0x1f\n    /* \"#utility.yul\":1787:1801   */\n  dup4\n  gt\n    /* \"#utility.yul\":1815:1816   */\n  0x01\n    /* \"#utility.yul\":1810:2473   */\n  dup2\n  eq\n  tag_32\n  jumpi\n    /* \"#utility.yul\":2517:2518   */\n  0x00\n    /* \"#utility.yul\":2534:2540   */\n  dup5\n    /* \"#utility.yul\":2531:2620   */\n  iszero\n  tag_33\n  jumpi\n  pop\n    /* \"#utility.yul\":2586:2605   */\n  dup6\n  dup4\n  add\n    /* \"#utility.yul\":2580:2606   */\n  mload\n    /* \"#utility.yul\":2531:2620   */\ntag_33:\n  not(0x00)\n    /* \"#utility.yul\":1335:1336   */\n  0x03\n    /* \"#utility.yul\":1331:1342   */\n  dup7\n  swap1\n  shl\n    /* \"#utility.yul\":1327:1351   */\n  shr\n    /* \"#utility.yul\":1323:1352   */\n  not\n    /* \"#utility.yul\":1313:1353   */\n  and\n    /* \"#utility.yul\":1359:1360   */\n  0x01\n    /* \"#utility.yul\":1355:1366   */\n  dup6\n  swap1\n  shl\n    /* \"#utility.yul\":1310:1367   */\n  or\n    /* \"#utility.yul\":2633:2714   */\n  dup6\n  sstore\n    /* \"#utility.yul\":1780:2724   */\n  jump(tag_24)\n    /* \"#utility.yul\":1810:2473   */\ntag_32:\n    /* \"#utility.yul\":604:605   */\n  0x00\n    /* \"#utility.yul\":597:611   */\n  dup6\n  dup2\n  mstore\n    /* \"#utility.yul\":641:645   */\n  0x20\n    /* \"#utility.yul\":628:646   */\n  dup2\n  keccak256\n  not(0x1f)\n    /* \"#utility.yul\":1846:1866   */\n  dup7\n  and\n  swap2\n    /* \"#utility.yul\":1964:2200   */\ntag_36:\n    /* \"#utility.yul\":1978:1985   */\n  dup3\n    /* \"#utility.yul\":1975:1976   */\n  dup2\n    /* \"#utility.yul\":1972:1986   */\n  lt\n    /* \"#utility.yul\":1964:2200   */\n  iszero\n  tag_38\n  jumpi\n    /* \"#utility.yul\":2067:2086   */\n  dup9\n  dup7\n  add\n    /* \"#utility.yul\":2061:2087   */\n  mload\n    /* \"#utility.yul\":2046:2088   */\n  dup3\n  sstore\n    /* \"#utility.yul\":2159:2186   */\n  swap5\n  dup5\n  add\n  swap5\n    /* \"#utility.yul\":2127:2128   */\n  0x01\n    /* \"#utility.yul\":2115:2129   */\n  swap1\n  swap2\n  add\n  swap1\n    /* \"#utility.yul\":1994:2013   */\n  dup5\n  add\n    /* \"#utility.yul\":1964:2200   */\n  jump(tag_36)\ntag_38:\n    /* \"#utility.yul\":1968:1971   */\n  pop\n    /* \"#utility.yul\":2228:2234   */\n  dup6\n    /* \"#utility.yul\":2219:2226   */\n  dup3\n    /* \"#utility.yul\":2216:2235   */\n  lt\n    /* \"#utility.yul\":2213:2414   */\n  iszero\n  tag_39\n  jumpi\n    /* \"#utility.yul\":2289:2308   */\n  dup8\n  dup6\n  add\n    /* \"#utility.yul\":2283:2309   */\n  mload\n  not(0x00)\n    /* \"#utility.yul\":2372:2373   */\n  0x03\n    /* \"#utility.yul\":2368:2382   */\n  dup9\n  swap1\n  shl\n    /* \"#utility.yul\":2384:2387   */\n  0xf8\n    /* \"#utility.yul\":2364:2388   */\n  and\n    /* \"#utility.yul\":2360:2397   */\n  shr\n    /* \"#utility.yul\":2356:2398   */\n  not\n    /* \"#utility.yul\":2341:2399   */\n  and\n    /* \"#utility.yul\":2326:2400   */\n  dup2\n  sstore\n    /* \"#utility.yul\":2213:2414   */\ntag_39:\n  pop\n  pop\n  pop\n  pop\n  pop\n    /* \"#utility.yul\":2460:2461   */\n  0x01\n    /* \"#utility.yul\":2444:2458   */\n  swap1\n  dup2\n  shl\n    /* \"#utility.yul\":2440:2462   */\n  add\n    /* \"#utility.yul\":2427:2463   */\n  swap1\n  sstore\n  pop\n    /* \"#utility.yul\":1378:2730   */\n  jump\t// out\ntag_13:\n    /* \"src/UglyUnicornsGovToken.sol\":61:1833  contract SimpleGovToken {... */\n  dataSize(sub_0)\n  dup1\n  dataOffset(sub_0)\n  0x00\n  codecopy\n  0x00\n  return\nstop\n\nsub_0: assembly {\n        /* \"src/UglyUnicornsGovToken.sol\":61:1833  contract SimpleGovToken {... */\n      mstore(0x40, 0x80)\n      callvalue\n      dup1\n      iszero\n      tag_1\n      jumpi\n      0x00\n      dup1\n      revert\n    tag_1:\n      pop\n      jumpi(tag_2, lt(calldatasize, 0x04))\n      shr(0xe0, calldataload(0x00))\n      dup1\n      0x95d89b41\n      gt\n      tag_15\n      jumpi\n      dup1\n      0x95d89b41\n      eq\n      tag_9\n      jumpi\n      dup1\n      0x983b2d56\n      eq\n      tag_10\n      jumpi\n      dup1\n      0x9dc29fac\n      eq\n      tag_11\n      jumpi\n      dup1\n      0xa9059cbb\n      eq\n      tag_12\n      jumpi\n      dup1\n      0xdd62ed3e\n      eq\n      tag_13\n      jumpi\n      dup1\n      0xf46eccc4\n      eq\n      tag_14\n      jumpi\n      0x00\n      dup1\n      revert\n    tag_15:\n      dup1\n      0x06fdde03\n      eq\n      tag_3\n      jumpi\n      dup1\n      0x18160ddd\n      eq\n      tag_4\n      jumpi\n      dup1\n      0x313ce567\n      eq\n      tag_5\n      jumpi\n      dup1\n      0x40c10f19\n      eq\n      tag_6\n      jumpi\n      dup1\n      0x70a08231\n      eq\n      tag_7\n      jumpi\n      dup1\n      0x8da5cb5b\n      eq\n      tag_8\n      jumpi\n    tag_2:\n      0x00\n      dup1\n      revert\n        /* \"src/UglyUnicornsGovToken.sol\":92:138  string public name = \"Ugly Unicorns DAO Token\" */\n    tag_3:\n      tag_16\n      tag_17\n      jump\t// in\n    tag_16:\n      mload(0x40)\n      tag_18\n      swap2\n      swap1\n      tag_19\n      jump\t// in\n    tag_18:\n      mload(0x40)\n      dup1\n      swap2\n      sub\n      swap1\n      return\n        /* \"src/UglyUnicornsGovToken.sol\":216:242  uint256 public totalSupply */\n    tag_4:\n      tag_20\n      sload(0x03)\n      dup2\n      jump\n    tag_20:\n      mload(0x40)\n        /* \"#utility.yul\":713:738   */\n      swap1\n      dup2\n      mstore\n        /* \"#utility.yul\":701:703   */\n      0x20\n        /* \"#utility.yul\":686:704   */\n      add\n        /* \"src/UglyUnicornsGovToken.sol\":216:242  uint256 public totalSupply */\n      tag_18\n        /* \"#utility.yul\":567:744   */\n      jump\n        /* \"src/UglyUnicornsGovToken.sol\":183:209  uint8 public decimals = 18 */\n    tag_5:\n      sload(0x02)\n      tag_24\n      swap1\n      0xff\n      and\n      dup2\n      jump\n    tag_24:\n      mload(0x40)\n        /* \"#utility.yul\":921:925   */\n      0xff\n        /* \"#utility.yul\":909:926   */\n      swap1\n      swap2\n      and\n        /* \"#utility.yul\":891:927   */\n      dup2\n      mstore\n        /* \"#utility.yul\":879:881   */\n      0x20\n        /* \"#utility.yul\":864:882   */\n      add\n        /* \"src/UglyUnicornsGovToken.sol\":183:209  uint8 public decimals = 18 */\n      tag_18\n        /* \"#utility.yul\":749:933   */\n      jump\n        /* \"src/UglyUnicornsGovToken.sol\":965:1147  function mint(address to, uint256 amount) public onlyMinter {... */\n    tag_6:\n      tag_28\n      tag_29\n      calldatasize\n      0x04\n      tag_30\n      jump\t// in\n    tag_29:\n      tag_31\n      jump\t// in\n    tag_28:\n      stop\n        /* \"src/UglyUnicornsGovToken.sol\":255:299  mapping(address => uint256) public balanceOf */\n    tag_7:\n      tag_20\n      tag_33\n      calldatasize\n      0x04\n      tag_34\n      jump\t// in\n    tag_33:\n      mstore(0x20, 0x04)\n      0x00\n      swap1\n      dup2\n      mstore\n      0x40\n      swap1\n      keccak256\n      sload\n      dup2\n      jump\n        /* \"src/UglyUnicornsGovToken.sol\":429:449  address public owner */\n    tag_8:\n      sload(0x07)\n      tag_37\n      swap1\n      sub(shl(0xa0, 0x01), 0x01)\n      and\n      dup2\n      jump\n    tag_37:\n      mload(0x40)\n      sub(shl(0xa0, 0x01), 0x01)\n        /* \"#utility.yul\":1730:1762   */\n      swap1\n      swap2\n      and\n        /* \"#utility.yul\":1712:1763   */\n      dup2\n      mstore\n        /* \"#utility.yul\":1700:1702   */\n      0x20\n        /* \"#utility.yul\":1685:1703   */\n      add\n        /* \"src/UglyUnicornsGovToken.sol\":429:449  address public owner */\n      tag_18\n        /* \"#utility.yul\":1566:1769   */\n      jump\n        /* \"src/UglyUnicornsGovToken.sol\":145:176  string public symbol = \"UGLYDO\" */\n    tag_9:\n      tag_16\n      tag_42\n      jump\t// in\n        /* \"src/UglyUnicornsGovToken.sol\":1428:1521  function addMinter(address minter) public onlyOwner {... */\n    tag_10:\n      tag_28\n      tag_45\n      calldatasize\n      0x04\n      tag_34\n      jump\t// in\n    tag_45:\n      tag_46\n      jump\t// in\n        /* \"src/UglyUnicornsGovToken.sol\":1159:1416  function burn(address from, uint256 amount) public onlyMinter {... */\n    tag_11:\n      tag_28\n      tag_48\n      calldatasize\n      0x04\n      tag_30\n      jump\t// in\n    tag_48:\n      tag_49\n      jump\t// in\n        /* \"src/UglyUnicornsGovToken.sol\":1533:1830  function transfer(address to, uint256 amount) public returns (bool) {... */\n    tag_12:\n      tag_50\n      tag_51\n      calldatasize\n      0x04\n      tag_30\n      jump\t// in\n    tag_51:\n      tag_52\n      jump\t// in\n    tag_50:\n      mload(0x40)\n        /* \"#utility.yul\":1939:1953   */\n      swap1\n      iszero\n        /* \"#utility.yul\":1932:1954   */\n      iszero\n        /* \"#utility.yul\":1914:1955   */\n      dup2\n      mstore\n        /* \"#utility.yul\":1902:1904   */\n      0x20\n        /* \"#utility.yul\":1887:1905   */\n      add\n        /* \"src/UglyUnicornsGovToken.sol\":1533:1830  function transfer(address to, uint256 amount) public returns (bool) {... */\n      tag_18\n        /* \"#utility.yul\":1774:1961   */\n      jump\n        /* \"src/UglyUnicornsGovToken.sol\":306:370  mapping(address => mapping(address => uint256)) public allowance */\n    tag_13:\n      tag_20\n      tag_56\n      calldatasize\n      0x04\n      tag_57\n      jump\t// in\n    tag_56:\n      0x05\n      0x20\n      swap1\n      dup2\n      mstore\n      0x00\n      swap3\n      dup4\n      mstore\n      0x40\n      dup1\n      dup5\n      keccak256\n      swap1\n      swap2\n      mstore\n      swap1\n      dup3\n      mstore\n      swap1\n      keccak256\n      sload\n      dup2\n      jump\n        /* \"src/UglyUnicornsGovToken.sol\":377:416  mapping(address => bool) public minters */\n    tag_14:\n      tag_50\n      tag_61\n      calldatasize\n      0x04\n      tag_34\n      jump\t// in\n    tag_61:\n      mstore(0x20, 0x06)\n      0x00\n      swap1\n      dup2\n      mstore\n      0x40\n      swap1\n      keccak256\n      sload\n      0xff\n      and\n      dup2\n      jump\n        /* \"src/UglyUnicornsGovToken.sol\":92:138  string public name = \"Ugly Unicorns DAO Token\" */\n    tag_17:\n      0x00\n      dup1\n      sload\n      tag_64\n      swap1\n      tag_65\n      jump\t// in\n    tag_64:\n      dup1\n      0x1f\n      add\n      0x20\n      dup1\n      swap2\n      div\n      mul\n      0x20\n      add\n      mload(0x40)\n      swap1\n      dup2\n      add\n      0x40\n      mstore\n      dup1\n      swap3\n      swap2\n      swap1\n      dup2\n      dup2\n      mstore\n      0x20\n      add\n      dup3\n      dup1\n      sload\n      tag_66\n      swap1\n      tag_65\n      jump\t// in\n    tag_66:\n      dup1\n      iszero\n      tag_67\n      jumpi\n      dup1\n      0x1f\n      lt\n      tag_68\n      jumpi\n      0x0100\n      dup1\n      dup4\n      sload\n      div\n      mul\n      dup4\n      mstore\n      swap2\n      0x20\n      add\n      swap2\n      jump(tag_67)\n    tag_68:\n      dup3\n      add\n      swap2\n      swap1\n      0x00\n      mstore\n      keccak256(0x00, 0x20)\n      swap1\n    tag_69:\n      dup2\n      sload\n      dup2\n      mstore\n      swap1\n      0x01\n      add\n      swap1\n      0x20\n      add\n      dup1\n      dup4\n      gt\n      tag_69\n      jumpi\n      dup3\n      swap1\n      sub\n      0x1f\n      and\n      dup3\n      add\n      swap2\n    tag_67:\n      pop\n      pop\n      pop\n      pop\n      pop\n      dup2\n      jump\t// out\n        /* \"src/UglyUnicornsGovToken.sol\":965:1147  function mint(address to, uint256 amount) public onlyMinter {... */\n    tag_31:\n        /* \"src/UglyUnicornsGovToken.sol\":784:794  msg.sender */\n      caller\n        /* \"src/UglyUnicornsGovToken.sol\":776:795  minters[msg.sender] */\n      0x00\n      swap1\n      dup2\n      mstore\n        /* \"src/UglyUnicornsGovToken.sol\":776:783  minters */\n      0x06\n        /* \"src/UglyUnicornsGovToken.sol\":776:795  minters[msg.sender] */\n      0x20\n      mstore\n      0x40\n      swap1\n      keccak256\n      sload\n      0xff\n      and\n      dup1\n        /* \"src/UglyUnicornsGovToken.sol\":776:818  minters[msg.sender] || msg.sender == owner */\n      tag_71\n      jumpi\n      pop\n        /* \"src/UglyUnicornsGovToken.sol\":813:818  owner */\n      and(sub(shl(0xa0, 0x01), 0x01), sload(0x07))\n        /* \"src/UglyUnicornsGovToken.sol\":799:809  msg.sender */\n      caller\n        /* \"src/UglyUnicornsGovToken.sol\":799:818  msg.sender == owner */\n      eq\n        /* \"src/UglyUnicornsGovToken.sol\":776:818  minters[msg.sender] || msg.sender == owner */\n    tag_71:\n        /* \"src/UglyUnicornsGovToken.sol\":768:833  require(minters[msg.sender] || msg.sender == owner, \"Not minter\") */\n      tag_72\n      jumpi\n      mload(0x40)\n      shl(0xe5, 0x461bcd)\n      dup2\n      mstore\n        /* \"#utility.yul\":2818:2820   */\n      0x20\n        /* \"src/UglyUnicornsGovToken.sol\":768:833  require(minters[msg.sender] || msg.sender == owner, \"Not minter\") */\n      0x04\n      dup3\n      add\n        /* \"#utility.yul\":2800:2821   */\n      mstore\n        /* \"#utility.yul\":2857:2859   */\n      0x0a\n        /* \"#utility.yul\":2837:2855   */\n      0x24\n      dup3\n      add\n        /* \"#utility.yul\":2830:2860   */\n      mstore\n      shl(0xb1, 0x2737ba1036b4b73a32b9)\n        /* \"#utility.yul\":2876:2894   */\n      0x44\n      dup3\n      add\n        /* \"#utility.yul\":2869:2909   */\n      mstore\n        /* \"#utility.yul\":2926:2944   */\n      0x64\n      add\n        /* \"src/UglyUnicornsGovToken.sol\":768:833  require(minters[msg.sender] || msg.sender == owner, \"Not minter\") */\n    tag_73:\n      mload(0x40)\n      dup1\n      swap2\n      sub\n      swap1\n      revert\n    tag_72:\n        /* \"src/UglyUnicornsGovToken.sol\":1051:1057  amount */\n      dup1\n        /* \"src/UglyUnicornsGovToken.sol\":1036:1047  totalSupply */\n      0x03\n      0x00\n        /* \"src/UglyUnicornsGovToken.sol\":1036:1057  totalSupply += amount */\n      dup3\n      dup3\n      sload\n      tag_76\n      swap2\n      swap1\n      tag_77\n      jump\t// in\n    tag_76:\n      swap1\n      swap2\n      sstore\n      pop\n      pop\n      sub(shl(0xa0, 0x01), 0x01)\n        /* \"src/UglyUnicornsGovToken.sol\":1068:1081  balanceOf[to] */\n      dup3\n      and\n      0x00\n      swap1\n      dup2\n      mstore\n        /* \"src/UglyUnicornsGovToken.sol\":1068:1077  balanceOf */\n      0x04\n        /* \"src/UglyUnicornsGovToken.sol\":1068:1081  balanceOf[to] */\n      0x20\n      mstore\n      0x40\n      dup2\n      keccak256\n        /* \"src/UglyUnicornsGovToken.sol\":1068:1091  balanceOf[to] += amount */\n      dup1\n      sload\n        /* \"src/UglyUnicornsGovToken.sol\":1085:1091  amount */\n      dup4\n      swap3\n        /* \"src/UglyUnicornsGovToken.sol\":1068:1081  balanceOf[to] */\n      swap1\n        /* \"src/UglyUnicornsGovToken.sol\":1068:1091  balanceOf[to] += amount */\n      tag_78\n      swap1\n        /* \"src/UglyUnicornsGovToken.sol\":1085:1091  amount */\n      dup5\n      swap1\n        /* \"src/UglyUnicornsGovToken.sol\":1068:1091  balanceOf[to] += amount */\n      tag_77\n      jump\t// in\n    tag_78:\n      swap1\n      swap2\n      sstore\n      pop\n      pop\n        /* \"src/UglyUnicornsGovToken.sol\":1107:1139  Transfer(address(0), to, amount) */\n      mload(0x40)\n        /* \"#utility.yul\":713:738   */\n      dup2\n      dup2\n      mstore\n      sub(shl(0xa0, 0x01), 0x01)\n        /* \"src/UglyUnicornsGovToken.sol\":1107:1139  Transfer(address(0), to, amount) */\n      dup4\n      and\n      swap1\n        /* \"src/UglyUnicornsGovToken.sol\":1124:1125  0 */\n      0x00\n      swap1\n        /* \"src/UglyUnicornsGovToken.sol\":1107:1139  Transfer(address(0), to, amount) */\n      0xddf252ad1be2c89b69c2b068fc378daa952ba7f163c4a11628f55a4df523b3ef\n      swap1\n        /* \"#utility.yul\":701:703   */\n      0x20\n        /* \"#utility.yul\":686:704   */\n      add\n        /* \"src/UglyUnicornsGovToken.sol\":1107:1139  Transfer(address(0), to, amount) */\n    tag_79:\n      mload(0x40)\n      dup1\n      swap2\n      sub\n      swap1\n      log3\n        /* \"src/UglyUnicornsGovToken.sol\":965:1147  function mint(address to, uint256 amount) public onlyMinter {... */\n      pop\n      pop\n      jump\t// out\n        /* \"src/UglyUnicornsGovToken.sol\":145:176  string public symbol = \"UGLYDO\" */\n    tag_42:\n      0x01\n      dup1\n      sload\n      tag_64\n      swap1\n      tag_65\n      jump\t// in\n        /* \"src/UglyUnicornsGovToken.sol\":1428:1521  function addMinter(address minter) public onlyOwner {... */\n    tag_46:\n        /* \"src/UglyUnicornsGovToken.sol\":684:689  owner */\n      and(sub(shl(0xa0, 0x01), 0x01), sload(0x07))\n        /* \"src/UglyUnicornsGovToken.sol\":670:680  msg.sender */\n      caller\n        /* \"src/UglyUnicornsGovToken.sol\":670:689  msg.sender == owner */\n      eq\n        /* \"src/UglyUnicornsGovToken.sol\":662:703  require(msg.sender == owner, \"Not owner\") */\n      tag_86\n      jumpi\n      mload(0x40)\n      shl(0xe5, 0x461bcd)\n      dup2\n      mstore\n        /* \"#utility.yul\":3419:3421   */\n      0x20\n        /* \"src/UglyUnicornsGovToken.sol\":662:703  require(msg.sender == owner, \"Not owner\") */\n      0x04\n      dup3\n      add\n        /* \"#utility.yul\":3401:3422   */\n      mstore\n        /* \"#utility.yul\":3458:3459   */\n      0x09\n        /* \"#utility.yul\":3438:3456   */\n      0x24\n      dup3\n      add\n        /* \"#utility.yul\":3431:3460   */\n      mstore\n      shl(0xb9, 0x2737ba1037bbb732b9)\n        /* \"#utility.yul\":3476:3494   */\n      0x44\n      dup3\n      add\n        /* \"#utility.yul\":3469:3508   */\n      mstore\n        /* \"#utility.yul\":3525:3543   */\n      0x64\n      add\n        /* \"src/UglyUnicornsGovToken.sol\":662:703  require(msg.sender == owner, \"Not owner\") */\n      tag_73\n        /* \"#utility.yul\":3217:3549   */\n      jump\n        /* \"src/UglyUnicornsGovToken.sol\":662:703  require(msg.sender == owner, \"Not owner\") */\n    tag_86:\n      sub(shl(0xa0, 0x01), 0x01)\n        /* \"src/UglyUnicornsGovToken.sol\":1491:1506  minters[minter] */\n      and\n      0x00\n      swap1\n      dup2\n      mstore\n        /* \"src/UglyUnicornsGovToken.sol\":1491:1498  minters */\n      0x06\n        /* \"src/UglyUnicornsGovToken.sol\":1491:1506  minters[minter] */\n      0x20\n      mstore\n      0x40\n      swap1\n      keccak256\n        /* \"src/UglyUnicornsGovToken.sol\":1491:1513  minters[minter] = true */\n      dup1\n      sload\n      not(0xff)\n      and\n        /* \"src/UglyUnicornsGovToken.sol\":1509:1513  true */\n      0x01\n        /* \"src/UglyUnicornsGovToken.sol\":1491:1513  minters[minter] = true */\n      or\n      swap1\n      sstore\n        /* \"src/UglyUnicornsGovToken.sol\":1428:1521  function addMinter(address minter) public onlyOwner {... */\n      jump\t// out\n        /* \"src/UglyUnicornsGovToken.sol\":1159:1416  function burn(address from, uint256 amount) public onlyMinter {... */\n    tag_49:\n        /* \"src/UglyUnicornsGovToken.sol\":784:794  msg.sender */\n      caller\n        /* \"src/UglyUnicornsGovToken.sol\":776:795  minters[msg.sender] */\n      0x00\n      swap1\n      dup2\n      mstore\n        /* \"src/UglyUnicornsGovToken.sol\":776:783  minters */\n      0x06\n        /* \"src/UglyUnicornsGovToken.sol\":776:795  minters[msg.sender] */\n      0x20\n      mstore\n      0x40\n      swap1\n      keccak256\n      sload\n      0xff\n      and\n      dup1\n        /* \"src/UglyUnicornsGovToken.sol\":776:818  minters[msg.sender] || msg.sender == owner */\n      tag_91\n      jumpi\n      pop\n        /* \"src/UglyUnicornsGovToken.sol\":813:818  owner */\n      and(sub(shl(0xa0, 0x01), 0x01), sload(0x07))\n        /* \"src/UglyUnicornsGovToken.sol\":799:809  msg.sender */\n      caller\n        /* \"src/UglyUnicornsGovToken.sol\":799:818  msg.sender == owner */\n      eq\n        /* \"src/UglyUnicornsGovToken.sol\":776:818  minters[msg.sender] || msg.sender == owner */\n    tag_91:\n        /* \"src/UglyUnicornsGovToken.sol\":768:833  require(minters[msg.sender] || msg.sender == owner, \"Not minter\") */\n      tag_92\n      jumpi\n      mload(0x40)\n      shl(0xe5, 0x461bcd)\n      dup2\n      mstore\n        /* \"#utility.yul\":2818:2820   */\n      0x20\n        /* \"src/UglyUnicornsGovToken.sol\":768:833  require(minters[msg.sender] || msg.sender == owner, \"Not minter\") */\n      0x04\n      dup3\n      add\n        /* \"#utility.yul\":2800:2821   */\n      mstore\n        /* \"#utility.yul\":2857:2859   */\n      0x0a\n        /* \"#utility.yul\":2837:2855   */\n      0x24\n      dup3\n      add\n        /* \"#utility.yul\":2830:2860   */\n      mstore\n      shl(0xb1, 0x2737ba1036b4b73a32b9)\n        /* \"#utility.yul\":2876:2894   */\n      0x44\n      dup3\n      add\n        /* \"#utility.yul\":2869:2909   */\n      mstore\n        /* \"#utility.yul\":2926:2944   */\n      0x64\n      add\n        /* \"src/UglyUnicornsGovToken.sol\":768:833  require(minters[msg.sender] || msg.sender == owner, \"Not minter\") */\n      tag_73\n        /* \"#utility.yul\":2616:2950   */\n      jump\n        /* \"src/UglyUnicornsGovToken.sol\":768:833  require(minters[msg.sender] || msg.sender == owner, \"Not minter\") */\n    tag_92:\n      sub(shl(0xa0, 0x01), 0x01)\n        /* \"src/UglyUnicornsGovToken.sol\":1240:1255  balanceOf[from] */\n      dup3\n      and\n      0x00\n      swap1\n      dup2\n      mstore\n        /* \"src/UglyUnicornsGovToken.sol\":1240:1249  balanceOf */\n      0x04\n        /* \"src/UglyUnicornsGovToken.sol\":1240:1255  balanceOf[from] */\n      0x20\n      mstore\n      0x40\n      swap1\n      keccak256\n      sload\n        /* \"src/UglyUnicornsGovToken.sol\":1240:1265  balanceOf[from] >= amount */\n      dup2\n      gt\n      iszero\n        /* \"src/UglyUnicornsGovToken.sol\":1232:1290  require(balanceOf[from] >= amount, \"Insufficient balance\") */\n      tag_95\n      jumpi\n      mload(0x40)\n      shl(0xe5, 0x461bcd)\n      dup2\n      mstore\n        /* \"#utility.yul\":3756:3758   */\n      0x20\n        /* \"src/UglyUnicornsGovToken.sol\":1232:1290  require(balanceOf[from] >= amount, \"Insufficient balance\") */\n      0x04\n      dup3\n      add\n        /* \"#utility.yul\":3738:3759   */\n      mstore\n        /* \"#utility.yul\":3795:3797   */\n      0x14\n        /* \"#utility.yul\":3775:3793   */\n      0x24\n      dup3\n      add\n        /* \"#utility.yul\":3768:3798   */\n      mstore\n      shl(0x60, 0x496e73756666696369656e742062616c616e6365)\n        /* \"#utility.yul\":3814:3832   */\n      0x44\n      dup3\n      add\n        /* \"#utility.yul\":3807:3857   */\n      mstore\n        /* \"#utility.yul\":3874:3892   */\n      0x64\n      add\n        /* \"src/UglyUnicornsGovToken.sol\":1232:1290  require(balanceOf[from] >= amount, \"Insufficient balance\") */\n      tag_73\n        /* \"#utility.yul\":3554:3898   */\n      jump\n        /* \"src/UglyUnicornsGovToken.sol\":1232:1290  require(balanceOf[from] >= amount, \"Insufficient balance\") */\n    tag_95:\n        /* \"src/UglyUnicornsGovToken.sol\":1316:1322  amount */\n      dup1\n        /* \"src/UglyUnicornsGovToken.sol\":1301:1312  totalSupply */\n      0x03\n      0x00\n        /* \"src/UglyUnicornsGovToken.sol\":1301:1322  totalSupply -= amount */\n      dup3\n      dup3\n      sload\n      tag_98\n      swap2\n      swap1\n      tag_99\n      jump\t// in\n    tag_98:\n      swap1\n      swap2\n      sstore\n      pop\n      pop\n      sub(shl(0xa0, 0x01), 0x01)\n        /* \"src/UglyUnicornsGovToken.sol\":1333:1348  balanceOf[from] */\n      dup3\n      and\n      0x00\n      swap1\n      dup2\n      mstore\n        /* \"src/UglyUnicornsGovToken.sol\":1333:1342  balanceOf */\n      0x04\n        /* \"src/UglyUnicornsGovToken.sol\":1333:1348  balanceOf[from] */\n      0x20\n      mstore\n      0x40\n      dup2\n      keccak256\n        /* \"src/UglyUnicornsGovToken.sol\":1333:1358  balanceOf[from] -= amount */\n      dup1\n      sload\n        /* \"src/UglyUnicornsGovToken.sol\":1352:1358  amount */\n      dup4\n      swap3\n        /* \"src/UglyUnicornsGovToken.sol\":1333:1348  balanceOf[from] */\n      swap1\n        /* \"src/UglyUnicornsGovToken.sol\":1333:1358  balanceOf[from] -= amount */\n      tag_100\n      swap1\n        /* \"src/UglyUnicornsGovToken.sol\":1352:1358  amount */\n      dup5\n      swap1\n        /* \"src/UglyUnicornsGovToken.sol\":1333:1358  balanceOf[from] -= amount */\n      tag_99\n      jump\t// in\n    tag_100:\n      swap1\n      swap2\n      sstore\n      pop\n      pop\n        /* \"src/UglyUnicornsGovToken.sol\":1374:1408  Transfer(from, address(0), amount) */\n      mload(0x40)\n        /* \"#utility.yul\":713:738   */\n      dup2\n      dup2\n      mstore\n        /* \"src/UglyUnicornsGovToken.sol\":1397:1398  0 */\n      0x00\n      swap1\n      sub(shl(0xa0, 0x01), 0x01)\n        /* \"src/UglyUnicornsGovToken.sol\":1374:1408  Transfer(from, address(0), amount) */\n      dup5\n      and\n      swap1\n      0xddf252ad1be2c89b69c2b068fc378daa952ba7f163c4a11628f55a4df523b3ef\n      swap1\n        /* \"#utility.yul\":701:703   */\n      0x20\n        /* \"#utility.yul\":686:704   */\n      add\n        /* \"src/UglyUnicornsGovToken.sol\":1374:1408  Transfer(from, address(0), amount) */\n      tag_79\n        /* \"#utility.yul\":567:744   */\n      jump\n        /* \"src/UglyUnicornsGovToken.sol\":1533:1830  function transfer(address to, uint256 amount) public returns (bool) {... */\n    tag_52:\n        /* \"src/UglyUnicornsGovToken.sol\":1630:1640  msg.sender */\n      caller\n        /* \"src/UglyUnicornsGovToken.sol\":1595:1599  bool */\n      0x00\n        /* \"src/UglyUnicornsGovToken.sol\":1620:1641  balanceOf[msg.sender] */\n      swap1\n      dup2\n      mstore\n        /* \"src/UglyUnicornsGovToken.sol\":1620:1629  balanceOf */\n      0x04\n        /* \"src/UglyUnicornsGovToken.sol\":1620:1641  balanceOf[msg.sender] */\n      0x20\n      mstore\n      0x40\n      dup2\n      keccak256\n      sload\n        /* \"src/UglyUnicornsGovToken.sol\":1620:1651  balanceOf[msg.sender] >= amount */\n      dup3\n      gt\n      iszero\n        /* \"src/UglyUnicornsGovToken.sol\":1612:1676  require(balanceOf[msg.sender] >= amount, \"Insufficient balance\") */\n      tag_103\n      jumpi\n      mload(0x40)\n      shl(0xe5, 0x461bcd)\n      dup2\n      mstore\n        /* \"#utility.yul\":3756:3758   */\n      0x20\n        /* \"src/UglyUnicornsGovToken.sol\":1612:1676  require(balanceOf[msg.sender] >= amount, \"Insufficient balance\") */\n      0x04\n      dup3\n      add\n        /* \"#utility.yul\":3738:3759   */\n      mstore\n        /* \"#utility.yul\":3795:3797   */\n      0x14\n        /* \"#utility.yul\":3775:3793   */\n      0x24\n      dup3\n      add\n        /* \"#utility.yul\":3768:3798   */\n      mstore\n      shl(0x60, 0x496e73756666696369656e742062616c616e6365)\n        /* \"#utility.yul\":3814:3832   */\n      0x44\n      dup3\n      add\n        /* \"#utility.yul\":3807:3857   */\n      mstore\n        /* \"#utility.yul\":3874:3892   */\n      0x64\n      add\n        /* \"src/UglyUnicornsGovToken.sol\":1612:1676  require(balanceOf[msg.sender] >= amount, \"Insufficient balance\") */\n      tag_73\n        /* \"#utility.yul\":3554:3898   */\n      jump\n        /* \"src/UglyUnicornsGovToken.sol\":1612:1676  require(balanceOf[msg.sender] >= amount, \"Insufficient balance\") */\n    tag_103:\n        /* \"src/UglyUnicornsGovToken.sol\":1697:1707  msg.sender */\n      caller\n        /* \"src/UglyUnicornsGovToken.sol\":1687:1708  balanceOf[msg.sender] */\n      0x00\n      swap1\n      dup2\n      mstore\n        /* \"src/UglyUnicornsGovToken.sol\":1687:1696  balanceOf */\n      0x04\n        /* \"src/UglyUnicornsGovToken.sol\":1687:1708  balanceOf[msg.sender] */\n      0x20\n      mstore\n      0x40\n      dup2\n      keccak256\n        /* \"src/UglyUnicornsGovToken.sol\":1687:1718  balanceOf[msg.sender] -= amount */\n      dup1\n      sload\n        /* \"src/UglyUnicornsGovToken.sol\":1712:1718  amount */\n      dup5\n      swap3\n        /* \"src/UglyUnicornsGovToken.sol\":1687:1708  balanceOf[msg.sender] */\n      swap1\n        /* \"src/UglyUnicornsGovToken.sol\":1687:1718  balanceOf[msg.sender] -= amount */\n      tag_105\n      swap1\n        /* \"src/UglyUnicornsGovToken.sol\":1712:1718  amount */\n      dup5\n      swap1\n        /* \"src/UglyUnicornsGovToken.sol\":1687:1718  balanceOf[msg.sender] -= amount */\n      tag_99\n      jump\t// in\n    tag_105:\n      swap1\n      swap2\n      sstore\n      pop\n      pop\n      sub(shl(0xa0, 0x01), 0x01)\n        /* \"src/UglyUnicornsGovToken.sol\":1729:1742  balanceOf[to] */\n      dup4\n      and\n      0x00\n      swap1\n      dup2\n      mstore\n        /* \"src/UglyUnicornsGovToken.sol\":1729:1738  balanceOf */\n      0x04\n        /* \"src/UglyUnicornsGovToken.sol\":1729:1742  balanceOf[to] */\n      0x20\n      mstore\n      0x40\n      dup2\n      keccak256\n        /* \"src/UglyUnicornsGovToken.sol\":1729:1752  balanceOf[to] += amount */\n      dup1\n      sload\n        /* \"src/UglyUnicornsGovToken.sol\":1746:1752  amount */\n      dup5\n      swap3\n        /* \"src/UglyUnicornsGovToken.sol\":1729:1742  balanceOf[to] */\n      swap1\n        /* \"src/UglyUnicornsGovToken.sol\":1729:1752  balanceOf[to] += amount */\n      tag_106\n      swap1\n        /* \"src/UglyUnicornsGovToken.sol\":1746:1752  amount */\n      dup5\n      swap1\n        /* \"src/UglyUnicornsGovToken.sol\":1729:1752  balanceOf[to] += amount */\n      tag_77\n      jump\t// in\n    tag_106:\n      swap1\n      swap2\n      sstore\n      pop\n      pop\n        /* \"src/UglyUnicornsGovToken.sol\":1768:1800  Transfer(msg.sender, to, amount) */\n      mload(0x40)\n        /* \"#utility.yul\":713:738   */\n      dup3\n      dup2\n      mstore\n      sub(shl(0xa0, 0x01), 0x01)\n        /* \"src/UglyUnicornsGovToken.sol\":1768:1800  Transfer(msg.sender, to, amount) */\n      dup5\n      and\n      swap1\n        /* \"src/UglyUnicornsGovToken.sol\":1777:1787  msg.sender */\n      caller\n      swap1\n        /* \"src/UglyUnicornsGovToken.sol\":1768:1800  Transfer(msg.sender, to, amount) */\n      0xddf252ad1be2c89b69c2b068fc378daa952ba7f163c4a11628f55a4df523b3ef\n      swap1\n        /* \"#utility.yul\":701:703   */\n      0x20\n        /* \"#utility.yul\":686:704   */\n      add\n        /* \"src/UglyUnicornsGovToken.sol\":1768:1800  Transfer(msg.sender, to, amount) */\n      mload(0x40)\n      dup1\n      swap2\n      sub\n      swap1\n      log3\n      pop\n        /* \"src/UglyUnicornsGovToken.sol\":1818:1822  true */\n      0x01\n        /* \"src/UglyUnicornsGovToken.sol\":1533:1830  function transfer(address to, uint256 amount) public returns (bool) {... */\n    tag_102:\n      swap3\n      swap2\n      pop\n      pop\n      jump\t// out\n        /* \"#utility.yul\":14:562   */\n    tag_19:\n        /* \"#utility.yul\":126:130   */\n      0x00\n        /* \"#utility.yul\":155:157   */\n      0x20\n        /* \"#utility.yul\":184:186   */\n      dup1\n        /* \"#utility.yul\":173:182   */\n      dup4\n        /* \"#utility.yul\":166:187   */\n      mstore\n        /* \"#utility.yul\":216:222   */\n      dup4\n        /* \"#utility.yul\":210:223   */\n      mload\n        /* \"#utility.yul\":259:265   */\n      dup1\n        /* \"#utility.yul\":254:256   */\n      dup3\n        /* \"#utility.yul\":243:252   */\n      dup6\n        /* \"#utility.yul\":239:257   */\n      add\n        /* \"#utility.yul\":232:266   */\n      mstore\n        /* \"#utility.yul\":284:285   */\n      0x00\n        /* \"#utility.yul\":294:434   */\n    tag_112:\n        /* \"#utility.yul\":308:314   */\n      dup2\n        /* \"#utility.yul\":305:306   */\n      dup2\n        /* \"#utility.yul\":302:315   */\n      lt\n        /* \"#utility.yul\":294:434   */\n      iszero\n      tag_114\n      jumpi\n        /* \"#utility.yul\":403:417   */\n      dup6\n      dup2\n      add\n        /* \"#utility.yul\":399:422   */\n      dup4\n      add\n        /* \"#utility.yul\":393:423   */\n      mload\n        /* \"#utility.yul\":369:386   */\n      dup6\n      dup3\n      add\n        /* \"#utility.yul\":388:390   */\n      0x40\n        /* \"#utility.yul\":365:391   */\n      add\n        /* \"#utility.yul\":358:424   */\n      mstore\n        /* \"#utility.yul\":323:333   */\n      dup3\n      add\n        /* \"#utility.yul\":294:434   */\n      jump(tag_112)\n    tag_114:\n        /* \"#utility.yul\":298:301   */\n      pop\n        /* \"#utility.yul\":483:484   */\n      0x00\n        /* \"#utility.yul\":478:480   */\n      0x40\n        /* \"#utility.yul\":469:475   */\n      dup3\n        /* \"#utility.yul\":458:467   */\n      dup7\n        /* \"#utility.yul\":454:476   */\n      add\n        /* \"#utility.yul\":450:481   */\n      add\n        /* \"#utility.yul\":443:485   */\n      mstore\n        /* \"#utility.yul\":553:555   */\n      0x40\n        /* \"#utility.yul\":546:548   */\n      0x1f\n        /* \"#utility.yul\":542:549   */\n      not\n        /* \"#utility.yul\":537:539   */\n      0x1f\n        /* \"#utility.yul\":529:535   */\n      dup4\n        /* \"#utility.yul\":525:540   */\n      add\n        /* \"#utility.yul\":521:550   */\n      and\n        /* \"#utility.yul\":510:519   */\n      dup6\n        /* \"#utility.yul\":506:551   */\n      add\n        /* \"#utility.yul\":502:556   */\n      add\n        /* \"#utility.yul\":494:556   */\n      swap3\n      pop\n      pop\n      pop\n        /* \"#utility.yul\":14:562   */\n      swap3\n      swap2\n      pop\n      pop\n      jump\t// out\n        /* \"#utility.yul\":938:1111   */\n    tag_108:\n        /* \"#utility.yul\":1006:1026   */\n      dup1\n      calldataload\n      sub(shl(0xa0, 0x01), 0x01)\n        /* \"#utility.yul\":1055:1086   */\n      dup2\n      and\n        /* \"#utility.yul\":1045:1087   */\n      dup2\n      eq\n        /* \"#utility.yul\":1035:1105   */\n      tag_118\n      jumpi\n        /* \"#utility.yul\":1101:1102   */\n      0x00\n        /* \"#utility.yul\":1098:1099   */\n      dup1\n        /* \"#utility.yul\":1091:1103   */\n      revert\n        /* \"#utility.yul\":1035:1105   */\n    tag_118:\n        /* \"#utility.yul\":938:1111   */\n      swap2\n      swap1\n      pop\n      jump\t// out\n        /* \"#utility.yul\":1116:1370   */\n    tag_30:\n        /* \"#utility.yul\":1184:1190   */\n      0x00\n        /* \"#utility.yul\":1192:1198   */\n      dup1\n        /* \"#utility.yul\":1245:1247   */\n      0x40\n        /* \"#utility.yul\":1233:1242   */\n      dup4\n        /* \"#utility.yul\":1224:1231   */\n      dup6\n        /* \"#utility.yul\":1220:1243   */\n      sub\n        /* \"#utility.yul\":1216:1248   */\n      slt\n        /* \"#utility.yul\":1213:1265   */\n      iszero\n      tag_120\n      jumpi\n        /* \"#utility.yul\":1261:1262   */\n      0x00\n        /* \"#utility.yul\":1258:1259   */\n      dup1\n        /* \"#utility.yul\":1251:1263   */\n      revert\n        /* \"#utility.yul\":1213:1265   */\n    tag_120:\n        /* \"#utility.yul\":1284:1313   */\n      tag_121\n        /* \"#utility.yul\":1303:1312   */\n      dup4\n        /* \"#utility.yul\":1284:1313   */\n      tag_108\n      jump\t// in\n    tag_121:\n        /* \"#utility.yul\":1274:1313   */\n      swap5\n        /* \"#utility.yul\":1360:1362   */\n      0x20\n        /* \"#utility.yul\":1345:1363   */\n      swap4\n      swap1\n      swap4\n      add\n        /* \"#utility.yul\":1332:1364   */\n      calldataload\n      swap4\n      pop\n      pop\n      pop\n        /* \"#utility.yul\":1116:1370   */\n      jump\t// out\n        /* \"#utility.yul\":1375:1561   */\n    tag_34:\n        /* \"#utility.yul\":1434:1440   */\n      0x00\n        /* \"#utility.yul\":1487:1489   */\n      0x20\n        /* \"#utility.yul\":1475:1484   */\n      dup3\n        /* \"#utility.yul\":1466:1473   */\n      dup5\n        /* \"#utility.yul\":1462:1485   */\n      sub\n        /* \"#utility.yul\":1458:1490   */\n      slt\n        /* \"#utility.yul\":1455:1507   */\n      iszero\n      tag_123\n      jumpi\n        /* \"#utility.yul\":1503:1504   */\n      0x00\n        /* \"#utility.yul\":1500:1501   */\n      dup1\n        /* \"#utility.yul\":1493:1505   */\n      revert\n        /* \"#utility.yul\":1455:1507   */\n    tag_123:\n        /* \"#utility.yul\":1526:1555   */\n      tag_124\n        /* \"#utility.yul\":1545:1554   */\n      dup3\n        /* \"#utility.yul\":1526:1555   */\n      tag_108\n      jump\t// in\n    tag_124:\n        /* \"#utility.yul\":1516:1555   */\n      swap4\n        /* \"#utility.yul\":1375:1561   */\n      swap3\n      pop\n      pop\n      pop\n      jump\t// out\n        /* \"#utility.yul\":1966:2226   */\n    tag_57:\n        /* \"#utility.yul\":2034:2040   */\n      0x00\n        /* \"#utility.yul\":2042:2048   */\n      dup1\n        /* \"#utility.yul\":2095:2097   */\n      0x40\n        /* \"#utility.yul\":2083:2092   */\n      dup4\n        /* \"#utility.yul\":2074:2081   */\n      dup6\n        /* \"#utility.yul\":2070:2093   */\n      sub\n        /* \"#utility.yul\":2066:2098   */\n      slt\n        /* \"#utility.yul\":2063:2115   */\n      iszero\n      tag_128\n      jumpi\n        /* \"#utility.yul\":2111:2112   */\n      0x00\n        /* \"#utility.yul\":2108:2109   */\n      dup1\n        /* \"#utility.yul\":2101:2113   */\n      revert\n        /* \"#utility.yul\":2063:2115   */\n    tag_128:\n        /* \"#utility.yul\":2134:2163   */\n      tag_129\n        /* \"#utility.yul\":2153:2162   */\n      dup4\n        /* \"#utility.yul\":2134:2163   */\n      tag_108\n      jump\t// in\n    tag_129:\n        /* \"#utility.yul\":2124:2163   */\n      swap2\n      pop\n        /* \"#utility.yul\":2182:2220   */\n      tag_130\n        /* \"#utility.yul\":2216:2218   */\n      0x20\n        /* \"#utility.yul\":2205:2214   */\n      dup5\n        /* \"#utility.yul\":2201:2219   */\n      add\n        /* \"#utility.yul\":2182:2220   */\n      tag_108\n      jump\t// in\n    tag_130:\n        /* \"#utility.yul\":2172:2220   */\n      swap1\n      pop\n        /* \"#utility.yul\":1966:2226   */\n      swap3\n      pop\n      swap3\n      swap1\n      pop\n      jump\t// out\n        /* \"#utility.yul\":2231:2611   */\n    tag_65:\n        /* \"#utility.yul\":2310:2311   */\n      0x01\n        /* \"#utility.yul\":2306:2318   */\n      dup2\n      dup2\n      shr\n      swap1\n        /* \"#utility.yul\":2353:2365   */\n      dup3\n      and\n      dup1\n        /* \"#utility.yul\":2374:2435   */\n      tag_132\n      jumpi\n        /* \"#utility.yul\":2428:2432   */\n      0x7f\n        /* \"#utility.yul\":2420:2426   */\n      dup3\n        /* \"#utility.yul\":2416:2433   */\n      and\n        /* \"#utility.yul\":2406:2433   */\n      swap2\n      pop\n        /* \"#utility.yul\":2374:2435   */\n    tag_132:\n        /* \"#utility.yul\":2481:2483   */\n      0x20\n        /* \"#utility.yul\":2473:2479   */\n      dup3\n        /* \"#utility.yul\":2470:2484   */\n      lt\n        /* \"#utility.yul\":2450:2468   */\n      dup2\n        /* \"#utility.yul\":2447:2485   */\n      sub\n        /* \"#utility.yul\":2444:2605   */\n      tag_133\n      jumpi\n        /* \"#utility.yul\":2527:2537   */\n      0x4e487b71\n        /* \"#utility.yul\":2522:2525   */\n      0xe0\n        /* \"#utility.yul\":2518:2538   */\n      shl\n        /* \"#utility.yul\":2515:2516   */\n      0x00\n        /* \"#utility.yul\":2508:2539   */\n      mstore\n        /* \"#utility.yul\":2562:2566   */\n      0x22\n        /* \"#utility.yul\":2559:2560   */\n      0x04\n        /* \"#utility.yul\":2552:2567   */\n      mstore\n        /* \"#utility.yul\":2590:2594   */\n      0x24\n        /* \"#utility.yul\":2587:2588   */\n      0x00\n        /* \"#utility.yul\":2580:2595   */\n      revert\n        /* \"#utility.yul\":2444:2605   */\n    tag_133:\n      pop\n        /* \"#utility.yul\":2231:2611   */\n      swap2\n      swap1\n      pop\n      jump\t// out\n        /* \"#utility.yul\":2955:3082   */\n    tag_109:\n        /* \"#utility.yul\":3016:3026   */\n      0x4e487b71\n        /* \"#utility.yul\":3011:3014   */\n      0xe0\n        /* \"#utility.yul\":3007:3027   */\n      shl\n        /* \"#utility.yul\":3004:3005   */\n      0x00\n        /* \"#utility.yul\":2997:3028   */\n      mstore\n        /* \"#utility.yul\":3047:3051   */\n      0x11\n        /* \"#utility.yul\":3044:3045   */\n      0x04\n        /* \"#utility.yul\":3037:3052   */\n      mstore\n        /* \"#utility.yul\":3071:3075   */\n      0x24\n        /* \"#utility.yul\":3068:3069   */\n      0x00\n        /* \"#utility.yul\":3061:3076   */\n      revert\n        /* \"#utility.yul\":3087:3212   */\n    tag_77:\n        /* \"#utility.yul\":3152:3161   */\n      dup1\n      dup3\n      add\n        /* \"#utility.yul\":3173:3183   */\n      dup1\n      dup3\n      gt\n        /* \"#utility.yul\":3170:3206   */\n      iszero\n      tag_102\n      jumpi\n        /* \"#utility.yul\":3186:3204   */\n      tag_102\n      tag_109\n      jump\t// in\n        /* \"#utility.yul\":3903:4031   */\n    tag_99:\n        /* \"#utility.yul\":3970:3979   */\n      dup2\n      dup2\n      sub\n        /* \"#utility.yul\":3991:4002   */\n      dup2\n      dup2\n      gt\n        /* \"#utility.yul\":3988:4025   */\n      iszero\n      tag_102\n      jumpi\n        /* \"#utility.yul\":4005:4023   */\n      tag_102\n      tag_109\n      jump\t// in\n\n    auxdata: 0xa2646970667358221220bed4ddc8bd2afb9d2cd2846e103a0413f2b63c125fe5dbf2599fbdc73f358efd64736f6c63430008140033\n}\n",
				"bytecode": {
					"linkReferences": {},
					"object": "60c0604052601760809081527f55676c7920556e69636f726e732044414f20546f6b656e00000000000000000060a0525f9061003b908261014c565b5060408051808201909152600681526555474c59444f60d01b6020820152600190610066908261014c565b506002805460ff1916601217905534801561007f575f80fd5b50600780546001600160a01b031916339081179091555f908152600660205260409020805460ff19166001179055610207565b634e487b7160e01b5f52604160045260245ffd5b600181811c908216806100da57607f821691505b6020821081036100f857634e487b7160e01b5f52602260045260245ffd5b50919050565b601f821115610147575f81815260208120601f850160051c810160208610156101245750805b601f850160051c820191505b8181101561014357828155600101610130565b5050505b505050565b81516001600160401b03811115610165576101656100b2565b6101798161017384546100c6565b846100fe565b602080601f8311600181146101ac575f84156101955750858301515b5f19600386901b1c1916600185901b178555610143565b5f85815260208120601f198616915b828110156101da578886015182559484019460019091019084016101bb565b50858210156101f757878501515f19600388901b60f8161c191681555b5050505050600190811b01905550565b6107a4806102145f395ff3fe608060405234801561000f575f80fd5b50600436106100b1575f3560e01c806395d89b411161006e57806395d89b4114610168578063983b2d56146101705780639dc29fac14610183578063a9059cbb14610196578063dd62ed3e146101b9578063f46eccc4146101e3575f80fd5b806306fdde03146100b557806318160ddd146100d3578063313ce567146100ea57806340c10f191461010957806370a082311461011e5780638da5cb5b1461013d575b5f80fd5b6100bd610205565b6040516100ca919061061d565b60405180910390f35b6100dc60035481565b6040519081526020016100ca565b6002546100f79060ff1681565b60405160ff90911681526020016100ca565b61011c610117366004610683565b610290565b005b6100dc61012c3660046106ab565b60046020525f908152604090205481565b600754610150906001600160a01b031681565b6040516001600160a01b0390911681526020016100ca565b6100bd61037c565b61011c61017e3660046106ab565b610389565b61011c610191366004610683565b6103f2565b6101a96101a4366004610683565b61052f565b60405190151581526020016100ca565b6100dc6101c73660046106cb565b600560209081525f928352604080842090915290825290205481565b6101a96101f13660046106ab565b60066020525f908152604090205460ff1681565b5f8054610211906106fc565b80601f016020809104026020016040519081016040528092919081815260200182805461023d906106fc565b80156102885780601f1061025f57610100808354040283529160200191610288565b820191905f5260205f20905b81548152906001019060200180831161026b57829003601f168201915b505050505081565b335f9081526006602052604090205460ff16806102b757506007546001600160a01b031633145b6102f55760405162461bcd60e51b815260206004820152600a6024820152692737ba1036b4b73a32b960b11b60448201526064015b60405180910390fd5b8060035f8282546103069190610748565b90915550506001600160a01b0382165f9081526004602052604081208054839290610332908490610748565b90915550506040518181526001600160a01b038316905f907fddf252ad1be2c89b69c2b068fc378daa952ba7f163c4a11628f55a4df523b3ef906020015b60405180910390a35050565b60018054610211906106fc565b6007546001600160a01b031633146103cf5760405162461bcd60e51b81526020600482015260096024820152682737ba1037bbb732b960b91b60448201526064016102ec565b6001600160a01b03165f908152600660205260409020805460ff19166001179055565b335f9081526006602052604090205460ff168061041957506007546001600160a01b031633145b6104525760405162461bcd60e51b815260206004820152600a6024820152692737ba1036b4b73a32b960b11b60448201526064016102ec565b6001600160a01b0382165f908152600460205260409020548111156104b05760405162461bcd60e51b8152602060048201526014602482015273496e73756666696369656e742062616c616e636560601b60448201526064016102ec565b8060035f8282546104c1919061075b565b90915550506001600160a01b0382165f90815260046020526040812080548392906104ed90849061075b565b90915550506040518181525f906001600160a01b038416907fddf252ad1be2c89b69c2b068fc378daa952ba7f163c4a11628f55a4df523b3ef90602001610370565b335f908152600460205260408120548211156105845760405162461bcd60e51b8152602060048201526014602482015273496e73756666696369656e742062616c616e636560601b60448201526064016102ec565b335f90815260046020526040812080548492906105a290849061075b565b90915550506001600160a01b0383165f90815260046020526040812080548492906105ce908490610748565b90915550506040518281526001600160a01b0384169033907fddf252ad1be2c89b69c2b068fc378daa952ba7f163c4a11628f55a4df523b3ef9060200160405180910390a35060015b92915050565b5f6020808352835180828501525f5b818110156106485785810183015185820160400152820161062c565b505f604082860101526040601f19601f8301168501019250505092915050565b80356001600160a01b038116811461067e575f80fd5b919050565b5f8060408385031215610694575f80fd5b61069d83610668565b946020939093013593505050565b5f602082840312156106bb575f80fd5b6106c482610668565b9392505050565b5f80604083850312156106dc575f80fd5b6106e583610668565b91506106f360208401610668565b90509250929050565b600181811c9082168061071057607f821691505b60208210810361072e57634e487b7160e01b5f52602260045260245ffd5b50919050565b634e487b7160e01b5f52601160045260245ffd5b8082018082111561061757610617610734565b818103818111156106175761061761073456fea2646970667358221220bed4ddc8bd2afb9d2cd2846e103a0413f2b63c125fe5dbf2599fbdc73f358efd64736f6c63430008140033",
					"opcodes": "PUSH1 0xC0 PUSH1 0x40 MSTORE PUSH1 0x17 PUSH1 0x80 SWAP1 DUP2 MSTORE PUSH32 0x55676C7920556E69636F726E732044414F20546F6B656E000000000000000000 PUSH1 0xA0 MSTORE PUSH0 SWAP1 PUSH2 0x3B SWAP1 DUP3 PUSH2 0x14C JUMP JUMPDEST POP PUSH1 0x40 DUP1 MLOAD DUP1 DUP3 ADD SWAP1 SWAP2 MSTORE PUSH1 0x6 DUP2 MSTORE PUSH6 0x55474C59444F PUSH1 0xD0 SHL PUSH1 0x20 DUP3 ADD MSTORE PUSH1 0x1 SWAP1 PUSH2 0x66 SWAP1 DUP3 PUSH2 0x14C JUMP JUMPDEST POP PUSH1 0x2 DUP1 SLOAD PUSH1 0xFF NOT AND PUSH1 0x12 OR SWAP1 SSTORE CALLVALUE DUP1 ISZERO PUSH2 0x7F JUMPI PUSH0 DUP1 REVERT JUMPDEST POP PUSH1 0x7 DUP1 SLOAD PUSH1 0x1 PUSH1 0x1 PUSH1 0xA0 SHL SUB NOT AND CALLER SWAP1 DUP2 OR SWAP1 SWAP2 SSTORE PUSH0 SWAP1 DUP2 MSTORE PUSH1 0x6 PUSH1 0x20 MSTORE PUSH1 0x40 SWAP1 KECCAK256 DUP1 SLOAD PUSH1 0xFF NOT AND PUSH1 0x1 OR SWAP1 SSTORE PUSH2 0x207 JUMP JUMPDEST PUSH4 0x4E487B71 PUSH1 0xE0 SHL PUSH0 MSTORE PUSH1 0x41 PUSH1 0x4 MSTORE PUSH1 0x24 PUSH0 REVERT JUMPDEST PUSH1 0x1 DUP2 DUP2 SHR SWAP1 DUP3 AND DUP1 PUSH2 0xDA JUMPI PUSH1 0x7F DUP3 AND SWAP2 POP JUMPDEST PUSH1 0x20 DUP3 LT DUP2 SUB PUSH2 0xF8 JUMPI PUSH4 0x4E487B71 PUSH1 0xE0 SHL PUSH0 MSTORE PUSH1 0x22 PUSH1 0x4 MSTORE PUSH1 0x24 PUSH0 REVERT JUMPDEST POP SWAP2 SWAP1 POP JUMP JUMPDEST PUSH1 0x1F DUP3 GT ISZERO PUSH2 0x147 JUMPI PUSH0 DUP2 DUP2 MSTORE PUSH1 0x20 DUP2 KECCAK256 PUSH1 0x1F DUP6 ADD PUSH1 0x5 SHR DUP2 ADD PUSH1 0x20 DUP7 LT ISZERO PUSH2 0x124 JUMPI POP DUP1 JUMPDEST PUSH1 0x1F DUP6 ADD PUSH1 0x5 SHR DUP3 ADD SWAP2 POP JUMPDEST DUP2 DUP2 LT ISZERO PUSH2 0x143 JUMPI DUP3 DUP2 SSTORE PUSH1 0x1 ADD PUSH2 0x130 JUMP JUMPDEST POP POP POP JUMPDEST POP POP POP JUMP JUMPDEST DUP2 MLOAD PUSH1 0x1 PUSH1 0x1 PUSH1 0x40 SHL SUB DUP2 GT ISZERO PUSH2 0x165 JUMPI PUSH2 0x165 PUSH2 0xB2 JUMP JUMPDEST PUSH2 0x179 DUP2 PUSH2 0x173 DUP5 SLOAD PUSH2 0xC6 JUMP JUMPDEST DUP5 PUSH2 0xFE JUMP JUMPDEST PUSH1 0x20 DUP1 PUSH1 0x1F DUP4 GT PUSH1 0x1 DUP2 EQ PUSH2 0x1AC JUMPI PUSH0 DUP5 ISZERO PUSH2 0x195 JUMPI POP DUP6 DUP4 ADD MLOAD JUMPDEST PUSH0 NOT PUSH1 0x3 DUP7 SWAP1 SHL SHR NOT AND PUSH1 0x1 DUP6 SWAP1 SHL OR DUP6 SSTORE PUSH2 0x143 JUMP JUMPDEST PUSH0 DUP6 DUP2 MSTORE PUSH1 0x20 DUP2 KECCAK256 PUSH1 0x1F NOT DUP7 AND SWAP2 JUMPDEST DUP3 DUP2 LT ISZERO PUSH2 0x1DA JUMPI DUP9 DUP7 ADD MLOAD DUP3 SSTORE SWAP5 DUP5 ADD SWAP5 PUSH1 0x1 SWAP1 SWAP2 ADD SWAP1 DUP5 ADD PUSH2 0x1BB JUMP JUMPDEST POP DUP6 DUP3 LT ISZERO PUSH2 0x1F7 JUMPI DUP8 DUP6 ADD MLOAD PUSH0 NOT PUSH1 0x3 DUP9 SWAP1 SHL PUSH1 0xF8 AND SHR NOT AND DUP2 SSTORE JUMPDEST POP POP POP POP POP PUSH1 0x1 SWAP1 DUP2 SHL ADD SWAP1 SSTORE POP JUMP JUMPDEST PUSH2 0x7A4 DUP1 PUSH2 0x214 PUSH0 CODECOPY PUSH0 RETURN INVALID PUSH1 0x80 PUSH1 0x40 MSTORE CALLVALUE DUP1 ISZERO PUSH2 0xF JUMPI PUSH0 DUP1 REVERT JUMPDEST POP PUSH1 0x4 CALLDATASIZE LT PUSH2 0xB1 JUMPI PUSH0 CALLDATALOAD PUSH1 0xE0 SHR DUP1 PUSH4 0x95D89B41 GT PUSH2 0x6E JUMPI DUP1 PUSH4 0x95D89B41 EQ PUSH2 0x168 JUMPI DUP1 PUSH4 0x983B2D56 EQ PUSH2 0x170 JUMPI DUP1 PUSH4 0x9DC29FAC EQ PUSH2 0x183 JUMPI DUP1 PUSH4 0xA9059CBB EQ PUSH2 0x196 JUMPI DUP1 PUSH4 0xDD62ED3E EQ PUSH2 0x1B9 JUMPI DUP1 PUSH4 0xF46ECCC4 EQ PUSH2 0x1E3 JUMPI PUSH0 DUP1 REVERT JUMPDEST DUP1 PUSH4 0x6FDDE03 EQ PUSH2 0xB5 JUMPI DUP1 PUSH4 0x18160DDD EQ PUSH2 0xD3 JUMPI DUP1 PUSH4 0x313CE567 EQ PUSH2 0xEA JUMPI DUP1 PUSH4 0x40C10F19 EQ PUSH2 0x109 JUMPI DUP1 PUSH4 0x70A08231 EQ PUSH2 0x11E JUMPI DUP1 PUSH4 0x8DA5CB5B EQ PUSH2 0x13D JUMPI JUMPDEST PUSH0 DUP1 REVERT JUMPDEST PUSH2 0xBD PUSH2 0x205 JUMP JUMPDEST PUSH1 0x40 MLOAD PUSH2 0xCA SWAP2 SWAP1 PUSH2 0x61D JUMP JUMPDEST PUSH1 0x40 MLOAD DUP1 SWAP2 SUB SWAP1 RETURN JUMPDEST PUSH2 0xDC PUSH1 0x3 SLOAD DUP2 JUMP JUMPDEST PUSH1 0x40 MLOAD SWAP1 DUP2 MSTORE PUSH1 0x20 ADD PUSH2 0xCA JUMP JUMPDEST PUSH1 0x2 SLOAD PUSH2 0xF7 SWAP1 PUSH1 0xFF AND DUP2 JUMP JUMPDEST PUSH1 0x40 MLOAD PUSH1 0xFF SWAP1 SWAP2 AND DUP2 MSTORE PUSH1 0x20 ADD PUSH2 0xCA JUMP JUMPDEST PUSH2 0x11C PUSH2 0x117 CALLDATASIZE PUSH1 0x4 PUSH2 0x683 JUMP JUMPDEST PUSH2 0x290 JUMP JUMPDEST STOP JUMPDEST PUSH2 0xDC PUSH2 0x12C CALLDATASIZE PUSH1 0x4 PUSH2 0x6AB JUMP JUMPDEST PUSH1 0x4 PUSH1 0x20 MSTORE PUSH0 SWAP1 DUP2 MSTORE PUSH1 0x40 SWAP1 KECCAK256 SLOAD DUP2 JUMP JUMPDEST PUSH1 0x7 SLOAD PUSH2 0x150 SWAP1 PUSH1 0x1 PUSH1 0x1 PUSH1 0xA0 SHL SUB AND DUP2 JUMP JUMPDEST PUSH1 0x40 MLOAD PUSH1 0x1 PUSH1 0x1 PUSH1 0xA0 SHL SUB SWAP1 SWAP2 AND DUP2 MSTORE PUSH1 0x20 ADD PUSH2 0xCA JUMP JUMPDEST PUSH2 0xBD PUSH2 0x37C JUMP JUMPDEST PUSH2 0x11C PUSH2 0x17E CALLDATASIZE PUSH1 0x4 PUSH2 0x6AB JUMP JUMPDEST PUSH2 0x389 JUMP JUMPDEST PUSH2 0x11C PUSH2 0x191 CALLDATASIZE PUSH1 0x4 PUSH2 0x683 JUMP JUMPDEST PUSH2 0x3F2 JUMP JUMPDEST PUSH2 0x1A9 PUSH2 0x1A4 CALLDATASIZE PUSH1 0x4 PUSH2 0x683 JUMP JUMPDEST PUSH2 0x52F JUMP JUMPDEST PUSH1 0x40 MLOAD SWAP1 ISZERO ISZERO DUP2 MSTORE PUSH1 0x20 ADD PUSH2 0xCA JUMP JUMPDEST PUSH2 0xDC PUSH2 0x1C7 CALLDATASIZE PUSH1 0x4 PUSH2 0x6CB JUMP JUMPDEST PUSH1 0x5 PUSH1 0x20 SWAP1 DUP2 MSTORE PUSH0 SWAP3 DUP4 MSTORE PUSH1 0x40 DUP1 DUP5 KECCAK256 SWAP1 SWAP2 MSTORE SWAP1 DUP3 MSTORE SWAP1 KECCAK256 SLOAD DUP2 JUMP JUMPDEST PUSH2 0x1A9 PUSH2 0x1F1 CALLDATASIZE PUSH1 0x4 PUSH2 0x6AB JUMP JUMPDEST PUSH1 0x6 PUSH1 0x20 MSTORE PUSH0 SWAP1 DUP2 MSTORE PUSH1 0x40 SWAP1 KECCAK256 SLOAD PUSH1 0xFF AND DUP2 JUMP JUMPDEST PUSH0 DUP1 SLOAD PUSH2 0x211 SWAP1 PUSH2 0x6FC JUMP JUMPDEST DUP1 PUSH1 0x1F ADD PUSH1 0x20 DUP1 SWAP2 DIV MUL PUSH1 0x20 ADD PUSH1 0x40 MLOAD SWAP1 DUP2 ADD PUSH1 0x40 MSTORE DUP1 SWAP3 SWAP2 SWAP1 DUP2 DUP2 MSTORE PUSH1 0x20 ADD DUP3 DUP1 SLOAD PUSH2 0x23D SWAP1 PUSH2 0x6FC JUMP JUMPDEST DUP1 ISZERO PUSH2 0x288 JUMPI DUP1 PUSH1 0x1F LT PUSH2 0x25F JUMPI PUSH2 0x100 DUP1 DUP4 SLOAD DIV MUL DUP4 MSTORE SWAP2 PUSH1 0x20 ADD SWAP2 PUSH2 0x288 JUMP JUMPDEST DUP3 ADD SWAP2 SWAP1 PUSH0 MSTORE PUSH1 0x20 PUSH0 KECCAK256 SWAP1 JUMPDEST DUP2 SLOAD DUP2 MSTORE SWAP1 PUSH1 0x1 ADD SWAP1 PUSH1 0x20 ADD DUP1 DUP4 GT PUSH2 0x26B JUMPI DUP3 SWAP1 SUB PUSH1 0x1F AND DUP3 ADD SWAP2 JUMPDEST POP POP POP POP POP DUP2 JUMP JUMPDEST CALLER PUSH0 SWAP1 DUP2 MSTORE PUSH1 0x6 PUSH1 0x20 MSTORE PUSH1 0x40 SWAP1 KECCAK256 SLOAD PUSH1 0xFF AND DUP1 PUSH2 0x2B7 JUMPI POP PUSH1 0x7 SLOAD PUSH1 0x1 PUSH1 0x1 PUSH1 0xA0 SHL SUB AND CALLER EQ JUMPDEST PUSH2 0x2F5 JUMPI PUSH1 0x40 MLOAD PUSH3 0x461BCD PUSH1 0xE5 SHL DUP2 MSTORE PUSH1 0x20 PUSH1 0x4 DUP3 ADD MSTORE PUSH1 0xA PUSH1 0x24 DUP3 ADD MSTORE PUSH10 0x2737BA1036B4B73A32B9 PUSH1 0xB1 SHL PUSH1 0x44 DUP3 ADD MSTORE PUSH1 0x64 ADD JUMPDEST PUSH1 0x40 MLOAD DUP1 SWAP2 SUB SWAP1 REVERT JUMPDEST DUP1 PUSH1 0x3 PUSH0 DUP3 DUP3 SLOAD PUSH2 0x306 SWAP2 SWAP1 PUSH2 0x748 JUMP JUMPDEST SWAP1 SWAP2 SSTORE POP POP PUSH1 0x1 PUSH1 0x1 PUSH1 0xA0 SHL SUB DUP3 AND PUSH0 SWAP1 DUP2 MSTORE PUSH1 0x4 PUSH1 0x20 MSTORE PUSH1 0x40 DUP2 KECCAK256 DUP1 SLOAD DUP4 SWAP3 SWAP1 PUSH2 0x332 SWAP1 DUP5 SWAP1 PUSH2 0x748 JUMP JUMPDEST SWAP1 SWAP2 SSTORE POP POP PUSH1 0x40 MLOAD DUP2 DUP2 MSTORE PUSH1 0x1 PUSH1 0x1 PUSH1 0xA0 SHL SUB DUP4 AND SWAP1 PUSH0 SWAP1 PUSH32 0xDDF252AD1BE2C89B69C2B068FC378DAA952BA7F163C4A11628F55A4DF523B3EF SWAP1 PUSH1 0x20 ADD JUMPDEST PUSH1 0x40 MLOAD DUP1 SWAP2 SUB SWAP1 LOG3 POP POP JUMP JUMPDEST PUSH1 0x1 DUP1 SLOAD PUSH2 0x211 SWAP1 PUSH2 0x6FC JUMP JUMPDEST PUSH1 0x7 SLOAD PUSH1 0x1 PUSH1 0x1 PUSH1 0xA0 SHL SUB AND CALLER EQ PUSH2 0x3CF JUMPI PUSH1 0x40 MLOAD PUSH3 0x461BCD PUSH1 0xE5 SHL DUP2 MSTORE PUSH1 0x20 PUSH1 0x4 DUP3 ADD MSTORE PUSH1 0x9 PUSH1 0x24 DUP3 ADD MSTORE PUSH9 0x2737BA1037BBB732B9 PUSH1 0xB9 SHL PUSH1 0x44 DUP3 ADD MSTORE PUSH1 0x64 ADD PUSH2 0x2EC JUMP JUMPDEST PUSH1 0x1 PUSH1 0x1 PUSH1 0xA0 SHL SUB AND PUSH0 SWAP1 DUP2 MSTORE PUSH1 0x6 PUSH1 0x20 MSTORE PUSH1 0x40 SWAP1 KECCAK256 DUP1 SLOAD PUSH1 0xFF NOT AND PUSH1 0x1 OR SWAP1 SSTORE JUMP JUMPDEST CALLER PUSH0 SWAP1 DUP2 MSTORE PUSH1 0x6 PUSH1 0x20 MSTORE PUSH1 0x40 SWAP1 KECCAK256 SLOAD PUSH1 0xFF AND DUP1 PUSH2 0x419 JUMPI POP PUSH1 0x7 SLOAD PUSH1 0x1 PUSH1 0x1 PUSH1 0xA0 SHL SUB AND CALLER EQ JUMPDEST PUSH2 0x452 JUMPI PUSH1 0x40 MLOAD PUSH3 0x461BCD PUSH1 0xE5 SHL DUP2 MSTORE PUSH1 0x20 PUSH1 0x4 DUP3 ADD MSTORE PUSH1 0xA PUSH1 0x24 DUP3 ADD MSTORE PUSH10 0x2737BA1036B4B73A32B9 PUSH1 0xB1 SHL PUSH1 0x44 DUP3 ADD MSTORE PUSH1 0x64 ADD PUSH2 0x2EC JUMP JUMPDEST PUSH1 0x1 PUSH1 0x1 PUSH1 0xA0 SHL SUB DUP3 AND PUSH0 SWAP1 DUP2 MSTORE PUSH1 0x4 PUSH1 0x20 MSTORE PUSH1 0x40 SWAP1 KECCAK256 SLOAD DUP2 GT ISZERO PUSH2 0x4B0 JUMPI PUSH1 0x40 MLOAD PUSH3 0x461BCD PUSH1 0xE5 SHL DUP2 MSTORE PUSH1 0x20 PUSH1 0x4 DUP3 ADD MSTORE PUSH1 0x14 PUSH1 0x24 DUP3 ADD MSTORE PUSH20 0x496E73756666696369656E742062616C616E6365 PUSH1 0x60 SHL PUSH1 0x44 DUP3 ADD MSTORE PUSH1 0x64 ADD PUSH2 0x2EC JUMP JUMPDEST DUP1 PUSH1 0x3 PUSH0 DUP3 DUP3 SLOAD PUSH2 0x4C1 SWAP2 SWAP1 PUSH2 0x75B JUMP JUMPDEST SWAP1 SWAP2 SSTORE POP POP PUSH1 0x1 PUSH1 0x1 PUSH1 0xA0 SHL SUB DUP3 AND PUSH0 SWAP1 DUP2 MSTORE PUSH1 0x4 PUSH1 0x20 MSTORE PUSH1 0x40 DUP2 KECCAK256 DUP1 SLOAD DUP4 SWAP3 SWAP1 PUSH2 0x4ED SWAP1 DUP5 SWAP1 PUSH2 0x75B JUMP JUMPDEST SWAP1 SWAP2 SSTORE POP POP PUSH1 0x40 MLOAD DUP2 DUP2 MSTORE PUSH0 SWAP1 PUSH1 0x1 PUSH1 0x1 PUSH1 0xA0 SHL SUB DUP5 AND SWAP1 PUSH32 0xDDF252AD1BE2C89B69C2B068FC378DAA952BA7F163C4A11628F55A4DF523B3EF SWAP1 PUSH1 0x20 ADD PUSH2 0x370 JUMP JUMPDEST CALLER PUSH0 SWAP1 DUP2 MSTORE PUSH1 0x4 PUSH1 0x20 MSTORE PUSH1 0x40 DUP2 KECCAK256 SLOAD DUP3 GT ISZERO PUSH2 0x584 JUMPI PUSH1 0x40 MLOAD PUSH3 0x461BCD PUSH1 0xE5 SHL DUP2 MSTORE PUSH1 0x20 PUSH1 0x4 DUP3 ADD MSTORE PUSH1 0x14 PUSH1 0x24 DUP3 ADD MSTORE PUSH20 0x496E73756666696369656E742062616C616E6365 PUSH1 0x60 SHL PUSH1 0x44 DUP3 ADD MSTORE PUSH1 0x64 ADD PUSH2 0x2EC JUMP JUMPDEST CALLER PUSH0 SWAP1 DUP2 MSTORE PUSH1 0x4 PUSH1 0x20 MSTORE PUSH1 0x40 DUP2 KECCAK256 DUP1 SLOAD DUP5 SWAP3 SWAP1 PUSH2 0x5A2 SWAP1 DUP5 SWAP1 PUSH2 0x75B JUMP JUMPDEST SWAP1 SWAP2 SSTORE POP POP PUSH1 0x1 PUSH1 0x1 PUSH1 0xA0 SHL SUB DUP4 AND PUSH0 SWAP1 DUP2 MSTORE PUSH1 0x4 PUSH1 0x20 MSTORE PUSH1 0x40 DUP2 KECCAK256 DUP1 SLOAD DUP5 SWAP3 SWAP1 PUSH2 0x5CE SWAP1 DUP5 SWAP1 PUSH2 0x748 JUMP JUMPDEST SWAP1 SWAP2 SSTORE POP POP PUSH1 0x40 MLOAD DUP3 DUP2 MSTORE PUSH1 0x1 PUSH1 0x1 PUSH1 0xA0 SHL SUB DUP5 AND SWAP1 CALLER SWAP1 PUSH32 0xDDF252AD1BE2C89B69C2B068FC378DAA952BA7F163C4A11628F55A4DF523B3EF SWAP1 PUSH1 0x20 ADD PUSH1 0x40 MLOAD DUP1 SWAP2 SUB SWAP1 LOG3 POP PUSH1 0x1 JUMPDEST SWAP3 SWAP2 POP POP JUMP JUMPDEST PUSH0 PUSH1 0x20 DUP1 DUP4 MSTORE DUP4 MLOAD DUP1 DUP3 DUP6 ADD MSTORE PUSH0 JUMPDEST DUP2 DUP2 LT ISZERO PUSH2 0x648 JUMPI DUP6 DUP2 ADD DUP4 ADD MLOAD DUP6 DUP3 ADD PUSH1 0x40 ADD MSTORE DUP3 ADD PUSH2 0x62C JUMP JUMPDEST POP PUSH0 PUSH1 0x40 DUP3 DUP7 ADD ADD MSTORE PUSH1 0x40 PUSH1 0x1F NOT PUSH1 0x1F DUP4 ADD AND DUP6 ADD ADD SWAP3 POP POP POP SWAP3 SWAP2 POP POP JUMP JUMPDEST DUP1 CALLDATALOAD PUSH1 0x1 PUSH1 0x1 PUSH1 0xA0 SHL SUB DUP2 AND DUP2 EQ PUSH2 0x67E JUMPI PUSH0 DUP1 REVERT JUMPDEST SWAP2 SWAP1 POP JUMP JUMPDEST PUSH0 DUP1 PUSH1 0x40 DUP4 DUP6 SUB SLT ISZERO PUSH2 0x694 JUMPI PUSH0 DUP1 REVERT JUMPDEST PUSH2 0x69D DUP4 PUSH2 0x668 JUMP JUMPDEST SWAP5 PUSH1 0x20 SWAP4 SWAP1 SWAP4 ADD CALLDATALOAD SWAP4 POP POP POP JUMP JUMPDEST PUSH0 PUSH1 0x20 DUP3 DUP5 SUB SLT ISZERO PUSH2 0x6BB JUMPI PUSH0 DUP1 REVERT JUMPDEST PUSH2 0x6C4 DUP3 PUSH2 0x668 JUMP JUMPDEST SWAP4 SWAP3 POP POP POP JUMP JUMPDEST PUSH0 DUP1 PUSH1 0x40 DUP4 DUP6 SUB SLT ISZERO PUSH2 0x6DC JUMPI PUSH0 DUP1 REVERT JUMPDEST PUSH2 0x6E5 DUP4 PUSH2 0x668 JUMP JUMPDEST SWAP2 POP PUSH2 0x6F3 PUSH1 0x20 DUP5 ADD PUSH2 0x668 JUMP JUMPDEST SWAP1 POP SWAP3 POP SWAP3 SWAP1 POP JUMP JUMPDEST PUSH1 0x1 DUP2 DUP2 SHR SWAP1 DUP3 AND DUP1 PUSH2 0x710 JUMPI PUSH1 0x7F DUP3 AND SWAP2 POP JUMPDEST PUSH1 0x20 DUP3 LT DUP2 SUB PUSH2 0x72E JUMPI PUSH4 0x4E487B71 PUSH1 0xE0 SHL PUSH0 MSTORE PUSH1 0x22 PUSH1 0x4 MSTORE PUSH1 0x24 PUSH0 REVERT JUMPDEST POP SWAP2 SWAP1 POP JUMP JUMPDEST PUSH4 0x4E487B71 PUSH1 0xE0 SHL PUSH0 MSTORE PUSH1 0x11 PUSH1 0x4 MSTORE PUSH1 0x24 PUSH0 REVERT JUMPDEST DUP1 DUP3 ADD DUP1 DUP3 GT ISZERO PUSH2 0x617 JUMPI PUSH2 0x617 PUSH2 0x734 JUMP JUMPDEST DUP2 DUP2 SUB DUP2 DUP2 GT ISZERO PUSH2 0x617 JUMPI PUSH2 0x617 PUSH2 0x734 JUMP INVALID LOG2 PUSH5 0x6970667358 0x22 SLT KECCAK256 0xBE 0xD4 0xDD 0xC8 0xBD 0x2A 0xFB SWAP14 0x2C 0xD2 DUP5 PUSH15 0x103A0413F2B63C125FE5DBF2599FBD 0xC7 EXTCODEHASH CALLDATALOAD DUP15 REVERT PUSH5 0x736F6C6343 STOP ADDMOD EQ STOP CALLER "
				},
				"gasEstimates": {
					"creation": {
						"codeDepositCost": "391200",
						"executionCost": "infinite",
						"totalCost": "infinite"
					},
					"external": {
						"addMinter(address)": "26769",
						"allowance(address,address)": "infinite",
						"balanceOf(address)": "2605",
						"burn(address,uint256)": "infinite",
						"decimals()": "2357",
						"mint(address,uint256)": "infinite",
						"minters(address)": "2638",
						"name()": "infinite",
						"owner()": "2447",
						"symbol()": "infinite",
						"totalSupply()": "2317",
						"transfer(address,uint256)": "infinite"
					}
				},
				"methodIdentifiers": {
					"addMinter(address)": "983b2d56",
					"allowance(address,address)": "dd62ed3e",
					"balanceOf(address)": "70a08231",
					"burn(address,uint256)": "9dc29fac",
					"decimals()": "313ce567",
					"mint(address,uint256)": "40c10f19",
					"minters(address)": "f46eccc4",
					"name()": "06fdde03",
					"owner()": "8da5cb5b",
					"symbol()": "95d89b41",
					"totalSupply()": "18160ddd",
					"transfer(address,uint256)": "a9059cbb"
				}
			},
			"storageLayout": {
				"storage": [
					{
						"astId": 4,
						"contract": "src/UglyUnicornsGovToken.sol:SimpleGovToken",
						"label": "name",
						"offset": 0,
						"slot": "0",
						"type": "t_string_storage"
					},
					{
						"astId": 7,
						"contract": "src/UglyUnicornsGovToken.sol:SimpleGovToken",
						"label": "symbol",
						"offset": 0,
						"slot": "1",
						"type": "t_string_storage"
					},
					{
						"astId": 10,
						"contract": "src/UglyUnicornsGovToken.sol:SimpleGovToken",
						"label": "decimals",
						"offset": 0,
						"slot": "2",
						"type": "t_uint8"
					},
					{
						"astId": 12,
						"contract": "src/UglyUnicornsGovToken.sol:SimpleGovToken",
						"label": "totalSupply",
						"offset": 0,
						"slot": "3",
						"type": "t_uint256"
					},
					{
						"astId": 16,
						"contract": "src/UglyUnicornsGovToken.sol:SimpleGovToken",
						"label": "balanceOf",
						"offset": 0,
						"slot": "4",
						"type": "t_mapping(t_address,t_uint256)"
					},
					{
						"astId": 22,
						"contract": "src/UglyUnicornsGovToken.sol:SimpleGovToken",
						"label": "allowance",
						"offset": 0,
						"slot": "5",
						"type": "t_mapping(t_address,t_mapping(t_address,t_uint256))"
					},
					{
						"astId": 26,
						"contract": "src/UglyUnicornsGovToken.sol:SimpleGovToken",
						"label": "minters",
						"offset": 0,
						"slot": "6",
						"type": "t_mapping(t_address,t_bool)"
					},
					{
						"astId": 28,
						"contract": "src/UglyUnicornsGovToken.sol:SimpleGovToken",
						"label": "owner",
						"offset": 0,
						"slot": "7",
						"type": "t_address"
					}
				],
				"types": {
					"t_address": {
						"encoding": "inplace",
						"label": "address",
						"numberOfBytes": "20"
					},
					"t_bool": {
						"encoding": "inplace",
						"label": "bool",
						"numberOfBytes": "1"
					},
					"t_mapping(t_address,t_bool)": {
						"encoding": "mapping",
						"key": "t_address",
						"label": "mapping(address => bool)",
						"numberOfBytes": "32",
						"value": "t_bool"
					},
					"t_mapping(t_address,t_mapping(t_address,t_uint256))": {
						"encoding": "mapping",
						"key": "t_address",
						"label": "mapping(address => mapping(address => uint256))",
						"numberOfBytes": "32",
						"value": "t_mapping(t_address,t_uint256)"
					},
					"t_mapping(t_address,t_uint256)": {
						"encoding": "mapping",
						"key": "t_address",
						"label": "mapping(address => uint256)",
						"numberOfBytes": "32",
						"value": "t_uint256"
					},
					"t_string_storage": {
						"encoding": "bytes",
						"label": "string",
						"numberOfBytes": "32"
					},
					"t_uint256": {
						"encoding": "inplace",
						"label": "uint256",
						"numberOfBytes": "32"
					},
					"t_uint8": {
						"encoding": "inplace",
						"label": "uint8",
						"numberOfBytes": "1"
					}
				}
			},
			"userdoc": {
				"kind": "user",
				"methods": {},
				"version": 1
			}
		}
	}
}